{"contracts/StaticFruitDeliciousAnimated.sol":{"StaticFruitDeliciousAnimated":{"abi":[{"inputs":[{"internalType":"uint96","name":"royaltyBps","type":"uint96"},{"internalType":"uint256","name":"_maxSupply","type":"uint256"},{"internalType":"uint256","name":"_price","type":"uint256"},{"internalType":"address","name":"_payout","type":"address"}],"stateMutability":"nonpayable","type":"constructor"},{"inputs":[{"internalType":"uint256","name":"numerator","type":"uint256"},{"internalType":"uint256","name":"denominator","type":"uint256"}],"name":"ERC2981InvalidDefaultRoyalty","type":"error"},{"inputs":[{"internalType":"address","name":"receiver","type":"address"}],"name":"ERC2981InvalidDefaultRoyaltyReceiver","type":"error"},{"inputs":[{"internalType":"uint256","name":"tokenId","type":"uint256"},{"internalType":"uint256","name":"numerator","type":"uint256"},{"internalType":"uint256","name":"denominator","type":"uint256"}],"name":"ERC2981InvalidTokenRoyalty","type":"error"},{"inputs":[{"internalType":"uint256","name":"tokenId","type":"uint256"},{"internalType":"address","name":"receiver","type":"address"}],"name":"ERC2981InvalidTokenRoyaltyReceiver","type":"error"},{"inputs":[{"internalType":"address","name":"sender","type":"address"},{"internalType":"uint256","name":"tokenId","type":"uint256"},{"internalType":"address","name":"owner","type":"address"}],"name":"ERC721IncorrectOwner","type":"error"},{"inputs":[{"internalType":"address","name":"operator","type":"address"},{"internalType":"uint256","name":"tokenId","type":"uint256"}],"name":"ERC721InsufficientApproval","type":"error"},{"inputs":[{"internalType":"address","name":"approver","type":"address"}],"name":"ERC721InvalidApprover","type":"error"},{"inputs":[{"internalType":"address","name":"operator","type":"address"}],"name":"ERC721InvalidOperator","type":"error"},{"inputs":[{"internalType":"address","name":"owner","type":"address"}],"name":"ERC721InvalidOwner","type":"error"},{"inputs":[{"internalType":"address","name":"receiver","type":"address"}],"name":"ERC721InvalidReceiver","type":"error"},{"inputs":[{"internalType":"address","name":"sender","type":"address"}],"name":"ERC721InvalidSender","type":"error"},{"inputs":[{"internalType":"uint256","name":"tokenId","type":"uint256"}],"name":"ERC721NonexistentToken","type":"error"},{"inputs":[],"name":"FailedCall","type":"error"},{"inputs":[{"internalType":"uint256","name":"balance","type":"uint256"},{"internalType":"uint256","name":"needed","type":"uint256"}],"name":"InsufficientBalance","type":"error"},{"inputs":[{"internalType":"address","name":"owner","type":"address"}],"name":"OwnableInvalidOwner","type":"error"},{"inputs":[{"internalType":"address","name":"account","type":"address"}],"name":"OwnableUnauthorizedAccount","type":"error"},{"inputs":[],"name":"ReentrancyGuardReentrantCall","type":"error"},{"anonymous":false,"inputs":[{"indexed":true,"internalType":"address","name":"owner","type":"address"},{"indexed":true,"internalType":"address","name":"approved","type":"address"},{"indexed":true,"internalType":"uint256","name":"tokenId","type":"uint256"}],"name":"Approval","type":"event"},{"anonymous":false,"inputs":[{"indexed":true,"internalType":"address","name":"owner","type":"address"},{"indexed":true,"internalType":"address","name":"operator","type":"address"},{"indexed":false,"internalType":"bool","name":"approved","type":"bool"}],"name":"ApprovalForAll","type":"event"},{"anonymous":false,"inputs":[{"indexed":false,"internalType":"string","name":"newBrand","type":"string"},{"indexed":false,"internalType":"string","name":"newCollection","type":"string"}],"name":"BrandingUpdated","type":"event"},{"anonymous":false,"inputs":[{"indexed":false,"internalType":"uint256","name":"newPrice","type":"uint256"}],"name":"MintPriceUpdated","type":"event"},{"anonymous":false,"inputs":[{"indexed":false,"internalType":"bool","name":"open","type":"bool"}],"name":"MintToggled","type":"event"},{"anonymous":false,"inputs":[{"indexed":true,"internalType":"address","name":"previousOwner","type":"address"},{"indexed":true,"internalType":"address","name":"newOwner","type":"address"}],"name":"OwnershipTransferred","type":"event"},{"anonymous":false,"inputs":[{"indexed":false,"internalType":"address","name":"newPayout","type":"address"}],"name":"PayoutAddressUpdated","type":"event"},{"anonymous":false,"inputs":[{"indexed":true,"internalType":"address","name":"from","type":"address"},{"indexed":true,"internalType":"address","name":"to","type":"address"},{"indexed":true,"internalType":"uint256","name":"tokenId","type":"uint256"}],"name":"Transfer","type":"event"},{"anonymous":false,"inputs":[{"indexed":true,"internalType":"address","name":"to","type":"address"},{"indexed":false,"internalType":"uint256","name":"amount","type":"uint256"}],"name":"Withdrawal","type":"event"},{"inputs":[{"internalType":"address","name":"to","type":"address"},{"internalType":"uint256","name":"tokenId","type":"uint256"}],"name":"approve","outputs":[],"stateMutability":"nonpayable","type":"function"},{"inputs":[{"internalType":"address","name":"owner","type":"address"}],"name":"balanceOf","outputs":[{"internalType":"uint256","name":"","type":"uint256"}],"stateMutability":"view","type":"function"},{"inputs":[],"name":"brand","outputs":[{"internalType":"string","name":"","type":"string"}],"stateMutability":"view","type":"function"},{"inputs":[{"internalType":"uint256","name":"tokenId","type":"uint256"}],"name":"burn","outputs":[],"stateMutability":"nonpayable","type":"function"},{"inputs":[],"name":"collection","outputs":[{"internalType":"string","name":"","type":"string"}],"stateMutability":"view","type":"function"},{"inputs":[{"internalType":"uint256","name":"tokenId","type":"uint256"}],"name":"deliciousnessOf","outputs":[{"internalType":"uint8","name":"","type":"uint8"}],"stateMutability":"view","type":"function"},{"inputs":[{"internalType":"uint256","name":"tokenId","type":"uint256"}],"name":"getApproved","outputs":[{"internalType":"address","name":"","type":"address"}],"stateMutability":"view","type":"function"},{"inputs":[{"internalType":"address","name":"owner","type":"address"},{"internalType":"address","name":"operator","type":"address"}],"name":"isApprovedForAll","outputs":[{"internalType":"bool","name":"","type":"bool"}],"stateMutability":"view","type":"function"},{"inputs":[],"name":"maxSupply","outputs":[{"internalType":"uint256","name":"","type":"uint256"}],"stateMutability":"view","type":"function"},{"inputs":[{"internalType":"uint256","name":"qty","type":"uint256"}],"name":"mint","outputs":[],"stateMutability":"payable","type":"function"},{"inputs":[],"name":"mintOpen","outputs":[{"internalType":"bool","name":"","type":"bool"}],"stateMutability":"view","type":"function"},{"inputs":[],"name":"mintPrice","outputs":[{"internalType":"uint256","name":"","type":"uint256"}],"stateMutability":"view","type":"function"},{"inputs":[],"name":"name","outputs":[{"internalType":"string","name":"","type":"string"}],"stateMutability":"view","type":"function"},{"inputs":[],"name":"nextId","outputs":[{"internalType":"uint256","name":"","type":"uint256"}],"stateMutability":"view","type":"function"},{"inputs":[],"name":"owner","outputs":[{"internalType":"address","name":"","type":"address"}],"stateMutability":"view","type":"function"},{"inputs":[{"internalType":"uint256","name":"tokenId","type":"uint256"}],"name":"ownerOf","outputs":[{"internalType":"address","name":"","type":"address"}],"stateMutability":"view","type":"function"},{"inputs":[],"name":"payout","outputs":[{"internalType":"address","name":"","type":"address"}],"stateMutability":"view","type":"function"},{"inputs":[],"name":"renounceOwnership","outputs":[],"stateMutability":"nonpayable","type":"function"},{"inputs":[{"internalType":"uint256","name":"tokenId","type":"uint256"},{"internalType":"uint256","name":"salePrice","type":"uint256"}],"name":"royaltyInfo","outputs":[{"internalType":"address","name":"receiver","type":"address"},{"internalType":"uint256","name":"amount","type":"uint256"}],"stateMutability":"view","type":"function"},{"inputs":[{"internalType":"address","name":"from","type":"address"},{"internalType":"address","name":"to","type":"address"},{"internalType":"uint256","name":"tokenId","type":"uint256"}],"name":"safeTransferFrom","outputs":[],"stateMutability":"nonpayable","type":"function"},{"inputs":[{"internalType":"address","name":"from","type":"address"},{"internalType":"address","name":"to","type":"address"},{"internalType":"uint256","name":"tokenId","type":"uint256"},{"internalType":"bytes","name":"data","type":"bytes"}],"name":"safeTransferFrom","outputs":[],"stateMutability":"nonpayable","type":"function"},{"inputs":[{"internalType":"address","name":"operator","type":"address"},{"internalType":"bool","name":"approved","type":"bool"}],"name":"setApprovalForAll","outputs":[],"stateMutability":"nonpayable","type":"function"},{"inputs":[{"internalType":"string","name":"_brand","type":"string"},{"internalType":"string","name":"_collection","type":"string"}],"name":"setBranding","outputs":[],"stateMutability":"nonpayable","type":"function"},{"inputs":[{"internalType":"uint256","name":"p","type":"uint256"}],"name":"setMintPrice","outputs":[],"stateMutability":"nonpayable","type":"function"},{"inputs":[{"internalType":"address","name":"p","type":"address"}],"name":"setPayout","outputs":[],"stateMutability":"nonpayable","type":"function"},{"inputs":[{"internalType":"bytes4","name":"iid","type":"bytes4"}],"name":"supportsInterface","outputs":[{"internalType":"bool","name":"","type":"bool"}],"stateMutability":"view","type":"function"},{"inputs":[],"name":"symbol","outputs":[{"internalType":"string","name":"","type":"string"}],"stateMutability":"view","type":"function"},{"inputs":[{"internalType":"bool","name":"open","type":"bool"}],"name":"toggleMint","outputs":[],"stateMutability":"nonpayable","type":"function"},{"inputs":[{"internalType":"uint256","name":"tokenId","type":"uint256"}],"name":"tokenURI","outputs":[{"internalType":"string","name":"","type":"string"}],"stateMutability":"view","type":"function"},{"inputs":[{"internalType":"address","name":"from","type":"address"},{"internalType":"address","name":"to","type":"address"},{"internalType":"uint256","name":"tokenId","type":"uint256"}],"name":"transferFrom","outputs":[],"stateMutability":"nonpayable","type":"function"},{"inputs":[{"internalType":"address","name":"newOwner","type":"address"}],"name":"transferOwnership","outputs":[],"stateMutability":"nonpayable","type":"function"},{"inputs":[],"name":"withdraw","outputs":[],"stateMutability":"nonpayable","type":"function"}],"evm":{"bytecode":{"linkReferences":{},"object":"60a03462000489576200453080380390601f1992601f848185011682019360018060401b03938386108587111762000473578160809285926040988952833981010312620004895781516001600160601b0381168082036200048957602080850151936060888701519601519660018060a01b03998a89168099036200048957620000896200048e565b928484527f53746174696346727569742044656c6963696f75732028416e696d617465642985850152620000bc6200048e565b916005908184526408ca4aaa8b60db1b878501528551858111620004735780600097620000ea8954620004ae565b8a87821162000444575b50508990868311600114620003e0578992620003d4575b50508160011b916000199060031b1c19161786555b835190858211620003c05781906001956200013c8754620004ae565b8a87821162000386575b50508991868411600114620003255750889262000319575b5050600019600383901b1c191690841b1783555b8a1562000301578a809c9d60085460018060a01b03199d8e821617600855167f8be0079c531659141344cd1fd0a4f28419497f9722a3daafe3b4186f6b6457e08780a382600955620001c6600d54620004ae565b828111620002e1575b507f5374617469634672756974000000000000000000000000000000000000000016600d55600e546200020290620004ae565b90828211620002bf575b50505060126844656c6963696f757360b81b01600e5560ff19600f541617600f55612710808511620002a25750895191828b01918211838310176200028e57509087949392918a52888152015260a01b168417600655608052600b55600c541617600c555161402b90816200050582396080518181816102de01526122ff0152f35b634e487b7160e01b81526041600452602490fd5b846044918c5191636f483d0960e01b835260048301526024820152fd5b620002d892600e87528787209201901c810190620004eb565b3880806200020c565b600d8652868620620002fa918401831c810190620004eb565b38620001cf565b8b51631e4fbdf760e01b815260048101869052602490fd5b0151905038806200015e565b878a528a8a20889590939291168a5b8c8282106200036f575050841162000355575b505050811b01835562000172565b015160001960f88460031b161c1916905538808062000347565b8385015186558a9790950194938401930162000334565b620003ae91898c5288828d20918188018a1c8301938810620003b6575b01881c0190620004eb565b388a62000146565b92508192620003a3565b634e487b7160e01b87526041600452602487fd5b0151905038806200010b565b8980528a8a209285168a5b8c8282106200042d57505090846001959493921062000413575b505050811b01865562000120565b015160001960f88460031b161c1916905538808062000405565b6001859682939686015181550195019301620003eb565b6200046b918b805288828d20918187018a1c8301938710620003b65701881c0190620004eb565b388a620000f4565b634e487b7160e01b600052604160045260246000fd5b600080fd5b60408051919082016001600160401b038111838210176200047357604052565b90600182811c92168015620004e0575b6020831014620004ca57565b634e487b7160e01b600052602260045260246000fd5b91607f1691620004be565b818110620004f7575050565b60008155600101620004eb56fe608080604052600436101561001357600080fd5b60003560e01c90816301ffc9a714612faf5750806306fdde0314612f04578063081812fc14612ec5578063095ea7b314612dc457806323b872dd14612dad57806324bbd04914612d8a5780632a55205a14612d015780632d9fff0114612c535780633ccfd60b14612bfa57806342842e0e14612bcc57806342966c6814612a6857806361b8ce8c14612a4a5780636352211e14612a1b57806363bd1d4a146129f45780636817c76c146129d657806370a0823114612965578063715018a61461290a5780637de1e5361461285c5780638a4dcd85146127fa5780638da5cb5b146127d357806395d89b41146126f0578063a0712d68146122b8578063a22cb465146121fb578063a3ff39b214612193578063b88d4fde146120fc578063c1d2b11d14611dac578063c60d7e4614611d83578063c87b56dd14610301578063d5abeb01146102c6578063e985e9c51461026f578063f2fde38b146101d05763f4a0a5281461017f57600080fd5b346101cb5760203660031901126101cb577f525b762709cc2a983aec5ccdfd807a061f993c91090b5bcd7da92ca254976aaa60206004356101be61362b565b80600b55604051908152a1005b600080fd5b346101cb5760203660031901126101cb576101e96130e1565b6101f161362b565b6001600160a01b0380911690811561023e57600854826001600160a01b0319821617600855167f8be0079c531659141344cd1fd0a4f28419497f9722a3daafe3b4186f6b6457e0600080a3005b60246040517f1e4fbdf700000000000000000000000000000000000000000000000000000000815260006004820152fd5b346101cb5760403660031901126101cb576102886130e1565b6102906130f7565b906001600160a01b03809116600052600560205260406000209116600052602052602060ff604060002054166040519015158152f35b346101cb5760003660031901126101cb5760206040517f00000000000000000000000000000000000000000000000000000000000000008152f35b346101cb5760203660031901126101cb5760043560005260026020526103366001600160a01b03604060002054161515613450565b6040516103428161317c565b60405161034e816131b5565b600581527f4d616e676f00000000000000000000000000000000000000000000000000000060208201528152604051610386816131b5565b600581527f4265727279000000000000000000000000000000000000000000000000000000602082015260208201526040516103c1816131b5565b600b81527f447261676f6e6672756974000000000000000000000000000000000000000000602082015260408201526040516103fc816131b5565b600581527f477261706500000000000000000000000000000000000000000000000000000060208201526060820152604051610437816131b5565b600581527f506561636800000000000000000000000000000000000000000000000000000060208201526080820152604051610472816131b5565b600481527f4c696d6500000000000000000000000000000000000000000000000000000000602082015260a08201526040516104ad816131b5565b600481527f506c756d00000000000000000000000000000000000000000000000000000000602082015260c08201526040516104e8816131b5565b600581527f4775617661000000000000000000000000000000000000000000000000000000602082015260e08201526007906105348261052960043561385e565b60201c16809261388a565b5161054060043561349b565b906040519361054e8561317c565b60405161055a816131b5565b8181527f233064313131370000000000000000000000000000000000000000000000000060208201528552604051610591816131b5565b8181527f2331323132313200000000000000000000000000000000000000000000000000602082015260208601526040516105cb816131b5565b8181527f233062306631340000000000000000000000000000000000000000000000000060208201526040860152604051610605816131b5565b8181527f23316131303230000000000000000000000000000000000000000000000000006020820152606086015260405161063f816131b5565b8181527f233066313332300000000000000000000000000000000000000000000000000060208201526080860152604051610679816131b5565b8181527f2331303133313400000000000000000000000000000000000000000000000000602082015260a08601526040516106b3816131b5565b8181527f2330653131313700000000000000000000000000000000000000000000000000602082015260c08601526040516106ed816131b5565b8181527f2331343130313600000000000000000000000000000000000000000000000000602082015260e08601526108fe846040519661072c8861317c565b604051610738816131b5565b8481527f23464637453442000000000000000000000000000000000000000000000000006020820152885260405161076f816131b5565b8481527f2341313642464600000000000000000000000000000000000000000000000000602082015260208901526040516107a9816131b5565b8481527f2346463346413400000000000000000000000000000000000000000000000000602082015260408901526040516107e3816131b5565b8481527f23384235434636000000000000000000000000000000000000000000000000006020820152606089015260405161081d816131b5565b8481527f234646423836420000000000000000000000000000000000000000000000000060208201526080890152604051610857816131b5565b8481527f2337434635433900000000000000000000000000000000000000000000000000602082015260a0890152604051610891816131b5565b8481527f2339423539423600000000000000000000000000000000000000000000000000602082015260c08901526040516108cb816131b5565b8481527f2337464442464600000000000000000000000000000000000000000000000000602082015260e089015261388a565b5193604260ff85161115611d41576001019460ff8611611d115760ff61092a92600197165b169061388a565b5190610935836138b1565b91610941600435613a29565b94610b096045604051976109d360028a61095d602082016134e5565b9361098d8e7f20000000000000000000000000000000000000000000000000000000000000009687815201613574565b7f202300000000000000000000000000000000000000000000000000000000000081526109c38251809360208785019101613099565b0103601d1981018c52018a613209565b6109df60ff8916613a29565b610a236040519b8c937f41200000000000000000000000000000000000000000000000000000000000006020860152610a1a602286016134e5565b90815201613574565b7f2070696563652e20466c61766f723a200000000000000000000000000000000081528751610a59816010840160208c01613099565b7f2e20546965723a2000000000000000000000000000000000000000000000000060108284010152895191610a98838c60206018868601019101613099565b01017f2e2044656c6963696f75736e6573733a200000000000000000000000000000006018820152610ad4825180936020602985019101613099565b017f2f3130302e20416e696d61746564206f6e2d636861696e205356472e00000000602982015203602581018a520188613209565b601460ff86160460080360088111611d115760038110611d39575b600c60ff871604600e0392600e8411611d115760068410611d30575b600f60ff881604600c0391600c8311611d115760058310611d27575b61034860ff8916808202819004821490151715611d11576064610b849160ff8b160204613a29565b610b8d88613bd9565b885160208a0120967fffc66c8548bc388f0156d76251a192b57d2601764d8478982e579b825596b8bc8814978815611ce7575b50610bdc610bd6610bd086613a29565b97613a29565b94613a29565b9715611cd157610dda60de610cc49260405190610bf8826131d1565b60338252610c5260208301917f4d302c2d3230204c362c2d36204c32302c30204c362c36204c302c3230204c2d83527f362c36204c2d32302c30204c2d362c2d36205a000000000000000000000000006040850152613a29565b906040519586937f3c67207472616e73666f726d3d227472616e736c61746528302c2d323030292260208601527f3e000000000000000000000000000000000000000000000000000000000000006040860152681e3830ba3410321e9160b91b6041860152518092604a860190613099565b82017f222066696c6c3d22236666666666666430223e00000000000000000000000000604a8201527f3c616e696d6174655472616e73666f726d206174747269627574654e616d653d605d8201527f227472616e73666f726d2220747970653d22726f74617465222066726f6d3d22607d8201527f30203020302220746f3d223336302030203022206475723d2200000000000000609d820152610d7282518093602060b685019101613099565b017f732220726570656174436f756e743d22696e646566696e697465222f3e00000060b68201527f3c2f706174683e0000000000000000000000000000000000000000000000000060d3820152631e17b39f60e11b60da8201520360be810184520182613209565b610de5600435613a29565b9585610df360ff8e16613a29565b956040519a8b9a8b94602086017f3c73766720786d6c6e733d22687474703a2f2f7777772e77332e6f72672f32309052604086017f30302f737667222077696474683d223130303022206865696768743d223130309052606086017f30223e00000000000000000000000000000000000000000000000000000000009052606386017f3c646566733e00000000000000000000000000000000000000000000000000009052606986017f3c7374796c653e40666f6e742d666163657b666f6e742d66616d696c793a496e9052608986017f7465723b7372633a6c6f63616c28496e746572293b7d202e747b666f6e742d66905260a986017f616d696c793a496e7465722c73797374656d2d75692c73616e732d7365726966905260c986017f3b66696c6c3a236666667d3c2f7374796c653e00000000000000000000000000905260dc86017f3c72616469616c4772616469656e742069643d2267223e000000000000000000905260f386017f3c73746f70206f66667365743d223025222073746f702d636f6c6f723d220000905261011190855160208701978184820190610f9c918b613099565b019182017f222073746f702d6f7061636974793d22302e3935223e0000000000000000000090527f3c616e696d617465206174747269627574654e616d653d226f66667365742220908161012784015261014783017f76616c7565733d2230253b3230253b302522206475723d220000000000000000905261015f9281519182858301916020019161102d92613099565b01917f732220726570656174436f756e743d22696e646566696e697465222f3e000000958680928501527f3c2f73746f703e00000000000000000000000000000000000000000000000000928361017c8601527f3c73746f70206f66667365743d2231303025222073746f702d636f6c6f723d2294856101838201526101a39951908b828c83016110bd92613099565b7f222073746f702d6f7061636974793d22302e3132222f3e0000000000000000009101998a01527f3c2f72616469616c4772616469656e743e0000000000000000000000000000006101ba8a01527f3c6c696e6561724772616469656e742069643d227368696d6d6572222078313d6101cb8a01527f223025222079313d223025222078323d2231303025222079323d223025223e006101eb8a01527f3c73746f70206f66667365743d223025222073746f702d636f6c6f723d22236661020a8a01527f66666666663230222f3e0000000000000000000000000000000000000000000061022a8a01527f3c73746f70206f66667365743d22353025222073746f702d636f6c6f723d22236102348a01527f6666666666663630223e000000000000000000000000000000000000000000006102548a015261025e8901527f76616c7565733d2230253b3130302522206475723d220000000000000000000061027e890152805161029498909161123c9083908b840190602001613099565b01968701526102b18601526102b88501527f236666666666663230222f3e00000000000000000000000000000000000000006102d88501527f3c2f6c696e6561724772616469656e743e0000000000000000000000000000006102e48501527f3c2f646566733e000000000000000000000000000000000000000000000000006102f58501527f3c726563742077696474683d223130302522206865696768743d2231303025226102fc8501527f2072783d223438222066696c6c3d22000000000000000000000000000000000061031c850152805161032b94909161132a90839087840190602001613099565b7f222f3e00000000000000000000000000000000000000000000000000000000009101938401527f3c67207472616e73666f726d3d227472616e736c617465283530302c3532302961032e8401527f223e00000000000000000000000000000000000000000000000000000000000061034e8401527f3c673e00000000000000000000000000000000000000000000000000000000006103508401527f3c636972636c6520723d22333630222066696c6c3d2275726c28236729223e006103538401527f3c616e696d6174655472616e73666f726d206174747269627574654e616d653d6103728401527f227472616e73666f726d2220747970653d227363616c65222076616c7565733d6103928401527f22313b312e30353b3122206475723d22000000000000000000000000000000006103b284015280516103c293909161147c90839086840190602001613099565b01918201526103df81017f3c2f636972636c653e00000000000000000000000000000000000000000000009052631e17b39f60e11b93846103e88301526103ec8201681e3830ba3410321e9160b91b90526103f5918151918284830191602001916114e692613099565b019081017f22207472616e73666f726d3d227472616e736c617465282d3530302c2d353230905261041581017f29222066696c6c3d220000000000000000000000000000000000000000000000905261041e9651918288830161154892613099565b019485017f22206f7061636974793d22302e3138222f3e000000000000000000000000000090526104309481519182878301916020019161158892613099565b01938401527f3c7465787420783d2238302220793d223230302220636c6173733d22742220666104348401527f6f6e742d73697a653d22363422206f7061636974793d22302e39223e000000006104548401528651610470936115f18286830160208c01613099565b01917f202d2000000000000000000000000000000000000000000000000000000000008094840152610473928951908481018260208d019161163292613099565b01927f3c2f746578743e000000000000000000000000000000000000000000000000009586809286015261047a85017f3c7465787420783d2238302220793d223238302220636c6173733d2274222066905261049a85017f6f6e742d73697a653d22333622206f7061636974793d22302e36223e2300000090526104b7948151918287830191602001916116c592613099565b01938401527f3c7465787420783d2238302220793d223730302220636c6173733d22742220666104be8401527f6f6e742d73697a653d22323822206f7061636974793d22302e3835223e44656c6104de8401527f6963696f75736e657373200000000000000000000000000000000000000000006104fe840152805161050993909161175990839086840190602001613099565b7f2f3130303c2f746578743e0000000000000000000000000000000000000000009101928301527f3c7265637420783d2238302220793d22373230222077696474683d22383430226105148301527f206865696768743d223336222072783d223138222066696c6c3d2223666666666105348301527f66663230222f3e000000000000000000000000000000000000000000000000006105548301527f3c7265637420783d2238302220793d22373230222077696474683d220000000061055b830152805161057792909161183690839085840190602001613099565b7f22206865696768743d223336222072783d223138222066696c6c3d2275726c289101918201527f237368696d6d657229222f3e00000000000000000000000000000000000000006105978201527f3c7265637420783d2238302220793d22383230222072783d22313422207769646105a38201527f74683d2238343022206865696768743d223536222066696c6c3d2223666666666105c38201527f66663130222f3e000000000000000000000000000000000000000000000000006105e38201527f3c7465787420783d223130302220793d223836302220636c6173733d227422206105ea8201527f666f6e742d73697a653d22323822206f7061636974793d22302e39223e00000061060a8201526119549061062701613574565b90815284519061196b826003830160208901613099565b01906003820152600a81017f3c2f7376673e0000000000000000000000000000000000000000000000000000905203600f19810182526010016119ae9082613209565b6119b6613b7a565b6119bf91613eda565b9260ff166119cc90613a29565b92604051958695602087017f7b226e616d65223a220000000000000000000000000000000000000000000000905280519081602989019160200191611a1092613099565b8601602981017f222c226465736372697074696f6e223a22000000000000000000000000000000905281519182603a83019160200191611a4f92613099565b01603a81017f222c22696d616765223a22646174613a696d6167652f7376672b786d6c3b62619052605a81017f736536342c000000000000000000000000000000000000000000000000000000905281519182605f83019160200191611ab492613099565b01605f81017f222c2261747472696275746573223a5b000000000000000000000000000000009052606f81017f7b2274726169745f74797065223a22466c61766f72222c2276616c7565223a22905281519182608f83019160200191611b1992613099565b01907f227d2c00000000000000000000000000000000000000000000000000000000009182608f820152609281017f7b2274726169745f74797065223a2254696572222c2276616c7565223a22000090528151918260b083019160200191611b8092613099565b019060b082015260b381017f7b2274726169745f74797065223a2244656c6963696f75736e657373222c2276905260d381017f616c7565223a000000000000000000000000000000000000000000000000000090528151918260d983019160200191611beb92613099565b0160d981017f7d00000000000000000000000000000000000000000000000000000000000000905260da81017f5d7d00000000000000000000000000000000000000000000000000000000000090520360bc8101825260dc01611c4e9082613209565b611c56613b7a565b611c5f91613eda565b6040518091602082017f646174613a6170706c69636174696f6e2f6a736f6e3b6261736536342c000000905280519081603d84019160200191611ca192613099565b810103601d81018252603d01611cb79082613209565b60405180916020825260208201611ccd916130bc565b0390f35b50604051611cde81613199565b60008152610dda565b7f181ebe3a8fa130246d49bfd123ac54849b05bdcd02c6b1322c78de2a3988a3101497508d610bc0565b634e487b7160e01b600052601160045260246000fd5b60059250610b5c565b60069350610b40565b506003610b24565b602160ff85161115611d68576002019460ff8611611d115760ff61092a9260019716610923565b6003019460ff8611611d115760ff61092a9260019716610923565b346101cb5760203660031901126101cb576020611da160043561349b565b60ff60405191168152f35b346101cb5760403660031901126101cb5767ffffffffffffffff6004358181116101cb57611dde903690600401613247565b6024358381116101cb57611df6903690600401613247565b611dfe61362b565b848311611ff357611e10600d54613142565b94601f9586811161209a575b5083600087821160011461201457600091612009575b508460011b906000198660031b1c191617600d555b8111611ff357611e58600e54613142565b858111611f91575b506000948111600114611ee7579081611ed7927f2c7ea2c532cc0dad6d6baad5a149d62033f0f3fa2e619de5a0296268f78611c396600091611edc575b508160011b906000198360031b1c191617600e555b611ec960405195869560408752604087019161342f565b91848303602086015261342f565b0390a1005b905082013587611e9d565b601f19811694600e6000527fbb7b4a454dc3493923482f07822329ed19e8244eff582cc204f8554c3620c3fd9560005b818110611f795750958291611ed794937f2c7ea2c532cc0dad6d6baad5a149d62033f0f3fa2e619de5a0296268f78611c39810611f5f575b5050600181811b01600e55611eb2565b830135600019600384901b60f8161c191690558680611f4f565b84830135885560019097019660209283019201611f17565b600e6000527fbb7b4a454dc3493923482f07822329ed19e8244eff582cc204f8554c3620c3fd8680840160051c82019260208510611fea575b0160051c01905b818110611fde5750611e60565b60008155600101611fd1565b92508192611fca565b634e487b7160e01b600052604160045260246000fd5b905085013587611e32565b9050601f19851690600d600052857fd7b6990105719101dabeb77144f2a3385c8033acd3af97e9423a695e81ad1eb59260005b81811061207f575010612065575b5050600184811b01600d55611e47565b860135600019600387901b60f8161c191690558680612055565b89840135855560019094019360209384019389935001612047565b600d6000527fd7b6990105719101dabeb77144f2a3385c8033acd3af97e9423a695e81ad1eb58780870160051c820192602088106120f3575b0160051c01905b8181106120e75750611e1c565b600081556001016120da565b925081926120d3565b346101cb5760803660031901126101cb576121156130e1565b61211d6130f7565b906044356064359267ffffffffffffffff84116101cb57366023850112156101cb5783600401359261214e8461322b565b9361215c6040519586613209565b80855236602482880101116101cb5760208160009260246121919901838901378601015261218b838383613275565b3361373a565b005b346101cb5760203660031901126101cb577ffcbb1571f6f637b3645e200ff18fbcb7fc2f8db33547e2f582146a51246e104360206001600160a01b036121d76130e1565b6121df61362b565b16806001600160a01b0319600c541617600c55604051908152a1005b346101cb5760403660031901126101cb576122146130e1565b602435908115158092036101cb576001600160a01b031690811561228757336000526005602052604060002082600052602052604060002060ff1981541660ff83161790556040519081527f17307eab39ab6107e8899845ad3d59bd9653f200f220920489ca2b5937696c3160203392a3005b602482604051907f5b08ba180000000000000000000000000000000000000000000000000000000082526004820152fd5b60203660031901126101cb576002600954146126c657600260095560ff600f54161561268257600435151580612675575b1561263157600a546004358101809111611d11577f0000000000000000000000000000000000000000000000000000000000000000106125ed57612331600435600b5461341c565b34106125a95760005b600435811061236b5747612350575b6001600955005b6123666001600160a01b03600c5416479061369f565b612349565b600a546040519061237b82613199565b600082523315612591578060005260026020526001600160a01b0360406000205416818115159182612555575b3361253b575b8160005260026020526040600020336001600160a01b031982541617905533907fddf252ad1be2c89b69c2b068fc378daa952ba7f163c4a11628f55a4df523b3ef600080a461250a57333b612411575b505060019081600a5401600a550161233a565b61244d916020916040519384928392630a85bd0160e11b84523360048501526000602485015260448401526080606484015260848301906130bc565b03816000335af1600091816124c5575b5061248e5761246a61366f565b80519081612489576024604051633250574960e11b8152336004820152fd5b602001fd5b6001600160e01b0319630a85bd0160e11b9116036124ae576001826123fe565b6024604051633250574960e11b8152336004820152fd5b9091506020813d602011612502575b816124e160209383613209565b810103126101cb57516001600160e01b0319811681036101cb57908361245d565b3d91506124d4565b60246040517f73c6ac6e00000000000000000000000000000000000000000000000000000000815260006004820152fd5b3360005260036020526040600020600181540190556123ae565b61257682600052600460205260406000206001600160a01b03198154169055565b806000526003602052604060002060001981540190556123a8565b6024604051633250574960e11b815260006004820152fd5b606460405162461bcd60e51b815260206004820152601060248201527f696e73756666696369656e7420455448000000000000000000000000000000006044820152fd5b606460405162461bcd60e51b815260206004820152600860248201527f736f6c64206f75740000000000000000000000000000000000000000000000006044820152fd5b606460405162461bcd60e51b815260206004820152600860248201527f71747920312e2e350000000000000000000000000000000000000000000000006044820152fd5b50600560043511156122e9565b606460405162461bcd60e51b815260206004820152600b60248201527f4d696e7420636c6f7365640000000000000000000000000000000000000000006044820152fd5b60046040517f3ee5aeb5000000000000000000000000000000000000000000000000000000008152fd5b346101cb5760003660031901126101cb5760405160006001826001549261271684613142565b92838352602094856001821691826000146127b3575050600114612756575b5061274292500383613209565b611ccd6040519282849384528301906130bc565b84915060016000527fb10e2d527612073b26eecdfd717e6a320cf44b4afac2b0732d9fcbe2b7fa0cf6906000915b85831061279b575050612742935082010185612735565b80548389018501528794508693909201918101612784565b60ff19168582015261274295151560051b85010192508791506127359050565b346101cb5760003660031901126101cb5760206001600160a01b0360085416604051908152f35b346101cb5760203660031901126101cb576004358015158091036101cb5760207f8ba9af8fef251a59a57bb383a518ff12b3c2770c23cf0ab9a59a9e2390e08f439161284461362b565b60ff19600f541660ff821617600f55604051908152a1005b346101cb5760003660031901126101cb57604051600e5460008261287f83613142565b91828252602093600190856001821691826000146127b35750506001146128ad575061274292500383613209565b849150600e6000527fbb7b4a454dc3493923482f07822329ed19e8244eff582cc204f8554c3620c3fd906000915b8583106128f2575050612742935082010185612735565b805483890185015287945086939092019181016128db565b346101cb5760003660031901126101cb5761292361362b565b60006001600160a01b036008546001600160a01b03198116600855167f8be0079c531659141344cd1fd0a4f28419497f9722a3daafe3b4186f6b6457e08280a3005b346101cb5760203660031901126101cb576001600160a01b036129866130e1565b1680156129a55760005260036020526020604060002054604051908152f35b60246040517f89c62b6400000000000000000000000000000000000000000000000000000000815260006004820152fd5b346101cb5760003660031901126101cb576020600b54604051908152f35b346101cb5760003660031901126101cb5760206001600160a01b03600c5416604051908152f35b346101cb5760203660031901126101cb576020612a396004356135f0565b6001600160a01b0360405191168152f35b346101cb5760003660031901126101cb576020600a54604051908152f35b346101cb576020806003193601126101cb576004359081600052600281526001600160a01b03908160406000205416913315159081612b24575b505090600260009282612aec575b84845252604082206001600160a01b031981541690557fddf252ad1be2c89b69c2b068fc378daa952ba7f163c4a11628f55a4df523b3ef8280a4005b612b0d85600052600460205260406000206001600160a01b03198154169055565b828452600381526040842084198154019055612ab0565b81612b74575b5015612b37578380612aa2565b50612b545760249060405190637e27328960e01b82526004820152fd5b60405163177e802f60e01b81523360048201526024810191909152604490fd5b33841491508115612ba8575b8115612b8e575b5084612b2a565b905083600052600482523390604060002054161484612b87565b90508260005260058252604060002033600052825260ff6040600020541690612b80565b346101cb57612191612bdd3661310d565b9060405192612beb84613199565b6000845261218b838383613275565b346101cb5760003660031901126101cb57612c1361362b565b612191476001600160a01b03600c5416807f7fcf532c15f0a6db0bd6d0e038bea71d30d808c7d98cb3bf7268a95bf5081b656020604051858152a261369f565b346101cb5760003660031901126101cb57604051600d54600082612c7683613142565b91828252602093600190856001821691826000146127b3575050600114612ca4575061274292500383613209565b849150600d6000527fd7b6990105719101dabeb77144f2a3385c8033acd3af97e9423a695e81ad1eb5906000915b858310612ce9575050612742935082010185612735565b80548389018501528794508693909201918101612cd2565b346101cb5760403660031901126101cb5760043560005260076020526040600020546001600160a01b038082169160a01c908215612d75575b50612d586bffffffffffffffffffffffff612710921660243561341c565b604080516001600160a01b03949094168452919004602083015290f35b600654908116925060a01c9050612d58612d3a565b346101cb5760003660031901126101cb57602060ff600f54166040519015158152f35b346101cb57612191612dbe3661310d565b91613275565b346101cb5760403660031901126101cb57612ddd6130e1565b602435612de9816135f0565b33151580612eb2575b80612e84575b612e545781906001600160a01b03809416938491167f8c5be1e5ebec7d5bd14f71427d1e84f3dd0314c0f7b2291e5b200ac8c7c3b925600080a460005260046020526040600020906001600160a01b0319825416179055600080f35b60246040517fa9fbf51f000000000000000000000000000000000000000000000000000000008152336004820152fd5b506001600160a01b038116600052600560205260406000203360005260205260ff6040600020541615612df8565b50336001600160a01b0382161415612df2565b346101cb5760203660031901126101cb57600435612ee2816135f0565b50600052600460205260206001600160a01b0360406000205416604051908152f35b346101cb5760003660031901126101cb57604051600080549082612f2783613142565b91828252602093600190856001821691826000146127b3575050600114612f55575061274292500383613209565b6000808052859250907f290decd9548b62a8d60345a988386fc84ba6bc95484008f6362f93160ef3e5635b858310612f97575050612742935082010185612735565b80548389018501528794508693909201918101612f80565b346101cb5760203660031901126101cb57600435906001600160e01b031982168092036101cb57817f2a55205a000000000000000000000000000000000000000000000000000000006020931490811561300b575b5015158152f35b7f80ac58cd0000000000000000000000000000000000000000000000000000000081149150811561306f575b8115613045575b5083613004565b7f01ffc9a7000000000000000000000000000000000000000000000000000000009150148361303e565b7f5b5e139f0000000000000000000000000000000000000000000000000000000081149150613037565b60005b8381106130ac5750506000910152565b818101518382015260200161309c565b906020916130d581518092818552858086019101613099565b601f01601f1916010190565b600435906001600160a01b03821682036101cb57565b602435906001600160a01b03821682036101cb57565b60609060031901126101cb576001600160a01b039060043582811681036101cb579160243590811681036101cb579060443590565b90600182811c92168015613172575b602083101461315c57565b634e487b7160e01b600052602260045260246000fd5b91607f1691613151565b610100810190811067ffffffffffffffff821117611ff357604052565b6020810190811067ffffffffffffffff821117611ff357604052565b6040810190811067ffffffffffffffff821117611ff357604052565b6060810190811067ffffffffffffffff821117611ff357604052565b6080810190811067ffffffffffffffff821117611ff357604052565b90601f8019910116810190811067ffffffffffffffff821117611ff357604052565b67ffffffffffffffff8111611ff357601f01601f191660200190565b9181601f840112156101cb5782359167ffffffffffffffff83116101cb57602083818601950101116101cb57565b90916001600160a01b0380931692831561259157600092828452826020956002875260409684888820541696879133151580613383575b509060027fddf252ad1be2c89b69c2b068fc378daa952ba7f163c4a11628f55a4df523b3ef928461334b575b858352600381528b83206001815401905586835252898120846001600160a01b031982541617905580a416928383036133115750505050565b6064945051927f64283d7b000000000000000000000000000000000000000000000000000000008452600484015260248301526044820152fd5b61336c87600052600460205260406000206001600160a01b03198154169055565b848352600381528b832080546000190190556132d8565b919394509150806133db575b1561339f578592918791386132ac565b8786886133bc576024915190637e27328960e01b82526004820152fd5b905163177e802f60e01b81523360048201526024810191909152604490fd5b503387148015613400575b8061338f575085825260048152338589842054161461338f565b5086825260058152878220338352815260ff88832054166133e6565b81810292918115918404141715611d1157565b908060209392818452848401376000828201840152601f01601f1916010190565b1561345757565b606460405162461bcd60e51b815260206004820152600260248201527f4e410000000000000000000000000000000000000000000000000000000000006044820152fd5b60656134ca60ff928060005260026020526134c56001600160a01b03604060002054161515613450565b61385e565b0616600881106134d75790565b60080160ff8111611d115790565b600d54600092916134f582613142565b91600190818116908115613561575060011461351057505050565b9091929350600d6000527fd7b6990105719101dabeb77144f2a3385c8033acd3af97e9423a695e81ad1eb5906000915b84831061354e575050500190565b8181602092548587015201920191613540565b60ff191683525050811515909102019150565b600e546000929161358482613142565b91600190818116908115613561575060011461359f57505050565b9091929350600e6000527fbb7b4a454dc3493923482f07822329ed19e8244eff582cc204f8554c3620c3fd906000915b8483106135dd575050500190565b81816020925485870152019201916135cf565b8060005260026020526001600160a01b0360406000205416908115613613575090565b60249060405190637e27328960e01b82526004820152fd5b6001600160a01b0360085416330361363f57565b60246040517f118cdaa7000000000000000000000000000000000000000000000000000000008152336004820152fd5b3d1561369a573d906136808261322b565b9161368e6040519384613209565b82523d6000602084013e565b606090565b8147106137025760008080936001600160a01b038294165af16136c061366f565b90156136c95750565b8051156136d857602081519101fd5b60046040517fd6bda275000000000000000000000000000000000000000000000000000000008152fd5b6044824790604051917fcf47918100000000000000000000000000000000000000000000000000000000835260048301526024820152fd5b9293823b61374a575b5050505050565b61378f906001600160a01b038094169560405194859481630a85bd0160e11b9889885216600487015216602485015260448401526080606484015260848301906130bc565b03906020816000938185885af19082908261380e575b50506137dc57826137b461366f565b80519190826137d55760248260405190633250574960e11b82526004820152fd5b6020915001fd5b6001600160e01b031916036137f657503880808080613743565b60249060405190633250574960e11b82526004820152fd5b909192506020813d602011613856575b8161382b60209383613209565b810103126138525751906001600160e01b03198216820361384f57509038806137a5565b80fd5b5080fd5b3d915061381e565b60405160208101913060601b8352603482015246605482015260548152613884816131ed565b51902090565b90600881101561389b5760051b0190565b634e487b7160e01b600052603260045260246000fd5b60ff16605a8110156139bd57604681101561398357603281101561394957601e1115613910576040516138e3816131b5565b600381527f5261770000000000000000000000000000000000000000000000000000000000602082015290565b60405161391c816131b5565b600581527f54616e6779000000000000000000000000000000000000000000000000000000602082015290565b50604051613956816131b5565b600581527f4a75696379000000000000000000000000000000000000000000000000000000602082015290565b50604051613990816131b5565b600581527f5072696d65000000000000000000000000000000000000000000000000000000602082015290565b506040516139ca816131b5565b600981527f4c6567656e646172790000000000000000000000000000000000000000000000602082015290565b90613a018261322b565b613a0e6040519182613209565b8281528092613a1f601f199161322b565b0190602036910137565b806000917a184f03e93ff9f4daa797ed6e38ed64bf6a1f01000000000000000080821015613b6c575b506d04ee2d6d415b85acef810000000080831015613b5d575b50662386f26fc1000080831015613b4e575b506305f5e10080831015613b3f575b5061271080831015613b30575b506064821015613b20575b600a80921015613b16575b600190816021613ac1600187016139f7565b95860101905b613ad3575b5050505090565b600019019083907f30313233343536373839616263646566000000000000000000000000000000008282061a835304918215613b1157919082613ac7565b613acc565b9160010191613aaf565b9190606460029104910191613aa4565b60049193920491019138613a99565b60089193920491019138613a8c565b60109193920491019138613a7d565b60209193920491019138613a6b565b604093508104915038613a52565b60405190613b87826131d1565b604082527f6768696a6b6c6d6e6f707172737475767778797a303132333435363738392b2f6040837f4142434445464748494a4b4c4d4e4f505152535455565758595a61626364656660208201520152565b80516020918201207f7363a24996de434fc886f1474dd74d955980fa72b926b9c955f94f6698ebf6868103613c4157507f4d3530302c323430204c3332302c373230204c3638302c373230205a0000000060405191613c37836131b5565b601c835282015290565b7f1242766c8824991355aaadec4d656d943025e70fe896230af412f93b3f92ba088103613cc757507f4d3530302c323430204c3330302c353230204c3530302c383030204c3730302c60405191613c97836131d1565b602583528201527f353230205a000000000000000000000000000000000000000000000000000000604082015290565b7f1664b525956d22f8f0ad35bd22f34261df9b15fc7ba28020f9866ac08cbbc90f8103613d7357507f4d3530302c32363020433336302c333030203332302c353630203436302c373260405191613d1d836131ed565b605583528201527f3020433538302c383230203732302c373030203730302c35323020433638302c60408201527f333630203634302c333030203530302c323630205a0000000000000000000000606082015290565b7fffc66c8548bc388f0156d76251a192b57d2601764d8478982e579b825596b8bc03613e1d577f4d3530302c323430204c3534302c343230204c3732302c343230204c3538302c60405191613dc7836131ed565b605b83528201527f353230204c3632302c373030204c3530302c363030204c3338302c373030204c60408201527f3432302c353230204c3238302c343230204c3436302c343230205a0000000000606082015290565b6040519060a082019082821067ffffffffffffffff831117611ff3577f4d3530302c323430204c3536302c343230204c3732302c333830204c3630302c91604052606d83528201527f353030204c3732302c363230204c3536302c353830204c3530302c373630204c60408201527f3434302c353830204c3238302c363230204c3430302c353030204c3238302c3360608201527f3830204c3434302c343230205a00000000000000000000000000000000000000608082015290565b919091805115613fdf5780519260029160028501809511611d115760038095047f3fffffffffffffffffffffffffffffffffffffffffffffffffffffffffffffff81168103611d1157613f329060029694961b6139f7565b926020840192829183518401976020890192835194600085525b8a8110613f9257505050506003939495965052510680600114613f7f57600214613f74575090565b603d90600019015390565b50603d9081600019820153600119015390565b836004919b989b019a8b51600190603f9082828260121c16870101518453828282600c1c16870101518385015382828260061c168701015187850153168401015185820153019699613f4c565b509050604051613fee81613199565b600081529056fea26469706673582212200d1a7bd9231abca41ad594b76412577fd87c8de1c6989be7aeb1edd5b9a7812464736f6c63430008180033","opcodes":"PUSH1 0xA0 CALLVALUE PUSH3 0x489 JUMPI PUSH3 0x4530 DUP1 CODESIZE SUB SWAP1 PUSH1 0x1F NOT SWAP3 PUSH1 0x1F DUP5 DUP2 DUP6 ADD AND DUP3 ADD SWAP4 PUSH1 0x1 DUP1 PUSH1 0x40 SHL SUB SWAP4 DUP4 DUP7 LT DUP6 DUP8 GT OR PUSH3 0x473 JUMPI DUP2 PUSH1 0x80 SWAP3 DUP6 SWAP3 PUSH1 0x40 SWAP9 DUP10 MSTORE DUP4 CODECOPY DUP2 ADD SUB SLT PUSH3 0x489 JUMPI DUP2 MLOAD PUSH1 0x1 PUSH1 0x1 PUSH1 0x60 SHL SUB DUP2 AND DUP1 DUP3 SUB PUSH3 0x489 JUMPI PUSH1 0x20 DUP1 DUP6 ADD MLOAD SWAP4 PUSH1 0x60 DUP9 DUP8 ADD MLOAD SWAP7 ADD MLOAD SWAP7 PUSH1 0x1 DUP1 PUSH1 0xA0 SHL SUB SWAP10 DUP11 DUP10 AND DUP1 SWAP10 SUB PUSH3 0x489 JUMPI PUSH3 0x89 PUSH3 0x48E JUMP JUMPDEST SWAP3 DUP5 DUP5 MSTORE PUSH32 0x53746174696346727569742044656C6963696F75732028416E696D6174656429 DUP6 DUP6 ADD MSTORE PUSH3 0xBC PUSH3 0x48E JUMP JUMPDEST SWAP2 PUSH1 0x5 SWAP1 DUP2 DUP5 MSTORE PUSH5 0x8CA4AAA8B PUSH1 0xDB SHL DUP8 DUP6 ADD MSTORE DUP6 MLOAD DUP6 DUP2 GT PUSH3 0x473 JUMPI DUP1 PUSH1 0x0 SWAP8 PUSH3 0xEA DUP10 SLOAD PUSH3 0x4AE JUMP JUMPDEST DUP11 DUP8 DUP3 GT PUSH3 0x444 JUMPI JUMPDEST POP POP DUP10 SWAP1 DUP7 DUP4 GT PUSH1 0x1 EQ PUSH3 0x3E0 JUMPI DUP10 SWAP3 PUSH3 0x3D4 JUMPI JUMPDEST POP POP DUP2 PUSH1 0x1 SHL SWAP2 PUSH1 0x0 NOT SWAP1 PUSH1 0x3 SHL SHR NOT AND OR DUP7 SSTORE JUMPDEST DUP4 MLOAD SWAP1 DUP6 DUP3 GT PUSH3 0x3C0 JUMPI DUP2 SWAP1 PUSH1 0x1 SWAP6 PUSH3 0x13C DUP8 SLOAD PUSH3 0x4AE JUMP JUMPDEST DUP11 DUP8 DUP3 GT PUSH3 0x386 JUMPI JUMPDEST POP POP DUP10 SWAP2 DUP7 DUP5 GT PUSH1 0x1 EQ PUSH3 0x325 JUMPI POP DUP9 SWAP3 PUSH3 0x319 JUMPI JUMPDEST POP POP PUSH1 0x0 NOT PUSH1 0x3 DUP4 SWAP1 SHL SHR NOT AND SWAP1 DUP5 SHL OR DUP4 SSTORE JUMPDEST DUP11 ISZERO PUSH3 0x301 JUMPI DUP11 DUP1 SWAP13 SWAP14 PUSH1 0x8 SLOAD PUSH1 0x1 DUP1 PUSH1 0xA0 SHL SUB NOT SWAP14 DUP15 DUP3 AND OR PUSH1 0x8 SSTORE AND PUSH32 0x8BE0079C531659141344CD1FD0A4F28419497F9722A3DAAFE3B4186F6B6457E0 DUP8 DUP1 LOG3 DUP3 PUSH1 0x9 SSTORE PUSH3 0x1C6 PUSH1 0xD SLOAD PUSH3 0x4AE JUMP JUMPDEST DUP3 DUP2 GT PUSH3 0x2E1 JUMPI JUMPDEST POP PUSH32 0x5374617469634672756974000000000000000000000000000000000000000016 PUSH1 0xD SSTORE PUSH1 0xE SLOAD PUSH3 0x202 SWAP1 PUSH3 0x4AE JUMP JUMPDEST SWAP1 DUP3 DUP3 GT PUSH3 0x2BF JUMPI JUMPDEST POP POP POP PUSH1 0x12 PUSH9 0x44656C6963696F7573 PUSH1 0xB8 SHL ADD PUSH1 0xE SSTORE PUSH1 0xFF NOT PUSH1 0xF SLOAD AND OR PUSH1 0xF SSTORE PUSH2 0x2710 DUP1 DUP6 GT PUSH3 0x2A2 JUMPI POP DUP10 MLOAD SWAP2 DUP3 DUP12 ADD SWAP2 DUP3 GT DUP4 DUP4 LT OR PUSH3 0x28E JUMPI POP SWAP1 DUP8 SWAP5 SWAP4 SWAP3 SWAP2 DUP11 MSTORE DUP9 DUP2 MSTORE ADD MSTORE PUSH1 0xA0 SHL AND DUP5 OR PUSH1 0x6 SSTORE PUSH1 0x80 MSTORE PUSH1 0xB SSTORE PUSH1 0xC SLOAD AND OR PUSH1 0xC SSTORE MLOAD PUSH2 0x402B SWAP1 DUP2 PUSH3 0x505 DUP3 CODECOPY PUSH1 0x80 MLOAD DUP2 DUP2 DUP2 PUSH2 0x2DE ADD MSTORE PUSH2 0x22FF ADD MSTORE RETURN JUMPDEST PUSH4 0x4E487B71 PUSH1 0xE0 SHL DUP2 MSTORE PUSH1 0x41 PUSH1 0x4 MSTORE PUSH1 0x24 SWAP1 REVERT JUMPDEST DUP5 PUSH1 0x44 SWAP2 DUP13 MLOAD SWAP2 PUSH4 0x6F483D09 PUSH1 0xE0 SHL DUP4 MSTORE PUSH1 0x4 DUP4 ADD MSTORE PUSH1 0x24 DUP3 ADD MSTORE REVERT JUMPDEST PUSH3 0x2D8 SWAP3 PUSH1 0xE DUP8 MSTORE DUP8 DUP8 KECCAK256 SWAP3 ADD SWAP1 SHR DUP2 ADD SWAP1 PUSH3 0x4EB JUMP JUMPDEST CODESIZE DUP1 DUP1 PUSH3 0x20C JUMP JUMPDEST PUSH1 0xD DUP7 MSTORE DUP7 DUP7 KECCAK256 PUSH3 0x2FA SWAP2 DUP5 ADD DUP4 SHR DUP2 ADD SWAP1 PUSH3 0x4EB JUMP JUMPDEST CODESIZE PUSH3 0x1CF JUMP JUMPDEST DUP12 MLOAD PUSH4 0x1E4FBDF7 PUSH1 0xE0 SHL DUP2 MSTORE PUSH1 0x4 DUP2 ADD DUP7 SWAP1 MSTORE PUSH1 0x24 SWAP1 REVERT JUMPDEST ADD MLOAD SWAP1 POP CODESIZE DUP1 PUSH3 0x15E JUMP JUMPDEST DUP8 DUP11 MSTORE DUP11 DUP11 KECCAK256 DUP9 SWAP6 SWAP1 SWAP4 SWAP3 SWAP2 AND DUP11 JUMPDEST DUP13 DUP3 DUP3 LT PUSH3 0x36F JUMPI POP POP DUP5 GT PUSH3 0x355 JUMPI JUMPDEST POP POP POP DUP2 SHL ADD DUP4 SSTORE PUSH3 0x172 JUMP JUMPDEST ADD MLOAD PUSH1 0x0 NOT PUSH1 0xF8 DUP5 PUSH1 0x3 SHL AND SHR NOT AND SWAP1 SSTORE CODESIZE DUP1 DUP1 PUSH3 0x347 JUMP JUMPDEST DUP4 DUP6 ADD MLOAD DUP7 SSTORE DUP11 SWAP8 SWAP1 SWAP6 ADD SWAP5 SWAP4 DUP5 ADD SWAP4 ADD PUSH3 0x334 JUMP JUMPDEST PUSH3 0x3AE SWAP2 DUP10 DUP13 MSTORE DUP9 DUP3 DUP14 KECCAK256 SWAP2 DUP2 DUP9 ADD DUP11 SHR DUP4 ADD SWAP4 DUP9 LT PUSH3 0x3B6 JUMPI JUMPDEST ADD DUP9 SHR ADD SWAP1 PUSH3 0x4EB JUMP JUMPDEST CODESIZE DUP11 PUSH3 0x146 JUMP JUMPDEST SWAP3 POP DUP2 SWAP3 PUSH3 0x3A3 JUMP JUMPDEST PUSH4 0x4E487B71 PUSH1 0xE0 SHL DUP8 MSTORE PUSH1 0x41 PUSH1 0x4 MSTORE PUSH1 0x24 DUP8 REVERT JUMPDEST ADD MLOAD SWAP1 POP CODESIZE DUP1 PUSH3 0x10B JUMP JUMPDEST DUP10 DUP1 MSTORE DUP11 DUP11 KECCAK256 SWAP3 DUP6 AND DUP11 JUMPDEST DUP13 DUP3 DUP3 LT PUSH3 0x42D JUMPI POP POP SWAP1 DUP5 PUSH1 0x1 SWAP6 SWAP5 SWAP4 SWAP3 LT PUSH3 0x413 JUMPI JUMPDEST POP POP POP DUP2 SHL ADD DUP7 SSTORE PUSH3 0x120 JUMP JUMPDEST ADD MLOAD PUSH1 0x0 NOT PUSH1 0xF8 DUP5 PUSH1 0x3 SHL AND SHR NOT AND SWAP1 SSTORE CODESIZE DUP1 DUP1 PUSH3 0x405 JUMP JUMPDEST PUSH1 0x1 DUP6 SWAP7 DUP3 SWAP4 SWAP7 DUP7 ADD MLOAD DUP2 SSTORE ADD SWAP6 ADD SWAP4 ADD PUSH3 0x3EB JUMP JUMPDEST PUSH3 0x46B SWAP2 DUP12 DUP1 MSTORE DUP9 DUP3 DUP14 KECCAK256 SWAP2 DUP2 DUP8 ADD DUP11 SHR DUP4 ADD SWAP4 DUP8 LT PUSH3 0x3B6 JUMPI ADD DUP9 SHR ADD SWAP1 PUSH3 0x4EB JUMP JUMPDEST CODESIZE DUP11 PUSH3 0xF4 JUMP JUMPDEST PUSH4 0x4E487B71 PUSH1 0xE0 SHL PUSH1 0x0 MSTORE PUSH1 0x41 PUSH1 0x4 MSTORE PUSH1 0x24 PUSH1 0x0 REVERT JUMPDEST PUSH1 0x0 DUP1 REVERT JUMPDEST PUSH1 0x40 DUP1 MLOAD SWAP2 SWAP1 DUP3 ADD PUSH1 0x1 PUSH1 0x1 PUSH1 0x40 SHL SUB DUP2 GT DUP4 DUP3 LT OR PUSH3 0x473 JUMPI PUSH1 0x40 MSTORE JUMP JUMPDEST SWAP1 PUSH1 0x1 DUP3 DUP2 SHR SWAP3 AND DUP1 ISZERO PUSH3 0x4E0 JUMPI JUMPDEST PUSH1 0x20 DUP4 LT EQ PUSH3 0x4CA JUMPI JUMP JUMPDEST PUSH4 0x4E487B71 PUSH1 0xE0 SHL PUSH1 0x0 MSTORE PUSH1 0x22 PUSH1 0x4 MSTORE PUSH1 0x24 PUSH1 0x0 REVERT JUMPDEST SWAP2 PUSH1 0x7F AND SWAP2 PUSH3 0x4BE JUMP JUMPDEST DUP2 DUP2 LT PUSH3 0x4F7 JUMPI POP POP JUMP JUMPDEST PUSH1 0x0 DUP2 SSTORE PUSH1 0x1 ADD PUSH3 0x4EB JUMP INVALID PUSH1 0x80 DUP1 PUSH1 0x40 MSTORE PUSH1 0x4 CALLDATASIZE LT ISZERO PUSH2 0x13 JUMPI PUSH1 0x0 DUP1 REVERT JUMPDEST PUSH1 0x0 CALLDATALOAD PUSH1 0xE0 SHR SWAP1 DUP2 PUSH4 0x1FFC9A7 EQ PUSH2 0x2FAF JUMPI POP DUP1 PUSH4 0x6FDDE03 EQ PUSH2 0x2F04 JUMPI DUP1 PUSH4 0x81812FC EQ PUSH2 0x2EC5 JUMPI DUP1 PUSH4 0x95EA7B3 EQ PUSH2 0x2DC4 JUMPI DUP1 PUSH4 0x23B872DD EQ PUSH2 0x2DAD JUMPI DUP1 PUSH4 0x24BBD049 EQ PUSH2 0x2D8A JUMPI DUP1 PUSH4 0x2A55205A EQ PUSH2 0x2D01 JUMPI DUP1 PUSH4 0x2D9FFF01 EQ PUSH2 0x2C53 JUMPI DUP1 PUSH4 0x3CCFD60B EQ PUSH2 0x2BFA JUMPI DUP1 PUSH4 0x42842E0E EQ PUSH2 0x2BCC JUMPI DUP1 PUSH4 0x42966C68 EQ PUSH2 0x2A68 JUMPI DUP1 PUSH4 0x61B8CE8C EQ PUSH2 0x2A4A JUMPI DUP1 PUSH4 0x6352211E EQ PUSH2 0x2A1B JUMPI DUP1 PUSH4 0x63BD1D4A EQ PUSH2 0x29F4 JUMPI DUP1 PUSH4 0x6817C76C EQ PUSH2 0x29D6 JUMPI DUP1 PUSH4 0x70A08231 EQ PUSH2 0x2965 JUMPI DUP1 PUSH4 0x715018A6 EQ PUSH2 0x290A JUMPI DUP1 PUSH4 0x7DE1E536 EQ PUSH2 0x285C JUMPI DUP1 PUSH4 0x8A4DCD85 EQ PUSH2 0x27FA JUMPI DUP1 PUSH4 0x8DA5CB5B EQ PUSH2 0x27D3 JUMPI DUP1 PUSH4 0x95D89B41 EQ PUSH2 0x26F0 JUMPI DUP1 PUSH4 0xA0712D68 EQ PUSH2 0x22B8 JUMPI DUP1 PUSH4 0xA22CB465 EQ PUSH2 0x21FB JUMPI DUP1 PUSH4 0xA3FF39B2 EQ PUSH2 0x2193 JUMPI DUP1 PUSH4 0xB88D4FDE EQ PUSH2 0x20FC JUMPI DUP1 PUSH4 0xC1D2B11D EQ PUSH2 0x1DAC JUMPI DUP1 PUSH4 0xC60D7E46 EQ PUSH2 0x1D83 JUMPI DUP1 PUSH4 0xC87B56DD EQ PUSH2 0x301 JUMPI DUP1 PUSH4 0xD5ABEB01 EQ PUSH2 0x2C6 JUMPI DUP1 PUSH4 0xE985E9C5 EQ PUSH2 0x26F JUMPI DUP1 PUSH4 0xF2FDE38B EQ PUSH2 0x1D0 JUMPI PUSH4 0xF4A0A528 EQ PUSH2 0x17F JUMPI PUSH1 0x0 DUP1 REVERT JUMPDEST CALLVALUE PUSH2 0x1CB JUMPI PUSH1 0x20 CALLDATASIZE PUSH1 0x3 NOT ADD SLT PUSH2 0x1CB JUMPI PUSH32 0x525B762709CC2A983AEC5CCDFD807A061F993C91090B5BCD7DA92CA254976AAA PUSH1 0x20 PUSH1 0x4 CALLDATALOAD PUSH2 0x1BE PUSH2 0x362B JUMP JUMPDEST DUP1 PUSH1 0xB SSTORE PUSH1 0x40 MLOAD SWAP1 DUP2 MSTORE LOG1 STOP JUMPDEST PUSH1 0x0 DUP1 REVERT JUMPDEST CALLVALUE PUSH2 0x1CB JUMPI PUSH1 0x20 CALLDATASIZE PUSH1 0x3 NOT ADD SLT PUSH2 0x1CB JUMPI PUSH2 0x1E9 PUSH2 0x30E1 JUMP JUMPDEST PUSH2 0x1F1 PUSH2 0x362B JUMP JUMPDEST PUSH1 0x1 PUSH1 0x1 PUSH1 0xA0 SHL SUB DUP1 SWAP2 AND SWAP1 DUP2 ISZERO PUSH2 0x23E JUMPI PUSH1 0x8 SLOAD DUP3 PUSH1 0x1 PUSH1 0x1 PUSH1 0xA0 SHL SUB NOT DUP3 AND OR PUSH1 0x8 SSTORE AND PUSH32 0x8BE0079C531659141344CD1FD0A4F28419497F9722A3DAAFE3B4186F6B6457E0 PUSH1 0x0 DUP1 LOG3 STOP JUMPDEST PUSH1 0x24 PUSH1 0x40 MLOAD PUSH32 0x1E4FBDF700000000000000000000000000000000000000000000000000000000 DUP2 MSTORE PUSH1 0x0 PUSH1 0x4 DUP3 ADD MSTORE REVERT JUMPDEST CALLVALUE PUSH2 0x1CB JUMPI PUSH1 0x40 CALLDATASIZE PUSH1 0x3 NOT ADD SLT PUSH2 0x1CB JUMPI PUSH2 0x288 PUSH2 0x30E1 JUMP JUMPDEST PUSH2 0x290 PUSH2 0x30F7 JUMP JUMPDEST SWAP1 PUSH1 0x1 PUSH1 0x1 PUSH1 0xA0 SHL SUB DUP1 SWAP2 AND PUSH1 0x0 MSTORE PUSH1 0x5 PUSH1 0x20 MSTORE PUSH1 0x40 PUSH1 0x0 KECCAK256 SWAP2 AND PUSH1 0x0 MSTORE PUSH1 0x20 MSTORE PUSH1 0x20 PUSH1 0xFF PUSH1 0x40 PUSH1 0x0 KECCAK256 SLOAD AND PUSH1 0x40 MLOAD SWAP1 ISZERO ISZERO DUP2 MSTORE RETURN JUMPDEST CALLVALUE PUSH2 0x1CB JUMPI PUSH1 0x0 CALLDATASIZE PUSH1 0x3 NOT ADD SLT PUSH2 0x1CB JUMPI PUSH1 0x20 PUSH1 0x40 MLOAD PUSH32 0x0 DUP2 MSTORE RETURN JUMPDEST CALLVALUE PUSH2 0x1CB JUMPI PUSH1 0x20 CALLDATASIZE PUSH1 0x3 NOT ADD SLT PUSH2 0x1CB JUMPI PUSH1 0x4 CALLDATALOAD PUSH1 0x0 MSTORE PUSH1 0x2 PUSH1 0x20 MSTORE PUSH2 0x336 PUSH1 0x1 PUSH1 0x1 PUSH1 0xA0 SHL SUB PUSH1 0x40 PUSH1 0x0 KECCAK256 SLOAD AND ISZERO ISZERO PUSH2 0x3450 JUMP JUMPDEST PUSH1 0x40 MLOAD PUSH2 0x342 DUP2 PUSH2 0x317C JUMP JUMPDEST PUSH1 0x40 MLOAD PUSH2 0x34E DUP2 PUSH2 0x31B5 JUMP JUMPDEST PUSH1 0x5 DUP2 MSTORE PUSH32 0x4D616E676F000000000000000000000000000000000000000000000000000000 PUSH1 0x20 DUP3 ADD MSTORE DUP2 MSTORE PUSH1 0x40 MLOAD PUSH2 0x386 DUP2 PUSH2 0x31B5 JUMP JUMPDEST PUSH1 0x5 DUP2 MSTORE PUSH32 0x4265727279000000000000000000000000000000000000000000000000000000 PUSH1 0x20 DUP3 ADD MSTORE PUSH1 0x20 DUP3 ADD MSTORE PUSH1 0x40 MLOAD PUSH2 0x3C1 DUP2 PUSH2 0x31B5 JUMP JUMPDEST PUSH1 0xB DUP2 MSTORE PUSH32 0x447261676F6E6672756974000000000000000000000000000000000000000000 PUSH1 0x20 DUP3 ADD MSTORE PUSH1 0x40 DUP3 ADD MSTORE PUSH1 0x40 MLOAD PUSH2 0x3FC DUP2 PUSH2 0x31B5 JUMP JUMPDEST PUSH1 0x5 DUP2 MSTORE PUSH32 0x4772617065000000000000000000000000000000000000000000000000000000 PUSH1 0x20 DUP3 ADD MSTORE PUSH1 0x60 DUP3 ADD MSTORE PUSH1 0x40 MLOAD PUSH2 0x437 DUP2 PUSH2 0x31B5 JUMP JUMPDEST PUSH1 0x5 DUP2 MSTORE PUSH32 0x5065616368000000000000000000000000000000000000000000000000000000 PUSH1 0x20 DUP3 ADD MSTORE PUSH1 0x80 DUP3 ADD MSTORE PUSH1 0x40 MLOAD PUSH2 0x472 DUP2 PUSH2 0x31B5 JUMP JUMPDEST PUSH1 0x4 DUP2 MSTORE PUSH32 0x4C696D6500000000000000000000000000000000000000000000000000000000 PUSH1 0x20 DUP3 ADD MSTORE PUSH1 0xA0 DUP3 ADD MSTORE PUSH1 0x40 MLOAD PUSH2 0x4AD DUP2 PUSH2 0x31B5 JUMP JUMPDEST PUSH1 0x4 DUP2 MSTORE PUSH32 0x506C756D00000000000000000000000000000000000000000000000000000000 PUSH1 0x20 DUP3 ADD MSTORE PUSH1 0xC0 DUP3 ADD MSTORE PUSH1 0x40 MLOAD PUSH2 0x4E8 DUP2 PUSH2 0x31B5 JUMP JUMPDEST PUSH1 0x5 DUP2 MSTORE PUSH32 0x4775617661000000000000000000000000000000000000000000000000000000 PUSH1 0x20 DUP3 ADD MSTORE PUSH1 0xE0 DUP3 ADD MSTORE PUSH1 0x7 SWAP1 PUSH2 0x534 DUP3 PUSH2 0x529 PUSH1 0x4 CALLDATALOAD PUSH2 0x385E JUMP JUMPDEST PUSH1 0x20 SHR AND DUP1 SWAP3 PUSH2 0x388A JUMP JUMPDEST MLOAD PUSH2 0x540 PUSH1 0x4 CALLDATALOAD PUSH2 0x349B JUMP JUMPDEST SWAP1 PUSH1 0x40 MLOAD SWAP4 PUSH2 0x54E DUP6 PUSH2 0x317C JUMP JUMPDEST PUSH1 0x40 MLOAD PUSH2 0x55A DUP2 PUSH2 0x31B5 JUMP JUMPDEST DUP2 DUP2 MSTORE PUSH32 0x2330643131313700000000000000000000000000000000000000000000000000 PUSH1 0x20 DUP3 ADD MSTORE DUP6 MSTORE PUSH1 0x40 MLOAD PUSH2 0x591 DUP2 PUSH2 0x31B5 JUMP JUMPDEST DUP2 DUP2 MSTORE PUSH32 0x2331323132313200000000000000000000000000000000000000000000000000 PUSH1 0x20 DUP3 ADD MSTORE PUSH1 0x20 DUP7 ADD MSTORE PUSH1 0x40 MLOAD PUSH2 0x5CB DUP2 PUSH2 0x31B5 JUMP JUMPDEST DUP2 DUP2 MSTORE PUSH32 0x2330623066313400000000000000000000000000000000000000000000000000 PUSH1 0x20 DUP3 ADD MSTORE PUSH1 0x40 DUP7 ADD MSTORE PUSH1 0x40 MLOAD PUSH2 0x605 DUP2 PUSH2 0x31B5 JUMP JUMPDEST DUP2 DUP2 MSTORE PUSH32 0x2331613130323000000000000000000000000000000000000000000000000000 PUSH1 0x20 DUP3 ADD MSTORE PUSH1 0x60 DUP7 ADD MSTORE PUSH1 0x40 MLOAD PUSH2 0x63F DUP2 PUSH2 0x31B5 JUMP JUMPDEST DUP2 DUP2 MSTORE PUSH32 0x2330663133323000000000000000000000000000000000000000000000000000 PUSH1 0x20 DUP3 ADD MSTORE PUSH1 0x80 DUP7 ADD MSTORE PUSH1 0x40 MLOAD PUSH2 0x679 DUP2 PUSH2 0x31B5 JUMP JUMPDEST DUP2 DUP2 MSTORE PUSH32 0x2331303133313400000000000000000000000000000000000000000000000000 PUSH1 0x20 DUP3 ADD MSTORE PUSH1 0xA0 DUP7 ADD MSTORE PUSH1 0x40 MLOAD PUSH2 0x6B3 DUP2 PUSH2 0x31B5 JUMP JUMPDEST DUP2 DUP2 MSTORE PUSH32 0x2330653131313700000000000000000000000000000000000000000000000000 PUSH1 0x20 DUP3 ADD MSTORE PUSH1 0xC0 DUP7 ADD MSTORE PUSH1 0x40 MLOAD PUSH2 0x6ED DUP2 PUSH2 0x31B5 JUMP JUMPDEST DUP2 DUP2 MSTORE PUSH32 0x2331343130313600000000000000000000000000000000000000000000000000 PUSH1 0x20 DUP3 ADD MSTORE PUSH1 0xE0 DUP7 ADD MSTORE PUSH2 0x8FE DUP5 PUSH1 0x40 MLOAD SWAP7 PUSH2 0x72C DUP9 PUSH2 0x317C JUMP JUMPDEST PUSH1 0x40 MLOAD PUSH2 0x738 DUP2 PUSH2 0x31B5 JUMP JUMPDEST DUP5 DUP2 MSTORE PUSH32 0x2346463745344200000000000000000000000000000000000000000000000000 PUSH1 0x20 DUP3 ADD MSTORE DUP9 MSTORE PUSH1 0x40 MLOAD PUSH2 0x76F DUP2 PUSH2 0x31B5 JUMP JUMPDEST DUP5 DUP2 MSTORE PUSH32 0x2341313642464600000000000000000000000000000000000000000000000000 PUSH1 0x20 DUP3 ADD MSTORE PUSH1 0x20 DUP10 ADD MSTORE PUSH1 0x40 MLOAD PUSH2 0x7A9 DUP2 PUSH2 0x31B5 JUMP JUMPDEST DUP5 DUP2 MSTORE PUSH32 0x2346463346413400000000000000000000000000000000000000000000000000 PUSH1 0x20 DUP3 ADD MSTORE PUSH1 0x40 DUP10 ADD MSTORE PUSH1 0x40 MLOAD PUSH2 0x7E3 DUP2 PUSH2 0x31B5 JUMP JUMPDEST DUP5 DUP2 MSTORE PUSH32 0x2338423543463600000000000000000000000000000000000000000000000000 PUSH1 0x20 DUP3 ADD MSTORE PUSH1 0x60 DUP10 ADD MSTORE PUSH1 0x40 MLOAD PUSH2 0x81D DUP2 PUSH2 0x31B5 JUMP JUMPDEST DUP5 DUP2 MSTORE PUSH32 0x2346464238364200000000000000000000000000000000000000000000000000 PUSH1 0x20 DUP3 ADD MSTORE PUSH1 0x80 DUP10 ADD MSTORE PUSH1 0x40 MLOAD PUSH2 0x857 DUP2 PUSH2 0x31B5 JUMP JUMPDEST DUP5 DUP2 MSTORE PUSH32 0x2337434635433900000000000000000000000000000000000000000000000000 PUSH1 0x20 DUP3 ADD MSTORE PUSH1 0xA0 DUP10 ADD MSTORE PUSH1 0x40 MLOAD PUSH2 0x891 DUP2 PUSH2 0x31B5 JUMP JUMPDEST DUP5 DUP2 MSTORE PUSH32 0x2339423539423600000000000000000000000000000000000000000000000000 PUSH1 0x20 DUP3 ADD MSTORE PUSH1 0xC0 DUP10 ADD MSTORE PUSH1 0x40 MLOAD PUSH2 0x8CB DUP2 PUSH2 0x31B5 JUMP JUMPDEST DUP5 DUP2 MSTORE PUSH32 0x2337464442464600000000000000000000000000000000000000000000000000 PUSH1 0x20 DUP3 ADD MSTORE PUSH1 0xE0 DUP10 ADD MSTORE PUSH2 0x388A JUMP JUMPDEST MLOAD SWAP4 PUSH1 0x42 PUSH1 0xFF DUP6 AND GT ISZERO PUSH2 0x1D41 JUMPI PUSH1 0x1 ADD SWAP5 PUSH1 0xFF DUP7 GT PUSH2 0x1D11 JUMPI PUSH1 0xFF PUSH2 0x92A SWAP3 PUSH1 0x1 SWAP8 AND JUMPDEST AND SWAP1 PUSH2 0x388A JUMP JUMPDEST MLOAD SWAP1 PUSH2 0x935 DUP4 PUSH2 0x38B1 JUMP JUMPDEST SWAP2 PUSH2 0x941 PUSH1 0x4 CALLDATALOAD PUSH2 0x3A29 JUMP JUMPDEST SWAP5 PUSH2 0xB09 PUSH1 0x45 PUSH1 0x40 MLOAD SWAP8 PUSH2 0x9D3 PUSH1 0x2 DUP11 PUSH2 0x95D PUSH1 0x20 DUP3 ADD PUSH2 0x34E5 JUMP JUMPDEST SWAP4 PUSH2 0x98D DUP15 PUSH32 0x2000000000000000000000000000000000000000000000000000000000000000 SWAP7 DUP8 DUP2 MSTORE ADD PUSH2 0x3574 JUMP JUMPDEST PUSH32 0x2023000000000000000000000000000000000000000000000000000000000000 DUP2 MSTORE PUSH2 0x9C3 DUP3 MLOAD DUP1 SWAP4 PUSH1 0x20 DUP8 DUP6 ADD SWAP2 ADD PUSH2 0x3099 JUMP JUMPDEST ADD SUB PUSH1 0x1D NOT DUP2 ADD DUP13 MSTORE ADD DUP11 PUSH2 0x3209 JUMP JUMPDEST PUSH2 0x9DF PUSH1 0xFF DUP10 AND PUSH2 0x3A29 JUMP JUMPDEST PUSH2 0xA23 PUSH1 0x40 MLOAD SWAP12 DUP13 SWAP4 PUSH32 0x4120000000000000000000000000000000000000000000000000000000000000 PUSH1 0x20 DUP7 ADD MSTORE PUSH2 0xA1A PUSH1 0x22 DUP7 ADD PUSH2 0x34E5 JUMP JUMPDEST SWAP1 DUP2 MSTORE ADD PUSH2 0x3574 JUMP JUMPDEST PUSH32 0x2070696563652E20466C61766F723A2000000000000000000000000000000000 DUP2 MSTORE DUP8 MLOAD PUSH2 0xA59 DUP2 PUSH1 0x10 DUP5 ADD PUSH1 0x20 DUP13 ADD PUSH2 0x3099 JUMP JUMPDEST PUSH32 0x2E20546965723A20000000000000000000000000000000000000000000000000 PUSH1 0x10 DUP3 DUP5 ADD ADD MSTORE DUP10 MLOAD SWAP2 PUSH2 0xA98 DUP4 DUP13 PUSH1 0x20 PUSH1 0x18 DUP7 DUP7 ADD ADD SWAP2 ADD PUSH2 0x3099 JUMP JUMPDEST ADD ADD PUSH32 0x2E2044656C6963696F75736E6573733A20000000000000000000000000000000 PUSH1 0x18 DUP3 ADD MSTORE PUSH2 0xAD4 DUP3 MLOAD DUP1 SWAP4 PUSH1 0x20 PUSH1 0x29 DUP6 ADD SWAP2 ADD PUSH2 0x3099 JUMP JUMPDEST ADD PUSH32 0x2F3130302E20416E696D61746564206F6E2D636861696E205356472E00000000 PUSH1 0x29 DUP3 ADD MSTORE SUB PUSH1 0x25 DUP2 ADD DUP11 MSTORE ADD DUP9 PUSH2 0x3209 JUMP JUMPDEST PUSH1 0x14 PUSH1 0xFF DUP7 AND DIV PUSH1 0x8 SUB PUSH1 0x8 DUP2 GT PUSH2 0x1D11 JUMPI PUSH1 0x3 DUP2 LT PUSH2 0x1D39 JUMPI JUMPDEST PUSH1 0xC PUSH1 0xFF DUP8 AND DIV PUSH1 0xE SUB SWAP3 PUSH1 0xE DUP5 GT PUSH2 0x1D11 JUMPI PUSH1 0x6 DUP5 LT PUSH2 0x1D30 JUMPI JUMPDEST PUSH1 0xF PUSH1 0xFF DUP9 AND DIV PUSH1 0xC SUB SWAP2 PUSH1 0xC DUP4 GT PUSH2 0x1D11 JUMPI PUSH1 0x5 DUP4 LT PUSH2 0x1D27 JUMPI JUMPDEST PUSH2 0x348 PUSH1 0xFF DUP10 AND DUP1 DUP3 MUL DUP2 SWAP1 DIV DUP3 EQ SWAP1 ISZERO OR ISZERO PUSH2 0x1D11 JUMPI PUSH1 0x64 PUSH2 0xB84 SWAP2 PUSH1 0xFF DUP12 AND MUL DIV PUSH2 0x3A29 JUMP JUMPDEST PUSH2 0xB8D DUP9 PUSH2 0x3BD9 JUMP JUMPDEST DUP9 MLOAD PUSH1 0x20 DUP11 ADD KECCAK256 SWAP7 PUSH32 0xFFC66C8548BC388F0156D76251A192B57D2601764D8478982E579B825596B8BC DUP9 EQ SWAP8 DUP9 ISZERO PUSH2 0x1CE7 JUMPI JUMPDEST POP PUSH2 0xBDC PUSH2 0xBD6 PUSH2 0xBD0 DUP7 PUSH2 0x3A29 JUMP JUMPDEST SWAP8 PUSH2 0x3A29 JUMP JUMPDEST SWAP5 PUSH2 0x3A29 JUMP JUMPDEST SWAP8 ISZERO PUSH2 0x1CD1 JUMPI PUSH2 0xDDA PUSH1 0xDE PUSH2 0xCC4 SWAP3 PUSH1 0x40 MLOAD SWAP1 PUSH2 0xBF8 DUP3 PUSH2 0x31D1 JUMP JUMPDEST PUSH1 0x33 DUP3 MSTORE PUSH2 0xC52 PUSH1 0x20 DUP4 ADD SWAP2 PUSH32 0x4D302C2D3230204C362C2D36204C32302C30204C362C36204C302C3230204C2D DUP4 MSTORE PUSH32 0x362C36204C2D32302C30204C2D362C2D36205A00000000000000000000000000 PUSH1 0x40 DUP6 ADD MSTORE PUSH2 0x3A29 JUMP JUMPDEST SWAP1 PUSH1 0x40 MLOAD SWAP6 DUP7 SWAP4 PUSH32 0x3C67207472616E73666F726D3D227472616E736C61746528302C2D3230302922 PUSH1 0x20 DUP7 ADD MSTORE PUSH32 0x3E00000000000000000000000000000000000000000000000000000000000000 PUSH1 0x40 DUP7 ADD MSTORE PUSH9 0x1E3830BA3410321E91 PUSH1 0xB9 SHL PUSH1 0x41 DUP7 ADD MSTORE MLOAD DUP1 SWAP3 PUSH1 0x4A DUP7 ADD SWAP1 PUSH2 0x3099 JUMP JUMPDEST DUP3 ADD PUSH32 0x222066696C6C3D22236666666666666430223E00000000000000000000000000 PUSH1 0x4A DUP3 ADD MSTORE PUSH32 0x3C616E696D6174655472616E73666F726D206174747269627574654E616D653D PUSH1 0x5D DUP3 ADD MSTORE PUSH32 0x227472616E73666F726D2220747970653D22726F74617465222066726F6D3D22 PUSH1 0x7D DUP3 ADD MSTORE PUSH32 0x30203020302220746F3D223336302030203022206475723D2200000000000000 PUSH1 0x9D DUP3 ADD MSTORE PUSH2 0xD72 DUP3 MLOAD DUP1 SWAP4 PUSH1 0x20 PUSH1 0xB6 DUP6 ADD SWAP2 ADD PUSH2 0x3099 JUMP JUMPDEST ADD PUSH32 0x732220726570656174436F756E743D22696E646566696E697465222F3E000000 PUSH1 0xB6 DUP3 ADD MSTORE PUSH32 0x3C2F706174683E00000000000000000000000000000000000000000000000000 PUSH1 0xD3 DUP3 ADD MSTORE PUSH4 0x1E17B39F PUSH1 0xE1 SHL PUSH1 0xDA DUP3 ADD MSTORE SUB PUSH1 0xBE DUP2 ADD DUP5 MSTORE ADD DUP3 PUSH2 0x3209 JUMP JUMPDEST PUSH2 0xDE5 PUSH1 0x4 CALLDATALOAD PUSH2 0x3A29 JUMP JUMPDEST SWAP6 DUP6 PUSH2 0xDF3 PUSH1 0xFF DUP15 AND PUSH2 0x3A29 JUMP JUMPDEST SWAP6 PUSH1 0x40 MLOAD SWAP11 DUP12 SWAP11 DUP12 SWAP5 PUSH1 0x20 DUP7 ADD PUSH32 0x3C73766720786D6C6E733D22687474703A2F2F7777772E77332E6F72672F3230 SWAP1 MSTORE PUSH1 0x40 DUP7 ADD PUSH32 0x30302F737667222077696474683D223130303022206865696768743D22313030 SWAP1 MSTORE PUSH1 0x60 DUP7 ADD PUSH32 0x30223E0000000000000000000000000000000000000000000000000000000000 SWAP1 MSTORE PUSH1 0x63 DUP7 ADD PUSH32 0x3C646566733E0000000000000000000000000000000000000000000000000000 SWAP1 MSTORE PUSH1 0x69 DUP7 ADD PUSH32 0x3C7374796C653E40666F6E742D666163657B666F6E742D66616D696C793A496E SWAP1 MSTORE PUSH1 0x89 DUP7 ADD PUSH32 0x7465723B7372633A6C6F63616C28496E746572293B7D202E747B666F6E742D66 SWAP1 MSTORE PUSH1 0xA9 DUP7 ADD PUSH32 0x616D696C793A496E7465722C73797374656D2D75692C73616E732D7365726966 SWAP1 MSTORE PUSH1 0xC9 DUP7 ADD PUSH32 0x3B66696C6C3A236666667D3C2F7374796C653E00000000000000000000000000 SWAP1 MSTORE PUSH1 0xDC DUP7 ADD PUSH32 0x3C72616469616C4772616469656E742069643D2267223E000000000000000000 SWAP1 MSTORE PUSH1 0xF3 DUP7 ADD PUSH32 0x3C73746F70206F66667365743D223025222073746F702D636F6C6F723D220000 SWAP1 MSTORE PUSH2 0x111 SWAP1 DUP6 MLOAD PUSH1 0x20 DUP8 ADD SWAP8 DUP2 DUP5 DUP3 ADD SWAP1 PUSH2 0xF9C SWAP2 DUP12 PUSH2 0x3099 JUMP JUMPDEST ADD SWAP2 DUP3 ADD PUSH32 0x222073746F702D6F7061636974793D22302E3935223E00000000000000000000 SWAP1 MSTORE PUSH32 0x3C616E696D617465206174747269627574654E616D653D226F66667365742220 SWAP1 DUP2 PUSH2 0x127 DUP5 ADD MSTORE PUSH2 0x147 DUP4 ADD PUSH32 0x76616C7565733D2230253B3230253B302522206475723D220000000000000000 SWAP1 MSTORE PUSH2 0x15F SWAP3 DUP2 MLOAD SWAP2 DUP3 DUP6 DUP4 ADD SWAP2 PUSH1 0x20 ADD SWAP2 PUSH2 0x102D SWAP3 PUSH2 0x3099 JUMP JUMPDEST ADD SWAP2 PUSH32 0x732220726570656174436F756E743D22696E646566696E697465222F3E000000 SWAP6 DUP7 DUP1 SWAP3 DUP6 ADD MSTORE PUSH32 0x3C2F73746F703E00000000000000000000000000000000000000000000000000 SWAP3 DUP4 PUSH2 0x17C DUP7 ADD MSTORE PUSH32 0x3C73746F70206F66667365743D2231303025222073746F702D636F6C6F723D22 SWAP5 DUP6 PUSH2 0x183 DUP3 ADD MSTORE PUSH2 0x1A3 SWAP10 MLOAD SWAP1 DUP12 DUP3 DUP13 DUP4 ADD PUSH2 0x10BD SWAP3 PUSH2 0x3099 JUMP JUMPDEST PUSH32 0x222073746F702D6F7061636974793D22302E3132222F3E000000000000000000 SWAP2 ADD SWAP10 DUP11 ADD MSTORE PUSH32 0x3C2F72616469616C4772616469656E743E000000000000000000000000000000 PUSH2 0x1BA DUP11 ADD MSTORE PUSH32 0x3C6C696E6561724772616469656E742069643D227368696D6D6572222078313D PUSH2 0x1CB DUP11 ADD MSTORE PUSH32 0x223025222079313D223025222078323D2231303025222079323D223025223E00 PUSH2 0x1EB DUP11 ADD MSTORE PUSH32 0x3C73746F70206F66667365743D223025222073746F702D636F6C6F723D222366 PUSH2 0x20A DUP11 ADD MSTORE PUSH32 0x66666666663230222F3E00000000000000000000000000000000000000000000 PUSH2 0x22A DUP11 ADD MSTORE PUSH32 0x3C73746F70206F66667365743D22353025222073746F702D636F6C6F723D2223 PUSH2 0x234 DUP11 ADD MSTORE PUSH32 0x6666666666663630223E00000000000000000000000000000000000000000000 PUSH2 0x254 DUP11 ADD MSTORE PUSH2 0x25E DUP10 ADD MSTORE PUSH32 0x76616C7565733D2230253B3130302522206475723D2200000000000000000000 PUSH2 0x27E DUP10 ADD MSTORE DUP1 MLOAD PUSH2 0x294 SWAP9 SWAP1 SWAP2 PUSH2 0x123C SWAP1 DUP4 SWAP1 DUP12 DUP5 ADD SWAP1 PUSH1 0x20 ADD PUSH2 0x3099 JUMP JUMPDEST ADD SWAP7 DUP8 ADD MSTORE PUSH2 0x2B1 DUP7 ADD MSTORE PUSH2 0x2B8 DUP6 ADD MSTORE PUSH32 0x236666666666663230222F3E0000000000000000000000000000000000000000 PUSH2 0x2D8 DUP6 ADD MSTORE PUSH32 0x3C2F6C696E6561724772616469656E743E000000000000000000000000000000 PUSH2 0x2E4 DUP6 ADD MSTORE PUSH32 0x3C2F646566733E00000000000000000000000000000000000000000000000000 PUSH2 0x2F5 DUP6 ADD MSTORE PUSH32 0x3C726563742077696474683D223130302522206865696768743D223130302522 PUSH2 0x2FC DUP6 ADD MSTORE PUSH32 0x2072783D223438222066696C6C3D220000000000000000000000000000000000 PUSH2 0x31C DUP6 ADD MSTORE DUP1 MLOAD PUSH2 0x32B SWAP5 SWAP1 SWAP2 PUSH2 0x132A SWAP1 DUP4 SWAP1 DUP8 DUP5 ADD SWAP1 PUSH1 0x20 ADD PUSH2 0x3099 JUMP JUMPDEST PUSH32 0x222F3E0000000000000000000000000000000000000000000000000000000000 SWAP2 ADD SWAP4 DUP5 ADD MSTORE PUSH32 0x3C67207472616E73666F726D3D227472616E736C617465283530302C35323029 PUSH2 0x32E DUP5 ADD MSTORE PUSH32 0x223E000000000000000000000000000000000000000000000000000000000000 PUSH2 0x34E DUP5 ADD MSTORE PUSH32 0x3C673E0000000000000000000000000000000000000000000000000000000000 PUSH2 0x350 DUP5 ADD MSTORE PUSH32 0x3C636972636C6520723D22333630222066696C6C3D2275726C28236729223E00 PUSH2 0x353 DUP5 ADD MSTORE PUSH32 0x3C616E696D6174655472616E73666F726D206174747269627574654E616D653D PUSH2 0x372 DUP5 ADD MSTORE PUSH32 0x227472616E73666F726D2220747970653D227363616C65222076616C7565733D PUSH2 0x392 DUP5 ADD MSTORE PUSH32 0x22313B312E30353B3122206475723D2200000000000000000000000000000000 PUSH2 0x3B2 DUP5 ADD MSTORE DUP1 MLOAD PUSH2 0x3C2 SWAP4 SWAP1 SWAP2 PUSH2 0x147C SWAP1 DUP4 SWAP1 DUP7 DUP5 ADD SWAP1 PUSH1 0x20 ADD PUSH2 0x3099 JUMP JUMPDEST ADD SWAP2 DUP3 ADD MSTORE PUSH2 0x3DF DUP2 ADD PUSH32 0x3C2F636972636C653E0000000000000000000000000000000000000000000000 SWAP1 MSTORE PUSH4 0x1E17B39F PUSH1 0xE1 SHL SWAP4 DUP5 PUSH2 0x3E8 DUP4 ADD MSTORE PUSH2 0x3EC DUP3 ADD PUSH9 0x1E3830BA3410321E91 PUSH1 0xB9 SHL SWAP1 MSTORE PUSH2 0x3F5 SWAP2 DUP2 MLOAD SWAP2 DUP3 DUP5 DUP4 ADD SWAP2 PUSH1 0x20 ADD SWAP2 PUSH2 0x14E6 SWAP3 PUSH2 0x3099 JUMP JUMPDEST ADD SWAP1 DUP2 ADD PUSH32 0x22207472616E73666F726D3D227472616E736C617465282D3530302C2D353230 SWAP1 MSTORE PUSH2 0x415 DUP2 ADD PUSH32 0x29222066696C6C3D220000000000000000000000000000000000000000000000 SWAP1 MSTORE PUSH2 0x41E SWAP7 MLOAD SWAP2 DUP3 DUP9 DUP4 ADD PUSH2 0x1548 SWAP3 PUSH2 0x3099 JUMP JUMPDEST ADD SWAP5 DUP6 ADD PUSH32 0x22206F7061636974793D22302E3138222F3E0000000000000000000000000000 SWAP1 MSTORE PUSH2 0x430 SWAP5 DUP2 MLOAD SWAP2 DUP3 DUP8 DUP4 ADD SWAP2 PUSH1 0x20 ADD SWAP2 PUSH2 0x1588 SWAP3 PUSH2 0x3099 JUMP JUMPDEST ADD SWAP4 DUP5 ADD MSTORE PUSH32 0x3C7465787420783D2238302220793D223230302220636C6173733D2274222066 PUSH2 0x434 DUP5 ADD MSTORE PUSH32 0x6F6E742D73697A653D22363422206F7061636974793D22302E39223E00000000 PUSH2 0x454 DUP5 ADD MSTORE DUP7 MLOAD PUSH2 0x470 SWAP4 PUSH2 0x15F1 DUP3 DUP7 DUP4 ADD PUSH1 0x20 DUP13 ADD PUSH2 0x3099 JUMP JUMPDEST ADD SWAP2 PUSH32 0x202D200000000000000000000000000000000000000000000000000000000000 DUP1 SWAP5 DUP5 ADD MSTORE PUSH2 0x473 SWAP3 DUP10 MLOAD SWAP1 DUP5 DUP2 ADD DUP3 PUSH1 0x20 DUP14 ADD SWAP2 PUSH2 0x1632 SWAP3 PUSH2 0x3099 JUMP JUMPDEST ADD SWAP3 PUSH32 0x3C2F746578743E00000000000000000000000000000000000000000000000000 SWAP6 DUP7 DUP1 SWAP3 DUP7 ADD MSTORE PUSH2 0x47A DUP6 ADD PUSH32 0x3C7465787420783D2238302220793D223238302220636C6173733D2274222066 SWAP1 MSTORE PUSH2 0x49A DUP6 ADD PUSH32 0x6F6E742D73697A653D22333622206F7061636974793D22302E36223E23000000 SWAP1 MSTORE PUSH2 0x4B7 SWAP5 DUP2 MLOAD SWAP2 DUP3 DUP8 DUP4 ADD SWAP2 PUSH1 0x20 ADD SWAP2 PUSH2 0x16C5 SWAP3 PUSH2 0x3099 JUMP JUMPDEST ADD SWAP4 DUP5 ADD MSTORE PUSH32 0x3C7465787420783D2238302220793D223730302220636C6173733D2274222066 PUSH2 0x4BE DUP5 ADD MSTORE PUSH32 0x6F6E742D73697A653D22323822206F7061636974793D22302E3835223E44656C PUSH2 0x4DE DUP5 ADD MSTORE PUSH32 0x6963696F75736E65737320000000000000000000000000000000000000000000 PUSH2 0x4FE DUP5 ADD MSTORE DUP1 MLOAD PUSH2 0x509 SWAP4 SWAP1 SWAP2 PUSH2 0x1759 SWAP1 DUP4 SWAP1 DUP7 DUP5 ADD SWAP1 PUSH1 0x20 ADD PUSH2 0x3099 JUMP JUMPDEST PUSH32 0x2F3130303C2F746578743E000000000000000000000000000000000000000000 SWAP2 ADD SWAP3 DUP4 ADD MSTORE PUSH32 0x3C7265637420783D2238302220793D22373230222077696474683D2238343022 PUSH2 0x514 DUP4 ADD MSTORE PUSH32 0x206865696768743D223336222072783D223138222066696C6C3D222366666666 PUSH2 0x534 DUP4 ADD MSTORE PUSH32 0x66663230222F3E00000000000000000000000000000000000000000000000000 PUSH2 0x554 DUP4 ADD MSTORE PUSH32 0x3C7265637420783D2238302220793D22373230222077696474683D2200000000 PUSH2 0x55B DUP4 ADD MSTORE DUP1 MLOAD PUSH2 0x577 SWAP3 SWAP1 SWAP2 PUSH2 0x1836 SWAP1 DUP4 SWAP1 DUP6 DUP5 ADD SWAP1 PUSH1 0x20 ADD PUSH2 0x3099 JUMP JUMPDEST PUSH32 0x22206865696768743D223336222072783D223138222066696C6C3D2275726C28 SWAP2 ADD SWAP2 DUP3 ADD MSTORE PUSH32 0x237368696D6D657229222F3E0000000000000000000000000000000000000000 PUSH2 0x597 DUP3 ADD MSTORE PUSH32 0x3C7265637420783D2238302220793D22383230222072783D2231342220776964 PUSH2 0x5A3 DUP3 ADD MSTORE PUSH32 0x74683D2238343022206865696768743D223536222066696C6C3D222366666666 PUSH2 0x5C3 DUP3 ADD MSTORE PUSH32 0x66663130222F3E00000000000000000000000000000000000000000000000000 PUSH2 0x5E3 DUP3 ADD MSTORE PUSH32 0x3C7465787420783D223130302220793D223836302220636C6173733D22742220 PUSH2 0x5EA DUP3 ADD MSTORE PUSH32 0x666F6E742D73697A653D22323822206F7061636974793D22302E39223E000000 PUSH2 0x60A DUP3 ADD MSTORE PUSH2 0x1954 SWAP1 PUSH2 0x627 ADD PUSH2 0x3574 JUMP JUMPDEST SWAP1 DUP2 MSTORE DUP5 MLOAD SWAP1 PUSH2 0x196B DUP3 PUSH1 0x3 DUP4 ADD PUSH1 0x20 DUP10 ADD PUSH2 0x3099 JUMP JUMPDEST ADD SWAP1 PUSH1 0x3 DUP3 ADD MSTORE PUSH1 0xA DUP2 ADD PUSH32 0x3C2F7376673E0000000000000000000000000000000000000000000000000000 SWAP1 MSTORE SUB PUSH1 0xF NOT DUP2 ADD DUP3 MSTORE PUSH1 0x10 ADD PUSH2 0x19AE SWAP1 DUP3 PUSH2 0x3209 JUMP JUMPDEST PUSH2 0x19B6 PUSH2 0x3B7A JUMP JUMPDEST PUSH2 0x19BF SWAP2 PUSH2 0x3EDA JUMP JUMPDEST SWAP3 PUSH1 0xFF AND PUSH2 0x19CC SWAP1 PUSH2 0x3A29 JUMP JUMPDEST SWAP3 PUSH1 0x40 MLOAD SWAP6 DUP7 SWAP6 PUSH1 0x20 DUP8 ADD PUSH32 0x7B226E616D65223A220000000000000000000000000000000000000000000000 SWAP1 MSTORE DUP1 MLOAD SWAP1 DUP2 PUSH1 0x29 DUP10 ADD SWAP2 PUSH1 0x20 ADD SWAP2 PUSH2 0x1A10 SWAP3 PUSH2 0x3099 JUMP JUMPDEST DUP7 ADD PUSH1 0x29 DUP2 ADD PUSH32 0x222C226465736372697074696F6E223A22000000000000000000000000000000 SWAP1 MSTORE DUP2 MLOAD SWAP2 DUP3 PUSH1 0x3A DUP4 ADD SWAP2 PUSH1 0x20 ADD SWAP2 PUSH2 0x1A4F SWAP3 PUSH2 0x3099 JUMP JUMPDEST ADD PUSH1 0x3A DUP2 ADD PUSH32 0x222C22696D616765223A22646174613A696D6167652F7376672B786D6C3B6261 SWAP1 MSTORE PUSH1 0x5A DUP2 ADD PUSH32 0x736536342C000000000000000000000000000000000000000000000000000000 SWAP1 MSTORE DUP2 MLOAD SWAP2 DUP3 PUSH1 0x5F DUP4 ADD SWAP2 PUSH1 0x20 ADD SWAP2 PUSH2 0x1AB4 SWAP3 PUSH2 0x3099 JUMP JUMPDEST ADD PUSH1 0x5F DUP2 ADD PUSH32 0x222C2261747472696275746573223A5B00000000000000000000000000000000 SWAP1 MSTORE PUSH1 0x6F DUP2 ADD PUSH32 0x7B2274726169745F74797065223A22466C61766F72222C2276616C7565223A22 SWAP1 MSTORE DUP2 MLOAD SWAP2 DUP3 PUSH1 0x8F DUP4 ADD SWAP2 PUSH1 0x20 ADD SWAP2 PUSH2 0x1B19 SWAP3 PUSH2 0x3099 JUMP JUMPDEST ADD SWAP1 PUSH32 0x227D2C0000000000000000000000000000000000000000000000000000000000 SWAP2 DUP3 PUSH1 0x8F DUP3 ADD MSTORE PUSH1 0x92 DUP2 ADD PUSH32 0x7B2274726169745F74797065223A2254696572222C2276616C7565223A220000 SWAP1 MSTORE DUP2 MLOAD SWAP2 DUP3 PUSH1 0xB0 DUP4 ADD SWAP2 PUSH1 0x20 ADD SWAP2 PUSH2 0x1B80 SWAP3 PUSH2 0x3099 JUMP JUMPDEST ADD SWAP1 PUSH1 0xB0 DUP3 ADD MSTORE PUSH1 0xB3 DUP2 ADD PUSH32 0x7B2274726169745F74797065223A2244656C6963696F75736E657373222C2276 SWAP1 MSTORE PUSH1 0xD3 DUP2 ADD PUSH32 0x616C7565223A0000000000000000000000000000000000000000000000000000 SWAP1 MSTORE DUP2 MLOAD SWAP2 DUP3 PUSH1 0xD9 DUP4 ADD SWAP2 PUSH1 0x20 ADD SWAP2 PUSH2 0x1BEB SWAP3 PUSH2 0x3099 JUMP JUMPDEST ADD PUSH1 0xD9 DUP2 ADD PUSH32 0x7D00000000000000000000000000000000000000000000000000000000000000 SWAP1 MSTORE PUSH1 0xDA DUP2 ADD PUSH32 0x5D7D000000000000000000000000000000000000000000000000000000000000 SWAP1 MSTORE SUB PUSH1 0xBC DUP2 ADD DUP3 MSTORE PUSH1 0xDC ADD PUSH2 0x1C4E SWAP1 DUP3 PUSH2 0x3209 JUMP JUMPDEST PUSH2 0x1C56 PUSH2 0x3B7A JUMP JUMPDEST PUSH2 0x1C5F SWAP2 PUSH2 0x3EDA JUMP JUMPDEST PUSH1 0x40 MLOAD DUP1 SWAP2 PUSH1 0x20 DUP3 ADD PUSH32 0x646174613A6170706C69636174696F6E2F6A736F6E3B6261736536342C000000 SWAP1 MSTORE DUP1 MLOAD SWAP1 DUP2 PUSH1 0x3D DUP5 ADD SWAP2 PUSH1 0x20 ADD SWAP2 PUSH2 0x1CA1 SWAP3 PUSH2 0x3099 JUMP JUMPDEST DUP2 ADD SUB PUSH1 0x1D DUP2 ADD DUP3 MSTORE PUSH1 0x3D ADD PUSH2 0x1CB7 SWAP1 DUP3 PUSH2 0x3209 JUMP JUMPDEST PUSH1 0x40 MLOAD DUP1 SWAP2 PUSH1 0x20 DUP3 MSTORE PUSH1 0x20 DUP3 ADD PUSH2 0x1CCD SWAP2 PUSH2 0x30BC JUMP JUMPDEST SUB SWAP1 RETURN JUMPDEST POP PUSH1 0x40 MLOAD PUSH2 0x1CDE DUP2 PUSH2 0x3199 JUMP JUMPDEST PUSH1 0x0 DUP2 MSTORE PUSH2 0xDDA JUMP JUMPDEST PUSH32 0x181EBE3A8FA130246D49BFD123AC54849B05BDCD02C6B1322C78DE2A3988A310 EQ SWAP8 POP DUP14 PUSH2 0xBC0 JUMP JUMPDEST PUSH4 0x4E487B71 PUSH1 0xE0 SHL PUSH1 0x0 MSTORE PUSH1 0x11 PUSH1 0x4 MSTORE PUSH1 0x24 PUSH1 0x0 REVERT JUMPDEST PUSH1 0x5 SWAP3 POP PUSH2 0xB5C JUMP JUMPDEST PUSH1 0x6 SWAP4 POP PUSH2 0xB40 JUMP JUMPDEST POP PUSH1 0x3 PUSH2 0xB24 JUMP JUMPDEST PUSH1 0x21 PUSH1 0xFF DUP6 AND GT ISZERO PUSH2 0x1D68 JUMPI PUSH1 0x2 ADD SWAP5 PUSH1 0xFF DUP7 GT PUSH2 0x1D11 JUMPI PUSH1 0xFF PUSH2 0x92A SWAP3 PUSH1 0x1 SWAP8 AND PUSH2 0x923 JUMP JUMPDEST PUSH1 0x3 ADD SWAP5 PUSH1 0xFF DUP7 GT PUSH2 0x1D11 JUMPI PUSH1 0xFF PUSH2 0x92A SWAP3 PUSH1 0x1 SWAP8 AND PUSH2 0x923 JUMP JUMPDEST CALLVALUE PUSH2 0x1CB JUMPI PUSH1 0x20 CALLDATASIZE PUSH1 0x3 NOT ADD SLT PUSH2 0x1CB JUMPI PUSH1 0x20 PUSH2 0x1DA1 PUSH1 0x4 CALLDATALOAD PUSH2 0x349B JUMP JUMPDEST PUSH1 0xFF PUSH1 0x40 MLOAD SWAP2 AND DUP2 MSTORE RETURN JUMPDEST CALLVALUE PUSH2 0x1CB JUMPI PUSH1 0x40 CALLDATASIZE PUSH1 0x3 NOT ADD SLT PUSH2 0x1CB JUMPI PUSH8 0xFFFFFFFFFFFFFFFF PUSH1 0x4 CALLDATALOAD DUP2 DUP2 GT PUSH2 0x1CB JUMPI PUSH2 0x1DDE SWAP1 CALLDATASIZE SWAP1 PUSH1 0x4 ADD PUSH2 0x3247 JUMP JUMPDEST PUSH1 0x24 CALLDATALOAD DUP4 DUP2 GT PUSH2 0x1CB JUMPI PUSH2 0x1DF6 SWAP1 CALLDATASIZE SWAP1 PUSH1 0x4 ADD PUSH2 0x3247 JUMP JUMPDEST PUSH2 0x1DFE PUSH2 0x362B JUMP JUMPDEST DUP5 DUP4 GT PUSH2 0x1FF3 JUMPI PUSH2 0x1E10 PUSH1 0xD SLOAD PUSH2 0x3142 JUMP JUMPDEST SWAP5 PUSH1 0x1F SWAP6 DUP7 DUP2 GT PUSH2 0x209A JUMPI JUMPDEST POP DUP4 PUSH1 0x0 DUP8 DUP3 GT PUSH1 0x1 EQ PUSH2 0x2014 JUMPI PUSH1 0x0 SWAP2 PUSH2 0x2009 JUMPI JUMPDEST POP DUP5 PUSH1 0x1 SHL SWAP1 PUSH1 0x0 NOT DUP7 PUSH1 0x3 SHL SHR NOT AND OR PUSH1 0xD SSTORE JUMPDEST DUP2 GT PUSH2 0x1FF3 JUMPI PUSH2 0x1E58 PUSH1 0xE SLOAD PUSH2 0x3142 JUMP JUMPDEST DUP6 DUP2 GT PUSH2 0x1F91 JUMPI JUMPDEST POP PUSH1 0x0 SWAP5 DUP2 GT PUSH1 0x1 EQ PUSH2 0x1EE7 JUMPI SWAP1 DUP2 PUSH2 0x1ED7 SWAP3 PUSH32 0x2C7EA2C532CC0DAD6D6BAAD5A149D62033F0F3FA2E619DE5A0296268F78611C3 SWAP7 PUSH1 0x0 SWAP2 PUSH2 0x1EDC JUMPI JUMPDEST POP DUP2 PUSH1 0x1 SHL SWAP1 PUSH1 0x0 NOT DUP4 PUSH1 0x3 SHL SHR NOT AND OR PUSH1 0xE SSTORE JUMPDEST PUSH2 0x1EC9 PUSH1 0x40 MLOAD SWAP6 DUP7 SWAP6 PUSH1 0x40 DUP8 MSTORE PUSH1 0x40 DUP8 ADD SWAP2 PUSH2 0x342F JUMP JUMPDEST SWAP2 DUP5 DUP4 SUB PUSH1 0x20 DUP7 ADD MSTORE PUSH2 0x342F JUMP JUMPDEST SUB SWAP1 LOG1 STOP JUMPDEST SWAP1 POP DUP3 ADD CALLDATALOAD DUP8 PUSH2 0x1E9D JUMP JUMPDEST PUSH1 0x1F NOT DUP2 AND SWAP5 PUSH1 0xE PUSH1 0x0 MSTORE PUSH32 0xBB7B4A454DC3493923482F07822329ED19E8244EFF582CC204F8554C3620C3FD SWAP6 PUSH1 0x0 JUMPDEST DUP2 DUP2 LT PUSH2 0x1F79 JUMPI POP SWAP6 DUP3 SWAP2 PUSH2 0x1ED7 SWAP5 SWAP4 PUSH32 0x2C7EA2C532CC0DAD6D6BAAD5A149D62033F0F3FA2E619DE5A0296268F78611C3 SWAP9 LT PUSH2 0x1F5F JUMPI JUMPDEST POP POP PUSH1 0x1 DUP2 DUP2 SHL ADD PUSH1 0xE SSTORE PUSH2 0x1EB2 JUMP JUMPDEST DUP4 ADD CALLDATALOAD PUSH1 0x0 NOT PUSH1 0x3 DUP5 SWAP1 SHL PUSH1 0xF8 AND SHR NOT AND SWAP1 SSTORE DUP7 DUP1 PUSH2 0x1F4F JUMP JUMPDEST DUP5 DUP4 ADD CALLDATALOAD DUP9 SSTORE PUSH1 0x1 SWAP1 SWAP8 ADD SWAP7 PUSH1 0x20 SWAP3 DUP4 ADD SWAP3 ADD PUSH2 0x1F17 JUMP JUMPDEST PUSH1 0xE PUSH1 0x0 MSTORE PUSH32 0xBB7B4A454DC3493923482F07822329ED19E8244EFF582CC204F8554C3620C3FD DUP7 DUP1 DUP5 ADD PUSH1 0x5 SHR DUP3 ADD SWAP3 PUSH1 0x20 DUP6 LT PUSH2 0x1FEA JUMPI JUMPDEST ADD PUSH1 0x5 SHR ADD SWAP1 JUMPDEST DUP2 DUP2 LT PUSH2 0x1FDE JUMPI POP PUSH2 0x1E60 JUMP JUMPDEST PUSH1 0x0 DUP2 SSTORE PUSH1 0x1 ADD PUSH2 0x1FD1 JUMP JUMPDEST SWAP3 POP DUP2 SWAP3 PUSH2 0x1FCA JUMP JUMPDEST PUSH4 0x4E487B71 PUSH1 0xE0 SHL PUSH1 0x0 MSTORE PUSH1 0x41 PUSH1 0x4 MSTORE PUSH1 0x24 PUSH1 0x0 REVERT JUMPDEST SWAP1 POP DUP6 ADD CALLDATALOAD DUP8 PUSH2 0x1E32 JUMP JUMPDEST SWAP1 POP PUSH1 0x1F NOT DUP6 AND SWAP1 PUSH1 0xD PUSH1 0x0 MSTORE DUP6 PUSH32 0xD7B6990105719101DABEB77144F2A3385C8033ACD3AF97E9423A695E81AD1EB5 SWAP3 PUSH1 0x0 JUMPDEST DUP2 DUP2 LT PUSH2 0x207F JUMPI POP LT PUSH2 0x2065 JUMPI JUMPDEST POP POP PUSH1 0x1 DUP5 DUP2 SHL ADD PUSH1 0xD SSTORE PUSH2 0x1E47 JUMP JUMPDEST DUP7 ADD CALLDATALOAD PUSH1 0x0 NOT PUSH1 0x3 DUP8 SWAP1 SHL PUSH1 0xF8 AND SHR NOT AND SWAP1 SSTORE DUP7 DUP1 PUSH2 0x2055 JUMP JUMPDEST DUP10 DUP5 ADD CALLDATALOAD DUP6 SSTORE PUSH1 0x1 SWAP1 SWAP5 ADD SWAP4 PUSH1 0x20 SWAP4 DUP5 ADD SWAP4 DUP10 SWAP4 POP ADD PUSH2 0x2047 JUMP JUMPDEST PUSH1 0xD PUSH1 0x0 MSTORE PUSH32 0xD7B6990105719101DABEB77144F2A3385C8033ACD3AF97E9423A695E81AD1EB5 DUP8 DUP1 DUP8 ADD PUSH1 0x5 SHR DUP3 ADD SWAP3 PUSH1 0x20 DUP9 LT PUSH2 0x20F3 JUMPI JUMPDEST ADD PUSH1 0x5 SHR ADD SWAP1 JUMPDEST DUP2 DUP2 LT PUSH2 0x20E7 JUMPI POP PUSH2 0x1E1C JUMP JUMPDEST PUSH1 0x0 DUP2 SSTORE PUSH1 0x1 ADD PUSH2 0x20DA JUMP JUMPDEST SWAP3 POP DUP2 SWAP3 PUSH2 0x20D3 JUMP JUMPDEST CALLVALUE PUSH2 0x1CB JUMPI PUSH1 0x80 CALLDATASIZE PUSH1 0x3 NOT ADD SLT PUSH2 0x1CB JUMPI PUSH2 0x2115 PUSH2 0x30E1 JUMP JUMPDEST PUSH2 0x211D PUSH2 0x30F7 JUMP JUMPDEST SWAP1 PUSH1 0x44 CALLDATALOAD PUSH1 0x64 CALLDATALOAD SWAP3 PUSH8 0xFFFFFFFFFFFFFFFF DUP5 GT PUSH2 0x1CB JUMPI CALLDATASIZE PUSH1 0x23 DUP6 ADD SLT ISZERO PUSH2 0x1CB JUMPI DUP4 PUSH1 0x4 ADD CALLDATALOAD SWAP3 PUSH2 0x214E DUP5 PUSH2 0x322B JUMP JUMPDEST SWAP4 PUSH2 0x215C PUSH1 0x40 MLOAD SWAP6 DUP7 PUSH2 0x3209 JUMP JUMPDEST DUP1 DUP6 MSTORE CALLDATASIZE PUSH1 0x24 DUP3 DUP9 ADD ADD GT PUSH2 0x1CB JUMPI PUSH1 0x20 DUP2 PUSH1 0x0 SWAP3 PUSH1 0x24 PUSH2 0x2191 SWAP10 ADD DUP4 DUP10 ADD CALLDATACOPY DUP7 ADD ADD MSTORE PUSH2 0x218B DUP4 DUP4 DUP4 PUSH2 0x3275 JUMP JUMPDEST CALLER PUSH2 0x373A JUMP JUMPDEST STOP JUMPDEST CALLVALUE PUSH2 0x1CB JUMPI PUSH1 0x20 CALLDATASIZE PUSH1 0x3 NOT ADD SLT PUSH2 0x1CB JUMPI PUSH32 0xFCBB1571F6F637B3645E200FF18FBCB7FC2F8DB33547E2F582146A51246E1043 PUSH1 0x20 PUSH1 0x1 PUSH1 0x1 PUSH1 0xA0 SHL SUB PUSH2 0x21D7 PUSH2 0x30E1 JUMP JUMPDEST PUSH2 0x21DF PUSH2 0x362B JUMP JUMPDEST AND DUP1 PUSH1 0x1 PUSH1 0x1 PUSH1 0xA0 SHL SUB NOT PUSH1 0xC SLOAD AND OR PUSH1 0xC SSTORE PUSH1 0x40 MLOAD SWAP1 DUP2 MSTORE LOG1 STOP JUMPDEST CALLVALUE PUSH2 0x1CB JUMPI PUSH1 0x40 CALLDATASIZE PUSH1 0x3 NOT ADD SLT PUSH2 0x1CB JUMPI PUSH2 0x2214 PUSH2 0x30E1 JUMP JUMPDEST PUSH1 0x24 CALLDATALOAD SWAP1 DUP2 ISZERO ISZERO DUP1 SWAP3 SUB PUSH2 0x1CB JUMPI PUSH1 0x1 PUSH1 0x1 PUSH1 0xA0 SHL SUB AND SWAP1 DUP2 ISZERO PUSH2 0x2287 JUMPI CALLER PUSH1 0x0 MSTORE PUSH1 0x5 PUSH1 0x20 MSTORE PUSH1 0x40 PUSH1 0x0 KECCAK256 DUP3 PUSH1 0x0 MSTORE PUSH1 0x20 MSTORE PUSH1 0x40 PUSH1 0x0 KECCAK256 PUSH1 0xFF NOT DUP2 SLOAD AND PUSH1 0xFF DUP4 AND OR SWAP1 SSTORE PUSH1 0x40 MLOAD SWAP1 DUP2 MSTORE PUSH32 0x17307EAB39AB6107E8899845AD3D59BD9653F200F220920489CA2B5937696C31 PUSH1 0x20 CALLER SWAP3 LOG3 STOP JUMPDEST PUSH1 0x24 DUP3 PUSH1 0x40 MLOAD SWAP1 PUSH32 0x5B08BA1800000000000000000000000000000000000000000000000000000000 DUP3 MSTORE PUSH1 0x4 DUP3 ADD MSTORE REVERT JUMPDEST PUSH1 0x20 CALLDATASIZE PUSH1 0x3 NOT ADD SLT PUSH2 0x1CB JUMPI PUSH1 0x2 PUSH1 0x9 SLOAD EQ PUSH2 0x26C6 JUMPI PUSH1 0x2 PUSH1 0x9 SSTORE PUSH1 0xFF PUSH1 0xF SLOAD AND ISZERO PUSH2 0x2682 JUMPI PUSH1 0x4 CALLDATALOAD ISZERO ISZERO DUP1 PUSH2 0x2675 JUMPI JUMPDEST ISZERO PUSH2 0x2631 JUMPI PUSH1 0xA SLOAD PUSH1 0x4 CALLDATALOAD DUP2 ADD DUP1 SWAP2 GT PUSH2 0x1D11 JUMPI PUSH32 0x0 LT PUSH2 0x25ED JUMPI PUSH2 0x2331 PUSH1 0x4 CALLDATALOAD PUSH1 0xB SLOAD PUSH2 0x341C JUMP JUMPDEST CALLVALUE LT PUSH2 0x25A9 JUMPI PUSH1 0x0 JUMPDEST PUSH1 0x4 CALLDATALOAD DUP2 LT PUSH2 0x236B JUMPI SELFBALANCE PUSH2 0x2350 JUMPI JUMPDEST PUSH1 0x1 PUSH1 0x9 SSTORE STOP JUMPDEST PUSH2 0x2366 PUSH1 0x1 PUSH1 0x1 PUSH1 0xA0 SHL SUB PUSH1 0xC SLOAD AND SELFBALANCE SWAP1 PUSH2 0x369F JUMP JUMPDEST PUSH2 0x2349 JUMP JUMPDEST PUSH1 0xA SLOAD PUSH1 0x40 MLOAD SWAP1 PUSH2 0x237B DUP3 PUSH2 0x3199 JUMP JUMPDEST PUSH1 0x0 DUP3 MSTORE CALLER ISZERO PUSH2 0x2591 JUMPI DUP1 PUSH1 0x0 MSTORE PUSH1 0x2 PUSH1 0x20 MSTORE PUSH1 0x1 PUSH1 0x1 PUSH1 0xA0 SHL SUB PUSH1 0x40 PUSH1 0x0 KECCAK256 SLOAD AND DUP2 DUP2 ISZERO ISZERO SWAP2 DUP3 PUSH2 0x2555 JUMPI JUMPDEST CALLER PUSH2 0x253B JUMPI JUMPDEST DUP2 PUSH1 0x0 MSTORE PUSH1 0x2 PUSH1 0x20 MSTORE PUSH1 0x40 PUSH1 0x0 KECCAK256 CALLER PUSH1 0x1 PUSH1 0x1 PUSH1 0xA0 SHL SUB NOT DUP3 SLOAD AND OR SWAP1 SSTORE CALLER SWAP1 PUSH32 0xDDF252AD1BE2C89B69C2B068FC378DAA952BA7F163C4A11628F55A4DF523B3EF PUSH1 0x0 DUP1 LOG4 PUSH2 0x250A JUMPI CALLER EXTCODESIZE PUSH2 0x2411 JUMPI JUMPDEST POP POP PUSH1 0x1 SWAP1 DUP2 PUSH1 0xA SLOAD ADD PUSH1 0xA SSTORE ADD PUSH2 0x233A JUMP JUMPDEST PUSH2 0x244D SWAP2 PUSH1 0x20 SWAP2 PUSH1 0x40 MLOAD SWAP4 DUP5 SWAP3 DUP4 SWAP3 PUSH4 0xA85BD01 PUSH1 0xE1 SHL DUP5 MSTORE CALLER PUSH1 0x4 DUP6 ADD MSTORE PUSH1 0x0 PUSH1 0x24 DUP6 ADD MSTORE PUSH1 0x44 DUP5 ADD MSTORE PUSH1 0x80 PUSH1 0x64 DUP5 ADD MSTORE PUSH1 0x84 DUP4 ADD SWAP1 PUSH2 0x30BC JUMP JUMPDEST SUB DUP2 PUSH1 0x0 CALLER GAS CALL PUSH1 0x0 SWAP2 DUP2 PUSH2 0x24C5 JUMPI JUMPDEST POP PUSH2 0x248E JUMPI PUSH2 0x246A PUSH2 0x366F JUMP JUMPDEST DUP1 MLOAD SWAP1 DUP2 PUSH2 0x2489 JUMPI PUSH1 0x24 PUSH1 0x40 MLOAD PUSH4 0x32505749 PUSH1 0xE1 SHL DUP2 MSTORE CALLER PUSH1 0x4 DUP3 ADD MSTORE REVERT JUMPDEST PUSH1 0x20 ADD REVERT JUMPDEST PUSH1 0x1 PUSH1 0x1 PUSH1 0xE0 SHL SUB NOT PUSH4 0xA85BD01 PUSH1 0xE1 SHL SWAP2 AND SUB PUSH2 0x24AE JUMPI PUSH1 0x1 DUP3 PUSH2 0x23FE JUMP JUMPDEST PUSH1 0x24 PUSH1 0x40 MLOAD PUSH4 0x32505749 PUSH1 0xE1 SHL DUP2 MSTORE CALLER PUSH1 0x4 DUP3 ADD MSTORE REVERT JUMPDEST SWAP1 SWAP2 POP PUSH1 0x20 DUP2 RETURNDATASIZE PUSH1 0x20 GT PUSH2 0x2502 JUMPI JUMPDEST DUP2 PUSH2 0x24E1 PUSH1 0x20 SWAP4 DUP4 PUSH2 0x3209 JUMP JUMPDEST DUP2 ADD SUB SLT PUSH2 0x1CB JUMPI MLOAD PUSH1 0x1 PUSH1 0x1 PUSH1 0xE0 SHL SUB NOT DUP2 AND DUP2 SUB PUSH2 0x1CB JUMPI SWAP1 DUP4 PUSH2 0x245D JUMP JUMPDEST RETURNDATASIZE SWAP2 POP PUSH2 0x24D4 JUMP JUMPDEST PUSH1 0x24 PUSH1 0x40 MLOAD PUSH32 0x73C6AC6E00000000000000000000000000000000000000000000000000000000 DUP2 MSTORE PUSH1 0x0 PUSH1 0x4 DUP3 ADD MSTORE REVERT JUMPDEST CALLER PUSH1 0x0 MSTORE PUSH1 0x3 PUSH1 0x20 MSTORE PUSH1 0x40 PUSH1 0x0 KECCAK256 PUSH1 0x1 DUP2 SLOAD ADD SWAP1 SSTORE PUSH2 0x23AE JUMP JUMPDEST PUSH2 0x2576 DUP3 PUSH1 0x0 MSTORE PUSH1 0x4 PUSH1 0x20 MSTORE PUSH1 0x40 PUSH1 0x0 KECCAK256 PUSH1 0x1 PUSH1 0x1 PUSH1 0xA0 SHL SUB NOT DUP2 SLOAD AND SWAP1 SSTORE JUMP JUMPDEST DUP1 PUSH1 0x0 MSTORE PUSH1 0x3 PUSH1 0x20 MSTORE PUSH1 0x40 PUSH1 0x0 KECCAK256 PUSH1 0x0 NOT DUP2 SLOAD ADD SWAP1 SSTORE PUSH2 0x23A8 JUMP JUMPDEST PUSH1 0x24 PUSH1 0x40 MLOAD PUSH4 0x32505749 PUSH1 0xE1 SHL DUP2 MSTORE PUSH1 0x0 PUSH1 0x4 DUP3 ADD MSTORE REVERT JUMPDEST PUSH1 0x64 PUSH1 0x40 MLOAD PUSH3 0x461BCD PUSH1 0xE5 SHL DUP2 MSTORE PUSH1 0x20 PUSH1 0x4 DUP3 ADD MSTORE PUSH1 0x10 PUSH1 0x24 DUP3 ADD MSTORE PUSH32 0x696E73756666696369656E742045544800000000000000000000000000000000 PUSH1 0x44 DUP3 ADD MSTORE REVERT JUMPDEST PUSH1 0x64 PUSH1 0x40 MLOAD PUSH3 0x461BCD PUSH1 0xE5 SHL DUP2 MSTORE PUSH1 0x20 PUSH1 0x4 DUP3 ADD MSTORE PUSH1 0x8 PUSH1 0x24 DUP3 ADD MSTORE PUSH32 0x736F6C64206F7574000000000000000000000000000000000000000000000000 PUSH1 0x44 DUP3 ADD MSTORE REVERT JUMPDEST PUSH1 0x64 PUSH1 0x40 MLOAD PUSH3 0x461BCD PUSH1 0xE5 SHL DUP2 MSTORE PUSH1 0x20 PUSH1 0x4 DUP3 ADD MSTORE PUSH1 0x8 PUSH1 0x24 DUP3 ADD MSTORE PUSH32 0x71747920312E2E35000000000000000000000000000000000000000000000000 PUSH1 0x44 DUP3 ADD MSTORE REVERT JUMPDEST POP PUSH1 0x5 PUSH1 0x4 CALLDATALOAD GT ISZERO PUSH2 0x22E9 JUMP JUMPDEST PUSH1 0x64 PUSH1 0x40 MLOAD PUSH3 0x461BCD PUSH1 0xE5 SHL DUP2 MSTORE PUSH1 0x20 PUSH1 0x4 DUP3 ADD MSTORE PUSH1 0xB PUSH1 0x24 DUP3 ADD MSTORE PUSH32 0x4D696E7420636C6F736564000000000000000000000000000000000000000000 PUSH1 0x44 DUP3 ADD MSTORE REVERT JUMPDEST PUSH1 0x4 PUSH1 0x40 MLOAD PUSH32 0x3EE5AEB500000000000000000000000000000000000000000000000000000000 DUP2 MSTORE REVERT JUMPDEST CALLVALUE PUSH2 0x1CB JUMPI PUSH1 0x0 CALLDATASIZE PUSH1 0x3 NOT ADD SLT PUSH2 0x1CB JUMPI PUSH1 0x40 MLOAD PUSH1 0x0 PUSH1 0x1 DUP3 PUSH1 0x1 SLOAD SWAP3 PUSH2 0x2716 DUP5 PUSH2 0x3142 JUMP JUMPDEST SWAP3 DUP4 DUP4 MSTORE PUSH1 0x20 SWAP5 DUP6 PUSH1 0x1 DUP3 AND SWAP2 DUP3 PUSH1 0x0 EQ PUSH2 0x27B3 JUMPI POP POP PUSH1 0x1 EQ PUSH2 0x2756 JUMPI JUMPDEST POP PUSH2 0x2742 SWAP3 POP SUB DUP4 PUSH2 0x3209 JUMP JUMPDEST PUSH2 0x1CCD PUSH1 0x40 MLOAD SWAP3 DUP3 DUP5 SWAP4 DUP5 MSTORE DUP4 ADD SWAP1 PUSH2 0x30BC JUMP JUMPDEST DUP5 SWAP2 POP PUSH1 0x1 PUSH1 0x0 MSTORE PUSH32 0xB10E2D527612073B26EECDFD717E6A320CF44B4AFAC2B0732D9FCBE2B7FA0CF6 SWAP1 PUSH1 0x0 SWAP2 JUMPDEST DUP6 DUP4 LT PUSH2 0x279B JUMPI POP POP PUSH2 0x2742 SWAP4 POP DUP3 ADD ADD DUP6 PUSH2 0x2735 JUMP JUMPDEST DUP1 SLOAD DUP4 DUP10 ADD DUP6 ADD MSTORE DUP8 SWAP5 POP DUP7 SWAP4 SWAP1 SWAP3 ADD SWAP2 DUP2 ADD PUSH2 0x2784 JUMP JUMPDEST PUSH1 0xFF NOT AND DUP6 DUP3 ADD MSTORE PUSH2 0x2742 SWAP6 ISZERO ISZERO PUSH1 0x5 SHL DUP6 ADD ADD SWAP3 POP DUP8 SWAP2 POP PUSH2 0x2735 SWAP1 POP JUMP JUMPDEST CALLVALUE PUSH2 0x1CB JUMPI PUSH1 0x0 CALLDATASIZE PUSH1 0x3 NOT ADD SLT PUSH2 0x1CB JUMPI PUSH1 0x20 PUSH1 0x1 PUSH1 0x1 PUSH1 0xA0 SHL SUB PUSH1 0x8 SLOAD AND PUSH1 0x40 MLOAD SWAP1 DUP2 MSTORE RETURN JUMPDEST CALLVALUE PUSH2 0x1CB JUMPI PUSH1 0x20 CALLDATASIZE PUSH1 0x3 NOT ADD SLT PUSH2 0x1CB JUMPI PUSH1 0x4 CALLDATALOAD DUP1 ISZERO ISZERO DUP1 SWAP2 SUB PUSH2 0x1CB JUMPI PUSH1 0x20 PUSH32 0x8BA9AF8FEF251A59A57BB383A518FF12B3C2770C23CF0AB9A59A9E2390E08F43 SWAP2 PUSH2 0x2844 PUSH2 0x362B JUMP JUMPDEST PUSH1 0xFF NOT PUSH1 0xF SLOAD AND PUSH1 0xFF DUP3 AND OR PUSH1 0xF SSTORE PUSH1 0x40 MLOAD SWAP1 DUP2 MSTORE LOG1 STOP JUMPDEST CALLVALUE PUSH2 0x1CB JUMPI PUSH1 0x0 CALLDATASIZE PUSH1 0x3 NOT ADD SLT PUSH2 0x1CB JUMPI PUSH1 0x40 MLOAD PUSH1 0xE SLOAD PUSH1 0x0 DUP3 PUSH2 0x287F DUP4 PUSH2 0x3142 JUMP JUMPDEST SWAP2 DUP3 DUP3 MSTORE PUSH1 0x20 SWAP4 PUSH1 0x1 SWAP1 DUP6 PUSH1 0x1 DUP3 AND SWAP2 DUP3 PUSH1 0x0 EQ PUSH2 0x27B3 JUMPI POP POP PUSH1 0x1 EQ PUSH2 0x28AD JUMPI POP PUSH2 0x2742 SWAP3 POP SUB DUP4 PUSH2 0x3209 JUMP JUMPDEST DUP5 SWAP2 POP PUSH1 0xE PUSH1 0x0 MSTORE PUSH32 0xBB7B4A454DC3493923482F07822329ED19E8244EFF582CC204F8554C3620C3FD SWAP1 PUSH1 0x0 SWAP2 JUMPDEST DUP6 DUP4 LT PUSH2 0x28F2 JUMPI POP POP PUSH2 0x2742 SWAP4 POP DUP3 ADD ADD DUP6 PUSH2 0x2735 JUMP JUMPDEST DUP1 SLOAD DUP4 DUP10 ADD DUP6 ADD MSTORE DUP8 SWAP5 POP DUP7 SWAP4 SWAP1 SWAP3 ADD SWAP2 DUP2 ADD PUSH2 0x28DB JUMP JUMPDEST CALLVALUE PUSH2 0x1CB JUMPI PUSH1 0x0 CALLDATASIZE PUSH1 0x3 NOT ADD SLT PUSH2 0x1CB JUMPI PUSH2 0x2923 PUSH2 0x362B JUMP JUMPDEST PUSH1 0x0 PUSH1 0x1 PUSH1 0x1 PUSH1 0xA0 SHL SUB PUSH1 0x8 SLOAD PUSH1 0x1 PUSH1 0x1 PUSH1 0xA0 SHL SUB NOT DUP2 AND PUSH1 0x8 SSTORE AND PUSH32 0x8BE0079C531659141344CD1FD0A4F28419497F9722A3DAAFE3B4186F6B6457E0 DUP3 DUP1 LOG3 STOP JUMPDEST CALLVALUE PUSH2 0x1CB JUMPI PUSH1 0x20 CALLDATASIZE PUSH1 0x3 NOT ADD SLT PUSH2 0x1CB JUMPI PUSH1 0x1 PUSH1 0x1 PUSH1 0xA0 SHL SUB PUSH2 0x2986 PUSH2 0x30E1 JUMP JUMPDEST AND DUP1 ISZERO PUSH2 0x29A5 JUMPI PUSH1 0x0 MSTORE PUSH1 0x3 PUSH1 0x20 MSTORE PUSH1 0x20 PUSH1 0x40 PUSH1 0x0 KECCAK256 SLOAD PUSH1 0x40 MLOAD SWAP1 DUP2 MSTORE RETURN JUMPDEST PUSH1 0x24 PUSH1 0x40 MLOAD PUSH32 0x89C62B6400000000000000000000000000000000000000000000000000000000 DUP2 MSTORE PUSH1 0x0 PUSH1 0x4 DUP3 ADD MSTORE REVERT JUMPDEST CALLVALUE PUSH2 0x1CB JUMPI PUSH1 0x0 CALLDATASIZE PUSH1 0x3 NOT ADD SLT PUSH2 0x1CB JUMPI PUSH1 0x20 PUSH1 0xB SLOAD PUSH1 0x40 MLOAD SWAP1 DUP2 MSTORE RETURN JUMPDEST CALLVALUE PUSH2 0x1CB JUMPI PUSH1 0x0 CALLDATASIZE PUSH1 0x3 NOT ADD SLT PUSH2 0x1CB JUMPI PUSH1 0x20 PUSH1 0x1 PUSH1 0x1 PUSH1 0xA0 SHL SUB PUSH1 0xC SLOAD AND PUSH1 0x40 MLOAD SWAP1 DUP2 MSTORE RETURN JUMPDEST CALLVALUE PUSH2 0x1CB JUMPI PUSH1 0x20 CALLDATASIZE PUSH1 0x3 NOT ADD SLT PUSH2 0x1CB JUMPI PUSH1 0x20 PUSH2 0x2A39 PUSH1 0x4 CALLDATALOAD PUSH2 0x35F0 JUMP JUMPDEST PUSH1 0x1 PUSH1 0x1 PUSH1 0xA0 SHL SUB PUSH1 0x40 MLOAD SWAP2 AND DUP2 MSTORE RETURN JUMPDEST CALLVALUE PUSH2 0x1CB JUMPI PUSH1 0x0 CALLDATASIZE PUSH1 0x3 NOT ADD SLT PUSH2 0x1CB JUMPI PUSH1 0x20 PUSH1 0xA SLOAD PUSH1 0x40 MLOAD SWAP1 DUP2 MSTORE RETURN JUMPDEST CALLVALUE PUSH2 0x1CB JUMPI PUSH1 0x20 DUP1 PUSH1 0x3 NOT CALLDATASIZE ADD SLT PUSH2 0x1CB JUMPI PUSH1 0x4 CALLDATALOAD SWAP1 DUP2 PUSH1 0x0 MSTORE PUSH1 0x2 DUP2 MSTORE PUSH1 0x1 PUSH1 0x1 PUSH1 0xA0 SHL SUB SWAP1 DUP2 PUSH1 0x40 PUSH1 0x0 KECCAK256 SLOAD AND SWAP2 CALLER ISZERO ISZERO SWAP1 DUP2 PUSH2 0x2B24 JUMPI JUMPDEST POP POP SWAP1 PUSH1 0x2 PUSH1 0x0 SWAP3 DUP3 PUSH2 0x2AEC JUMPI JUMPDEST DUP5 DUP5 MSTORE MSTORE PUSH1 0x40 DUP3 KECCAK256 PUSH1 0x1 PUSH1 0x1 PUSH1 0xA0 SHL SUB NOT DUP2 SLOAD AND SWAP1 SSTORE PUSH32 0xDDF252AD1BE2C89B69C2B068FC378DAA952BA7F163C4A11628F55A4DF523B3EF DUP3 DUP1 LOG4 STOP JUMPDEST PUSH2 0x2B0D DUP6 PUSH1 0x0 MSTORE PUSH1 0x4 PUSH1 0x20 MSTORE PUSH1 0x40 PUSH1 0x0 KECCAK256 PUSH1 0x1 PUSH1 0x1 PUSH1 0xA0 SHL SUB NOT DUP2 SLOAD AND SWAP1 SSTORE JUMP JUMPDEST DUP3 DUP5 MSTORE PUSH1 0x3 DUP2 MSTORE PUSH1 0x40 DUP5 KECCAK256 DUP5 NOT DUP2 SLOAD ADD SWAP1 SSTORE PUSH2 0x2AB0 JUMP JUMPDEST DUP2 PUSH2 0x2B74 JUMPI JUMPDEST POP ISZERO PUSH2 0x2B37 JUMPI DUP4 DUP1 PUSH2 0x2AA2 JUMP JUMPDEST POP PUSH2 0x2B54 JUMPI PUSH1 0x24 SWAP1 PUSH1 0x40 MLOAD SWAP1 PUSH4 0x7E273289 PUSH1 0xE0 SHL DUP3 MSTORE PUSH1 0x4 DUP3 ADD MSTORE REVERT JUMPDEST PUSH1 0x40 MLOAD PUSH4 0x177E802F PUSH1 0xE0 SHL DUP2 MSTORE CALLER PUSH1 0x4 DUP3 ADD MSTORE PUSH1 0x24 DUP2 ADD SWAP2 SWAP1 SWAP2 MSTORE PUSH1 0x44 SWAP1 REVERT JUMPDEST CALLER DUP5 EQ SWAP2 POP DUP2 ISZERO PUSH2 0x2BA8 JUMPI JUMPDEST DUP2 ISZERO PUSH2 0x2B8E JUMPI JUMPDEST POP DUP5 PUSH2 0x2B2A JUMP JUMPDEST SWAP1 POP DUP4 PUSH1 0x0 MSTORE PUSH1 0x4 DUP3 MSTORE CALLER SWAP1 PUSH1 0x40 PUSH1 0x0 KECCAK256 SLOAD AND EQ DUP5 PUSH2 0x2B87 JUMP JUMPDEST SWAP1 POP DUP3 PUSH1 0x0 MSTORE PUSH1 0x5 DUP3 MSTORE PUSH1 0x40 PUSH1 0x0 KECCAK256 CALLER PUSH1 0x0 MSTORE DUP3 MSTORE PUSH1 0xFF PUSH1 0x40 PUSH1 0x0 KECCAK256 SLOAD AND SWAP1 PUSH2 0x2B80 JUMP JUMPDEST CALLVALUE PUSH2 0x1CB JUMPI PUSH2 0x2191 PUSH2 0x2BDD CALLDATASIZE PUSH2 0x310D JUMP JUMPDEST SWAP1 PUSH1 0x40 MLOAD SWAP3 PUSH2 0x2BEB DUP5 PUSH2 0x3199 JUMP JUMPDEST PUSH1 0x0 DUP5 MSTORE PUSH2 0x218B DUP4 DUP4 DUP4 PUSH2 0x3275 JUMP JUMPDEST CALLVALUE PUSH2 0x1CB JUMPI PUSH1 0x0 CALLDATASIZE PUSH1 0x3 NOT ADD SLT PUSH2 0x1CB JUMPI PUSH2 0x2C13 PUSH2 0x362B JUMP JUMPDEST PUSH2 0x2191 SELFBALANCE PUSH1 0x1 PUSH1 0x1 PUSH1 0xA0 SHL SUB PUSH1 0xC SLOAD AND DUP1 PUSH32 0x7FCF532C15F0A6DB0BD6D0E038BEA71D30D808C7D98CB3BF7268A95BF5081B65 PUSH1 0x20 PUSH1 0x40 MLOAD DUP6 DUP2 MSTORE LOG2 PUSH2 0x369F JUMP JUMPDEST CALLVALUE PUSH2 0x1CB JUMPI PUSH1 0x0 CALLDATASIZE PUSH1 0x3 NOT ADD SLT PUSH2 0x1CB JUMPI PUSH1 0x40 MLOAD PUSH1 0xD SLOAD PUSH1 0x0 DUP3 PUSH2 0x2C76 DUP4 PUSH2 0x3142 JUMP JUMPDEST SWAP2 DUP3 DUP3 MSTORE PUSH1 0x20 SWAP4 PUSH1 0x1 SWAP1 DUP6 PUSH1 0x1 DUP3 AND SWAP2 DUP3 PUSH1 0x0 EQ PUSH2 0x27B3 JUMPI POP POP PUSH1 0x1 EQ PUSH2 0x2CA4 JUMPI POP PUSH2 0x2742 SWAP3 POP SUB DUP4 PUSH2 0x3209 JUMP JUMPDEST DUP5 SWAP2 POP PUSH1 0xD PUSH1 0x0 MSTORE PUSH32 0xD7B6990105719101DABEB77144F2A3385C8033ACD3AF97E9423A695E81AD1EB5 SWAP1 PUSH1 0x0 SWAP2 JUMPDEST DUP6 DUP4 LT PUSH2 0x2CE9 JUMPI POP POP PUSH2 0x2742 SWAP4 POP DUP3 ADD ADD DUP6 PUSH2 0x2735 JUMP JUMPDEST DUP1 SLOAD DUP4 DUP10 ADD DUP6 ADD MSTORE DUP8 SWAP5 POP DUP7 SWAP4 SWAP1 SWAP3 ADD SWAP2 DUP2 ADD PUSH2 0x2CD2 JUMP JUMPDEST CALLVALUE PUSH2 0x1CB JUMPI PUSH1 0x40 CALLDATASIZE PUSH1 0x3 NOT ADD SLT PUSH2 0x1CB JUMPI PUSH1 0x4 CALLDATALOAD PUSH1 0x0 MSTORE PUSH1 0x7 PUSH1 0x20 MSTORE PUSH1 0x40 PUSH1 0x0 KECCAK256 SLOAD PUSH1 0x1 PUSH1 0x1 PUSH1 0xA0 SHL SUB DUP1 DUP3 AND SWAP2 PUSH1 0xA0 SHR SWAP1 DUP3 ISZERO PUSH2 0x2D75 JUMPI JUMPDEST POP PUSH2 0x2D58 PUSH12 0xFFFFFFFFFFFFFFFFFFFFFFFF PUSH2 0x2710 SWAP3 AND PUSH1 0x24 CALLDATALOAD PUSH2 0x341C JUMP JUMPDEST PUSH1 0x40 DUP1 MLOAD PUSH1 0x1 PUSH1 0x1 PUSH1 0xA0 SHL SUB SWAP5 SWAP1 SWAP5 AND DUP5 MSTORE SWAP2 SWAP1 DIV PUSH1 0x20 DUP4 ADD MSTORE SWAP1 RETURN JUMPDEST PUSH1 0x6 SLOAD SWAP1 DUP2 AND SWAP3 POP PUSH1 0xA0 SHR SWAP1 POP PUSH2 0x2D58 PUSH2 0x2D3A JUMP JUMPDEST CALLVALUE PUSH2 0x1CB JUMPI PUSH1 0x0 CALLDATASIZE PUSH1 0x3 NOT ADD SLT PUSH2 0x1CB JUMPI PUSH1 0x20 PUSH1 0xFF PUSH1 0xF SLOAD AND PUSH1 0x40 MLOAD SWAP1 ISZERO ISZERO DUP2 MSTORE RETURN JUMPDEST CALLVALUE PUSH2 0x1CB JUMPI PUSH2 0x2191 PUSH2 0x2DBE CALLDATASIZE PUSH2 0x310D JUMP JUMPDEST SWAP2 PUSH2 0x3275 JUMP JUMPDEST CALLVALUE PUSH2 0x1CB JUMPI PUSH1 0x40 CALLDATASIZE PUSH1 0x3 NOT ADD SLT PUSH2 0x1CB JUMPI PUSH2 0x2DDD PUSH2 0x30E1 JUMP JUMPDEST PUSH1 0x24 CALLDATALOAD PUSH2 0x2DE9 DUP2 PUSH2 0x35F0 JUMP JUMPDEST CALLER ISZERO ISZERO DUP1 PUSH2 0x2EB2 JUMPI JUMPDEST DUP1 PUSH2 0x2E84 JUMPI JUMPDEST PUSH2 0x2E54 JUMPI DUP2 SWAP1 PUSH1 0x1 PUSH1 0x1 PUSH1 0xA0 SHL SUB DUP1 SWAP5 AND SWAP4 DUP5 SWAP2 AND PUSH32 0x8C5BE1E5EBEC7D5BD14F71427D1E84F3DD0314C0F7B2291E5B200AC8C7C3B925 PUSH1 0x0 DUP1 LOG4 PUSH1 0x0 MSTORE PUSH1 0x4 PUSH1 0x20 MSTORE PUSH1 0x40 PUSH1 0x0 KECCAK256 SWAP1 PUSH1 0x1 PUSH1 0x1 PUSH1 0xA0 SHL SUB NOT DUP3 SLOAD AND OR SWAP1 SSTORE PUSH1 0x0 DUP1 RETURN JUMPDEST PUSH1 0x24 PUSH1 0x40 MLOAD PUSH32 0xA9FBF51F00000000000000000000000000000000000000000000000000000000 DUP2 MSTORE CALLER PUSH1 0x4 DUP3 ADD MSTORE REVERT JUMPDEST POP PUSH1 0x1 PUSH1 0x1 PUSH1 0xA0 SHL SUB DUP2 AND PUSH1 0x0 MSTORE PUSH1 0x5 PUSH1 0x20 MSTORE PUSH1 0x40 PUSH1 0x0 KECCAK256 CALLER PUSH1 0x0 MSTORE PUSH1 0x20 MSTORE PUSH1 0xFF PUSH1 0x40 PUSH1 0x0 KECCAK256 SLOAD AND ISZERO PUSH2 0x2DF8 JUMP JUMPDEST POP CALLER PUSH1 0x1 PUSH1 0x1 PUSH1 0xA0 SHL SUB DUP3 AND EQ ISZERO PUSH2 0x2DF2 JUMP JUMPDEST CALLVALUE PUSH2 0x1CB JUMPI PUSH1 0x20 CALLDATASIZE PUSH1 0x3 NOT ADD SLT PUSH2 0x1CB JUMPI PUSH1 0x4 CALLDATALOAD PUSH2 0x2EE2 DUP2 PUSH2 0x35F0 JUMP JUMPDEST POP PUSH1 0x0 MSTORE PUSH1 0x4 PUSH1 0x20 MSTORE PUSH1 0x20 PUSH1 0x1 PUSH1 0x1 PUSH1 0xA0 SHL SUB PUSH1 0x40 PUSH1 0x0 KECCAK256 SLOAD AND PUSH1 0x40 MLOAD SWAP1 DUP2 MSTORE RETURN JUMPDEST CALLVALUE PUSH2 0x1CB JUMPI PUSH1 0x0 CALLDATASIZE PUSH1 0x3 NOT ADD SLT PUSH2 0x1CB JUMPI PUSH1 0x40 MLOAD PUSH1 0x0 DUP1 SLOAD SWAP1 DUP3 PUSH2 0x2F27 DUP4 PUSH2 0x3142 JUMP JUMPDEST SWAP2 DUP3 DUP3 MSTORE PUSH1 0x20 SWAP4 PUSH1 0x1 SWAP1 DUP6 PUSH1 0x1 DUP3 AND SWAP2 DUP3 PUSH1 0x0 EQ PUSH2 0x27B3 JUMPI POP POP PUSH1 0x1 EQ PUSH2 0x2F55 JUMPI POP PUSH2 0x2742 SWAP3 POP SUB DUP4 PUSH2 0x3209 JUMP JUMPDEST PUSH1 0x0 DUP1 DUP1 MSTORE DUP6 SWAP3 POP SWAP1 PUSH32 0x290DECD9548B62A8D60345A988386FC84BA6BC95484008F6362F93160EF3E563 JUMPDEST DUP6 DUP4 LT PUSH2 0x2F97 JUMPI POP POP PUSH2 0x2742 SWAP4 POP DUP3 ADD ADD DUP6 PUSH2 0x2735 JUMP JUMPDEST DUP1 SLOAD DUP4 DUP10 ADD DUP6 ADD MSTORE DUP8 SWAP5 POP DUP7 SWAP4 SWAP1 SWAP3 ADD SWAP2 DUP2 ADD PUSH2 0x2F80 JUMP JUMPDEST CALLVALUE PUSH2 0x1CB JUMPI PUSH1 0x20 CALLDATASIZE PUSH1 0x3 NOT ADD SLT PUSH2 0x1CB JUMPI PUSH1 0x4 CALLDATALOAD SWAP1 PUSH1 0x1 PUSH1 0x1 PUSH1 0xE0 SHL SUB NOT DUP3 AND DUP1 SWAP3 SUB PUSH2 0x1CB JUMPI DUP2 PUSH32 0x2A55205A00000000000000000000000000000000000000000000000000000000 PUSH1 0x20 SWAP4 EQ SWAP1 DUP2 ISZERO PUSH2 0x300B JUMPI JUMPDEST POP ISZERO ISZERO DUP2 MSTORE RETURN JUMPDEST PUSH32 0x80AC58CD00000000000000000000000000000000000000000000000000000000 DUP2 EQ SWAP2 POP DUP2 ISZERO PUSH2 0x306F JUMPI JUMPDEST DUP2 ISZERO PUSH2 0x3045 JUMPI JUMPDEST POP DUP4 PUSH2 0x3004 JUMP JUMPDEST PUSH32 0x1FFC9A700000000000000000000000000000000000000000000000000000000 SWAP2 POP EQ DUP4 PUSH2 0x303E JUMP JUMPDEST PUSH32 0x5B5E139F00000000000000000000000000000000000000000000000000000000 DUP2 EQ SWAP2 POP PUSH2 0x3037 JUMP JUMPDEST PUSH1 0x0 JUMPDEST DUP4 DUP2 LT PUSH2 0x30AC JUMPI POP POP PUSH1 0x0 SWAP2 ADD MSTORE JUMP JUMPDEST DUP2 DUP2 ADD MLOAD DUP4 DUP3 ADD MSTORE PUSH1 0x20 ADD PUSH2 0x309C JUMP JUMPDEST SWAP1 PUSH1 0x20 SWAP2 PUSH2 0x30D5 DUP2 MLOAD DUP1 SWAP3 DUP2 DUP6 MSTORE DUP6 DUP1 DUP7 ADD SWAP2 ADD PUSH2 0x3099 JUMP JUMPDEST PUSH1 0x1F ADD PUSH1 0x1F NOT AND ADD ADD SWAP1 JUMP JUMPDEST PUSH1 0x4 CALLDATALOAD SWAP1 PUSH1 0x1 PUSH1 0x1 PUSH1 0xA0 SHL SUB DUP3 AND DUP3 SUB PUSH2 0x1CB JUMPI JUMP JUMPDEST PUSH1 0x24 CALLDATALOAD SWAP1 PUSH1 0x1 PUSH1 0x1 PUSH1 0xA0 SHL SUB DUP3 AND DUP3 SUB PUSH2 0x1CB JUMPI JUMP JUMPDEST PUSH1 0x60 SWAP1 PUSH1 0x3 NOT ADD SLT PUSH2 0x1CB JUMPI PUSH1 0x1 PUSH1 0x1 PUSH1 0xA0 SHL SUB SWAP1 PUSH1 0x4 CALLDATALOAD DUP3 DUP2 AND DUP2 SUB PUSH2 0x1CB JUMPI SWAP2 PUSH1 0x24 CALLDATALOAD SWAP1 DUP2 AND DUP2 SUB PUSH2 0x1CB JUMPI SWAP1 PUSH1 0x44 CALLDATALOAD SWAP1 JUMP JUMPDEST SWAP1 PUSH1 0x1 DUP3 DUP2 SHR SWAP3 AND DUP1 ISZERO PUSH2 0x3172 JUMPI JUMPDEST PUSH1 0x20 DUP4 LT EQ PUSH2 0x315C JUMPI JUMP JUMPDEST PUSH4 0x4E487B71 PUSH1 0xE0 SHL PUSH1 0x0 MSTORE PUSH1 0x22 PUSH1 0x4 MSTORE PUSH1 0x24 PUSH1 0x0 REVERT JUMPDEST SWAP2 PUSH1 0x7F AND SWAP2 PUSH2 0x3151 JUMP JUMPDEST PUSH2 0x100 DUP2 ADD SWAP1 DUP2 LT PUSH8 0xFFFFFFFFFFFFFFFF DUP3 GT OR PUSH2 0x1FF3 JUMPI PUSH1 0x40 MSTORE JUMP JUMPDEST PUSH1 0x20 DUP2 ADD SWAP1 DUP2 LT PUSH8 0xFFFFFFFFFFFFFFFF DUP3 GT OR PUSH2 0x1FF3 JUMPI PUSH1 0x40 MSTORE JUMP JUMPDEST PUSH1 0x40 DUP2 ADD SWAP1 DUP2 LT PUSH8 0xFFFFFFFFFFFFFFFF DUP3 GT OR PUSH2 0x1FF3 JUMPI PUSH1 0x40 MSTORE JUMP JUMPDEST PUSH1 0x60 DUP2 ADD SWAP1 DUP2 LT PUSH8 0xFFFFFFFFFFFFFFFF DUP3 GT OR PUSH2 0x1FF3 JUMPI PUSH1 0x40 MSTORE JUMP JUMPDEST PUSH1 0x80 DUP2 ADD SWAP1 DUP2 LT PUSH8 0xFFFFFFFFFFFFFFFF DUP3 GT OR PUSH2 0x1FF3 JUMPI PUSH1 0x40 MSTORE JUMP JUMPDEST SWAP1 PUSH1 0x1F DUP1 NOT SWAP2 ADD AND DUP2 ADD SWAP1 DUP2 LT PUSH8 0xFFFFFFFFFFFFFFFF DUP3 GT OR PUSH2 0x1FF3 JUMPI PUSH1 0x40 MSTORE JUMP JUMPDEST PUSH8 0xFFFFFFFFFFFFFFFF DUP2 GT PUSH2 0x1FF3 JUMPI PUSH1 0x1F ADD PUSH1 0x1F NOT AND PUSH1 0x20 ADD SWAP1 JUMP JUMPDEST SWAP2 DUP2 PUSH1 0x1F DUP5 ADD SLT ISZERO PUSH2 0x1CB JUMPI DUP3 CALLDATALOAD SWAP2 PUSH8 0xFFFFFFFFFFFFFFFF DUP4 GT PUSH2 0x1CB JUMPI PUSH1 0x20 DUP4 DUP2 DUP7 ADD SWAP6 ADD ADD GT PUSH2 0x1CB JUMPI JUMP JUMPDEST SWAP1 SWAP2 PUSH1 0x1 PUSH1 0x1 PUSH1 0xA0 SHL SUB DUP1 SWAP4 AND SWAP3 DUP4 ISZERO PUSH2 0x2591 JUMPI PUSH1 0x0 SWAP3 DUP3 DUP5 MSTORE DUP3 PUSH1 0x20 SWAP6 PUSH1 0x2 DUP8 MSTORE PUSH1 0x40 SWAP7 DUP5 DUP9 DUP9 KECCAK256 SLOAD AND SWAP7 DUP8 SWAP2 CALLER ISZERO ISZERO DUP1 PUSH2 0x3383 JUMPI JUMPDEST POP SWAP1 PUSH1 0x2 PUSH32 0xDDF252AD1BE2C89B69C2B068FC378DAA952BA7F163C4A11628F55A4DF523B3EF SWAP3 DUP5 PUSH2 0x334B JUMPI JUMPDEST DUP6 DUP4 MSTORE PUSH1 0x3 DUP2 MSTORE DUP12 DUP4 KECCAK256 PUSH1 0x1 DUP2 SLOAD ADD SWAP1 SSTORE DUP7 DUP4 MSTORE MSTORE DUP10 DUP2 KECCAK256 DUP5 PUSH1 0x1 PUSH1 0x1 PUSH1 0xA0 SHL SUB NOT DUP3 SLOAD AND OR SWAP1 SSTORE DUP1 LOG4 AND SWAP3 DUP4 DUP4 SUB PUSH2 0x3311 JUMPI POP POP POP POP JUMP JUMPDEST PUSH1 0x64 SWAP5 POP MLOAD SWAP3 PUSH32 0x64283D7B00000000000000000000000000000000000000000000000000000000 DUP5 MSTORE PUSH1 0x4 DUP5 ADD MSTORE PUSH1 0x24 DUP4 ADD MSTORE PUSH1 0x44 DUP3 ADD MSTORE REVERT JUMPDEST PUSH2 0x336C DUP8 PUSH1 0x0 MSTORE PUSH1 0x4 PUSH1 0x20 MSTORE PUSH1 0x40 PUSH1 0x0 KECCAK256 PUSH1 0x1 PUSH1 0x1 PUSH1 0xA0 SHL SUB NOT DUP2 SLOAD AND SWAP1 SSTORE JUMP JUMPDEST DUP5 DUP4 MSTORE PUSH1 0x3 DUP2 MSTORE DUP12 DUP4 KECCAK256 DUP1 SLOAD PUSH1 0x0 NOT ADD SWAP1 SSTORE PUSH2 0x32D8 JUMP JUMPDEST SWAP2 SWAP4 SWAP5 POP SWAP2 POP DUP1 PUSH2 0x33DB JUMPI JUMPDEST ISZERO PUSH2 0x339F JUMPI DUP6 SWAP3 SWAP2 DUP8 SWAP2 CODESIZE PUSH2 0x32AC JUMP JUMPDEST DUP8 DUP7 DUP9 PUSH2 0x33BC JUMPI PUSH1 0x24 SWAP2 MLOAD SWAP1 PUSH4 0x7E273289 PUSH1 0xE0 SHL DUP3 MSTORE PUSH1 0x4 DUP3 ADD MSTORE REVERT JUMPDEST SWAP1 MLOAD PUSH4 0x177E802F PUSH1 0xE0 SHL DUP2 MSTORE CALLER PUSH1 0x4 DUP3 ADD MSTORE PUSH1 0x24 DUP2 ADD SWAP2 SWAP1 SWAP2 MSTORE PUSH1 0x44 SWAP1 REVERT JUMPDEST POP CALLER DUP8 EQ DUP1 ISZERO PUSH2 0x3400 JUMPI JUMPDEST DUP1 PUSH2 0x338F JUMPI POP DUP6 DUP3 MSTORE PUSH1 0x4 DUP2 MSTORE CALLER DUP6 DUP10 DUP5 KECCAK256 SLOAD AND EQ PUSH2 0x338F JUMP JUMPDEST POP DUP7 DUP3 MSTORE PUSH1 0x5 DUP2 MSTORE DUP8 DUP3 KECCAK256 CALLER DUP4 MSTORE DUP2 MSTORE PUSH1 0xFF DUP9 DUP4 KECCAK256 SLOAD AND PUSH2 0x33E6 JUMP JUMPDEST DUP2 DUP2 MUL SWAP3 SWAP2 DUP2 ISZERO SWAP2 DUP5 DIV EQ OR ISZERO PUSH2 0x1D11 JUMPI JUMP JUMPDEST SWAP1 DUP1 PUSH1 0x20 SWAP4 SWAP3 DUP2 DUP5 MSTORE DUP5 DUP5 ADD CALLDATACOPY PUSH1 0x0 DUP3 DUP3 ADD DUP5 ADD MSTORE PUSH1 0x1F ADD PUSH1 0x1F NOT AND ADD ADD SWAP1 JUMP JUMPDEST ISZERO PUSH2 0x3457 JUMPI JUMP JUMPDEST PUSH1 0x64 PUSH1 0x40 MLOAD PUSH3 0x461BCD PUSH1 0xE5 SHL DUP2 MSTORE PUSH1 0x20 PUSH1 0x4 DUP3 ADD MSTORE PUSH1 0x2 PUSH1 0x24 DUP3 ADD MSTORE PUSH32 0x4E41000000000000000000000000000000000000000000000000000000000000 PUSH1 0x44 DUP3 ADD MSTORE REVERT JUMPDEST PUSH1 0x65 PUSH2 0x34CA PUSH1 0xFF SWAP3 DUP1 PUSH1 0x0 MSTORE PUSH1 0x2 PUSH1 0x20 MSTORE PUSH2 0x34C5 PUSH1 0x1 PUSH1 0x1 PUSH1 0xA0 SHL SUB PUSH1 0x40 PUSH1 0x0 KECCAK256 SLOAD AND ISZERO ISZERO PUSH2 0x3450 JUMP JUMPDEST PUSH2 0x385E JUMP JUMPDEST MOD AND PUSH1 0x8 DUP2 LT PUSH2 0x34D7 JUMPI SWAP1 JUMP JUMPDEST PUSH1 0x8 ADD PUSH1 0xFF DUP2 GT PUSH2 0x1D11 JUMPI SWAP1 JUMP JUMPDEST PUSH1 0xD SLOAD PUSH1 0x0 SWAP3 SWAP2 PUSH2 0x34F5 DUP3 PUSH2 0x3142 JUMP JUMPDEST SWAP2 PUSH1 0x1 SWAP1 DUP2 DUP2 AND SWAP1 DUP2 ISZERO PUSH2 0x3561 JUMPI POP PUSH1 0x1 EQ PUSH2 0x3510 JUMPI POP POP POP JUMP JUMPDEST SWAP1 SWAP2 SWAP3 SWAP4 POP PUSH1 0xD PUSH1 0x0 MSTORE PUSH32 0xD7B6990105719101DABEB77144F2A3385C8033ACD3AF97E9423A695E81AD1EB5 SWAP1 PUSH1 0x0 SWAP2 JUMPDEST DUP5 DUP4 LT PUSH2 0x354E JUMPI POP POP POP ADD SWAP1 JUMP JUMPDEST DUP2 DUP2 PUSH1 0x20 SWAP3 SLOAD DUP6 DUP8 ADD MSTORE ADD SWAP3 ADD SWAP2 PUSH2 0x3540 JUMP JUMPDEST PUSH1 0xFF NOT AND DUP4 MSTORE POP POP DUP2 ISZERO ISZERO SWAP1 SWAP2 MUL ADD SWAP2 POP JUMP JUMPDEST PUSH1 0xE SLOAD PUSH1 0x0 SWAP3 SWAP2 PUSH2 0x3584 DUP3 PUSH2 0x3142 JUMP JUMPDEST SWAP2 PUSH1 0x1 SWAP1 DUP2 DUP2 AND SWAP1 DUP2 ISZERO PUSH2 0x3561 JUMPI POP PUSH1 0x1 EQ PUSH2 0x359F JUMPI POP POP POP JUMP JUMPDEST SWAP1 SWAP2 SWAP3 SWAP4 POP PUSH1 0xE PUSH1 0x0 MSTORE PUSH32 0xBB7B4A454DC3493923482F07822329ED19E8244EFF582CC204F8554C3620C3FD SWAP1 PUSH1 0x0 SWAP2 JUMPDEST DUP5 DUP4 LT PUSH2 0x35DD JUMPI POP POP POP ADD SWAP1 JUMP JUMPDEST DUP2 DUP2 PUSH1 0x20 SWAP3 SLOAD DUP6 DUP8 ADD MSTORE ADD SWAP3 ADD SWAP2 PUSH2 0x35CF JUMP JUMPDEST DUP1 PUSH1 0x0 MSTORE PUSH1 0x2 PUSH1 0x20 MSTORE PUSH1 0x1 PUSH1 0x1 PUSH1 0xA0 SHL SUB PUSH1 0x40 PUSH1 0x0 KECCAK256 SLOAD AND SWAP1 DUP2 ISZERO PUSH2 0x3613 JUMPI POP SWAP1 JUMP JUMPDEST PUSH1 0x24 SWAP1 PUSH1 0x40 MLOAD SWAP1 PUSH4 0x7E273289 PUSH1 0xE0 SHL DUP3 MSTORE PUSH1 0x4 DUP3 ADD MSTORE REVERT JUMPDEST PUSH1 0x1 PUSH1 0x1 PUSH1 0xA0 SHL SUB PUSH1 0x8 SLOAD AND CALLER SUB PUSH2 0x363F JUMPI JUMP JUMPDEST PUSH1 0x24 PUSH1 0x40 MLOAD PUSH32 0x118CDAA700000000000000000000000000000000000000000000000000000000 DUP2 MSTORE CALLER PUSH1 0x4 DUP3 ADD MSTORE REVERT JUMPDEST RETURNDATASIZE ISZERO PUSH2 0x369A JUMPI RETURNDATASIZE SWAP1 PUSH2 0x3680 DUP3 PUSH2 0x322B JUMP JUMPDEST SWAP2 PUSH2 0x368E PUSH1 0x40 MLOAD SWAP4 DUP5 PUSH2 0x3209 JUMP JUMPDEST DUP3 MSTORE RETURNDATASIZE PUSH1 0x0 PUSH1 0x20 DUP5 ADD RETURNDATACOPY JUMP JUMPDEST PUSH1 0x60 SWAP1 JUMP JUMPDEST DUP2 SELFBALANCE LT PUSH2 0x3702 JUMPI PUSH1 0x0 DUP1 DUP1 SWAP4 PUSH1 0x1 PUSH1 0x1 PUSH1 0xA0 SHL SUB DUP3 SWAP5 AND GAS CALL PUSH2 0x36C0 PUSH2 0x366F JUMP JUMPDEST SWAP1 ISZERO PUSH2 0x36C9 JUMPI POP JUMP JUMPDEST DUP1 MLOAD ISZERO PUSH2 0x36D8 JUMPI PUSH1 0x20 DUP2 MLOAD SWAP2 ADD REVERT JUMPDEST PUSH1 0x4 PUSH1 0x40 MLOAD PUSH32 0xD6BDA27500000000000000000000000000000000000000000000000000000000 DUP2 MSTORE REVERT JUMPDEST PUSH1 0x44 DUP3 SELFBALANCE SWAP1 PUSH1 0x40 MLOAD SWAP2 PUSH32 0xCF47918100000000000000000000000000000000000000000000000000000000 DUP4 MSTORE PUSH1 0x4 DUP4 ADD MSTORE PUSH1 0x24 DUP3 ADD MSTORE REVERT JUMPDEST SWAP3 SWAP4 DUP3 EXTCODESIZE PUSH2 0x374A JUMPI JUMPDEST POP POP POP POP POP JUMP JUMPDEST PUSH2 0x378F SWAP1 PUSH1 0x1 PUSH1 0x1 PUSH1 0xA0 SHL SUB DUP1 SWAP5 AND SWAP6 PUSH1 0x40 MLOAD SWAP5 DUP6 SWAP5 DUP2 PUSH4 0xA85BD01 PUSH1 0xE1 SHL SWAP9 DUP10 DUP9 MSTORE AND PUSH1 0x4 DUP8 ADD MSTORE AND PUSH1 0x24 DUP6 ADD MSTORE PUSH1 0x44 DUP5 ADD MSTORE PUSH1 0x80 PUSH1 0x64 DUP5 ADD MSTORE PUSH1 0x84 DUP4 ADD SWAP1 PUSH2 0x30BC JUMP JUMPDEST SUB SWAP1 PUSH1 0x20 DUP2 PUSH1 0x0 SWAP4 DUP2 DUP6 DUP9 GAS CALL SWAP1 DUP3 SWAP1 DUP3 PUSH2 0x380E JUMPI JUMPDEST POP POP PUSH2 0x37DC JUMPI DUP3 PUSH2 0x37B4 PUSH2 0x366F JUMP JUMPDEST DUP1 MLOAD SWAP2 SWAP1 DUP3 PUSH2 0x37D5 JUMPI PUSH1 0x24 DUP3 PUSH1 0x40 MLOAD SWAP1 PUSH4 0x32505749 PUSH1 0xE1 SHL DUP3 MSTORE PUSH1 0x4 DUP3 ADD MSTORE REVERT JUMPDEST PUSH1 0x20 SWAP2 POP ADD REVERT JUMPDEST PUSH1 0x1 PUSH1 0x1 PUSH1 0xE0 SHL SUB NOT AND SUB PUSH2 0x37F6 JUMPI POP CODESIZE DUP1 DUP1 DUP1 DUP1 PUSH2 0x3743 JUMP JUMPDEST PUSH1 0x24 SWAP1 PUSH1 0x40 MLOAD SWAP1 PUSH4 0x32505749 PUSH1 0xE1 SHL DUP3 MSTORE PUSH1 0x4 DUP3 ADD MSTORE REVERT JUMPDEST SWAP1 SWAP2 SWAP3 POP PUSH1 0x20 DUP2 RETURNDATASIZE PUSH1 0x20 GT PUSH2 0x3856 JUMPI JUMPDEST DUP2 PUSH2 0x382B PUSH1 0x20 SWAP4 DUP4 PUSH2 0x3209 JUMP JUMPDEST DUP2 ADD SUB SLT PUSH2 0x3852 JUMPI MLOAD SWAP1 PUSH1 0x1 PUSH1 0x1 PUSH1 0xE0 SHL SUB NOT DUP3 AND DUP3 SUB PUSH2 0x384F JUMPI POP SWAP1 CODESIZE DUP1 PUSH2 0x37A5 JUMP JUMPDEST DUP1 REVERT JUMPDEST POP DUP1 REVERT JUMPDEST RETURNDATASIZE SWAP2 POP PUSH2 0x381E JUMP JUMPDEST PUSH1 0x40 MLOAD PUSH1 0x20 DUP2 ADD SWAP2 ADDRESS PUSH1 0x60 SHL DUP4 MSTORE PUSH1 0x34 DUP3 ADD MSTORE CHAINID PUSH1 0x54 DUP3 ADD MSTORE PUSH1 0x54 DUP2 MSTORE PUSH2 0x3884 DUP2 PUSH2 0x31ED JUMP JUMPDEST MLOAD SWAP1 KECCAK256 SWAP1 JUMP JUMPDEST SWAP1 PUSH1 0x8 DUP2 LT ISZERO PUSH2 0x389B JUMPI PUSH1 0x5 SHL ADD SWAP1 JUMP JUMPDEST PUSH4 0x4E487B71 PUSH1 0xE0 SHL PUSH1 0x0 MSTORE PUSH1 0x32 PUSH1 0x4 MSTORE PUSH1 0x24 PUSH1 0x0 REVERT JUMPDEST PUSH1 0xFF AND PUSH1 0x5A DUP2 LT ISZERO PUSH2 0x39BD JUMPI PUSH1 0x46 DUP2 LT ISZERO PUSH2 0x3983 JUMPI PUSH1 0x32 DUP2 LT ISZERO PUSH2 0x3949 JUMPI PUSH1 0x1E GT ISZERO PUSH2 0x3910 JUMPI PUSH1 0x40 MLOAD PUSH2 0x38E3 DUP2 PUSH2 0x31B5 JUMP JUMPDEST PUSH1 0x3 DUP2 MSTORE PUSH32 0x5261770000000000000000000000000000000000000000000000000000000000 PUSH1 0x20 DUP3 ADD MSTORE SWAP1 JUMP JUMPDEST PUSH1 0x40 MLOAD PUSH2 0x391C DUP2 PUSH2 0x31B5 JUMP JUMPDEST PUSH1 0x5 DUP2 MSTORE PUSH32 0x54616E6779000000000000000000000000000000000000000000000000000000 PUSH1 0x20 DUP3 ADD MSTORE SWAP1 JUMP JUMPDEST POP PUSH1 0x40 MLOAD PUSH2 0x3956 DUP2 PUSH2 0x31B5 JUMP JUMPDEST PUSH1 0x5 DUP2 MSTORE PUSH32 0x4A75696379000000000000000000000000000000000000000000000000000000 PUSH1 0x20 DUP3 ADD MSTORE SWAP1 JUMP JUMPDEST POP PUSH1 0x40 MLOAD PUSH2 0x3990 DUP2 PUSH2 0x31B5 JUMP JUMPDEST PUSH1 0x5 DUP2 MSTORE PUSH32 0x5072696D65000000000000000000000000000000000000000000000000000000 PUSH1 0x20 DUP3 ADD MSTORE SWAP1 JUMP JUMPDEST POP PUSH1 0x40 MLOAD PUSH2 0x39CA DUP2 PUSH2 0x31B5 JUMP JUMPDEST PUSH1 0x9 DUP2 MSTORE PUSH32 0x4C6567656E646172790000000000000000000000000000000000000000000000 PUSH1 0x20 DUP3 ADD MSTORE SWAP1 JUMP JUMPDEST SWAP1 PUSH2 0x3A01 DUP3 PUSH2 0x322B JUMP JUMPDEST PUSH2 0x3A0E PUSH1 0x40 MLOAD SWAP2 DUP3 PUSH2 0x3209 JUMP JUMPDEST DUP3 DUP2 MSTORE DUP1 SWAP3 PUSH2 0x3A1F PUSH1 0x1F NOT SWAP2 PUSH2 0x322B JUMP JUMPDEST ADD SWAP1 PUSH1 0x20 CALLDATASIZE SWAP2 ADD CALLDATACOPY JUMP JUMPDEST DUP1 PUSH1 0x0 SWAP2 PUSH27 0x184F03E93FF9F4DAA797ED6E38ED64BF6A1F010000000000000000 DUP1 DUP3 LT ISZERO PUSH2 0x3B6C JUMPI JUMPDEST POP PUSH14 0x4EE2D6D415B85ACEF8100000000 DUP1 DUP4 LT ISZERO PUSH2 0x3B5D JUMPI JUMPDEST POP PUSH7 0x2386F26FC10000 DUP1 DUP4 LT ISZERO PUSH2 0x3B4E JUMPI JUMPDEST POP PUSH4 0x5F5E100 DUP1 DUP4 LT ISZERO PUSH2 0x3B3F JUMPI JUMPDEST POP PUSH2 0x2710 DUP1 DUP4 LT ISZERO PUSH2 0x3B30 JUMPI JUMPDEST POP PUSH1 0x64 DUP3 LT ISZERO PUSH2 0x3B20 JUMPI JUMPDEST PUSH1 0xA DUP1 SWAP3 LT ISZERO PUSH2 0x3B16 JUMPI JUMPDEST PUSH1 0x1 SWAP1 DUP2 PUSH1 0x21 PUSH2 0x3AC1 PUSH1 0x1 DUP8 ADD PUSH2 0x39F7 JUMP JUMPDEST SWAP6 DUP7 ADD ADD SWAP1 JUMPDEST PUSH2 0x3AD3 JUMPI JUMPDEST POP POP POP POP SWAP1 JUMP JUMPDEST PUSH1 0x0 NOT ADD SWAP1 DUP4 SWAP1 PUSH32 0x3031323334353637383961626364656600000000000000000000000000000000 DUP3 DUP3 MOD BYTE DUP4 MSTORE8 DIV SWAP2 DUP3 ISZERO PUSH2 0x3B11 JUMPI SWAP2 SWAP1 DUP3 PUSH2 0x3AC7 JUMP JUMPDEST PUSH2 0x3ACC JUMP JUMPDEST SWAP2 PUSH1 0x1 ADD SWAP2 PUSH2 0x3AAF JUMP JUMPDEST SWAP2 SWAP1 PUSH1 0x64 PUSH1 0x2 SWAP2 DIV SWAP2 ADD SWAP2 PUSH2 0x3AA4 JUMP JUMPDEST PUSH1 0x4 SWAP2 SWAP4 SWAP3 DIV SWAP2 ADD SWAP2 CODESIZE PUSH2 0x3A99 JUMP JUMPDEST PUSH1 0x8 SWAP2 SWAP4 SWAP3 DIV SWAP2 ADD SWAP2 CODESIZE PUSH2 0x3A8C JUMP JUMPDEST PUSH1 0x10 SWAP2 SWAP4 SWAP3 DIV SWAP2 ADD SWAP2 CODESIZE PUSH2 0x3A7D JUMP JUMPDEST PUSH1 0x20 SWAP2 SWAP4 SWAP3 DIV SWAP2 ADD SWAP2 CODESIZE PUSH2 0x3A6B JUMP JUMPDEST PUSH1 0x40 SWAP4 POP DUP2 DIV SWAP2 POP CODESIZE PUSH2 0x3A52 JUMP JUMPDEST PUSH1 0x40 MLOAD SWAP1 PUSH2 0x3B87 DUP3 PUSH2 0x31D1 JUMP JUMPDEST PUSH1 0x40 DUP3 MSTORE PUSH32 0x6768696A6B6C6D6E6F707172737475767778797A303132333435363738392B2F PUSH1 0x40 DUP4 PUSH32 0x4142434445464748494A4B4C4D4E4F505152535455565758595A616263646566 PUSH1 0x20 DUP3 ADD MSTORE ADD MSTORE JUMP JUMPDEST DUP1 MLOAD PUSH1 0x20 SWAP2 DUP3 ADD KECCAK256 PUSH32 0x7363A24996DE434FC886F1474DD74D955980FA72B926B9C955F94F6698EBF686 DUP2 SUB PUSH2 0x3C41 JUMPI POP PUSH32 0x4D3530302C323430204C3332302C373230204C3638302C373230205A00000000 PUSH1 0x40 MLOAD SWAP2 PUSH2 0x3C37 DUP4 PUSH2 0x31B5 JUMP JUMPDEST PUSH1 0x1C DUP4 MSTORE DUP3 ADD MSTORE SWAP1 JUMP JUMPDEST PUSH32 0x1242766C8824991355AAADEC4D656D943025E70FE896230AF412F93B3F92BA08 DUP2 SUB PUSH2 0x3CC7 JUMPI POP PUSH32 0x4D3530302C323430204C3330302C353230204C3530302C383030204C3730302C PUSH1 0x40 MLOAD SWAP2 PUSH2 0x3C97 DUP4 PUSH2 0x31D1 JUMP JUMPDEST PUSH1 0x25 DUP4 MSTORE DUP3 ADD MSTORE PUSH32 0x353230205A000000000000000000000000000000000000000000000000000000 PUSH1 0x40 DUP3 ADD MSTORE SWAP1 JUMP JUMPDEST PUSH32 0x1664B525956D22F8F0AD35BD22F34261DF9B15FC7BA28020F9866AC08CBBC90F DUP2 SUB PUSH2 0x3D73 JUMPI POP PUSH32 0x4D3530302C32363020433336302C333030203332302C353630203436302C3732 PUSH1 0x40 MLOAD SWAP2 PUSH2 0x3D1D DUP4 PUSH2 0x31ED JUMP JUMPDEST PUSH1 0x55 DUP4 MSTORE DUP3 ADD MSTORE PUSH32 0x3020433538302C383230203732302C373030203730302C35323020433638302C PUSH1 0x40 DUP3 ADD MSTORE PUSH32 0x333630203634302C333030203530302C323630205A0000000000000000000000 PUSH1 0x60 DUP3 ADD MSTORE SWAP1 JUMP JUMPDEST PUSH32 0xFFC66C8548BC388F0156D76251A192B57D2601764D8478982E579B825596B8BC SUB PUSH2 0x3E1D JUMPI PUSH32 0x4D3530302C323430204C3534302C343230204C3732302C343230204C3538302C PUSH1 0x40 MLOAD SWAP2 PUSH2 0x3DC7 DUP4 PUSH2 0x31ED JUMP JUMPDEST PUSH1 0x5B DUP4 MSTORE DUP3 ADD MSTORE PUSH32 0x353230204C3632302C373030204C3530302C363030204C3338302C373030204C PUSH1 0x40 DUP3 ADD MSTORE PUSH32 0x3432302C353230204C3238302C343230204C3436302C343230205A0000000000 PUSH1 0x60 DUP3 ADD MSTORE SWAP1 JUMP JUMPDEST PUSH1 0x40 MLOAD SWAP1 PUSH1 0xA0 DUP3 ADD SWAP1 DUP3 DUP3 LT PUSH8 0xFFFFFFFFFFFFFFFF DUP4 GT OR PUSH2 0x1FF3 JUMPI PUSH32 0x4D3530302C323430204C3536302C343230204C3732302C333830204C3630302C SWAP2 PUSH1 0x40 MSTORE PUSH1 0x6D DUP4 MSTORE DUP3 ADD MSTORE PUSH32 0x353030204C3732302C363230204C3536302C353830204C3530302C373630204C PUSH1 0x40 DUP3 ADD MSTORE PUSH32 0x3434302C353830204C3238302C363230204C3430302C353030204C3238302C33 PUSH1 0x60 DUP3 ADD MSTORE PUSH32 0x3830204C3434302C343230205A00000000000000000000000000000000000000 PUSH1 0x80 DUP3 ADD MSTORE SWAP1 JUMP JUMPDEST SWAP2 SWAP1 SWAP2 DUP1 MLOAD ISZERO PUSH2 0x3FDF JUMPI DUP1 MLOAD SWAP3 PUSH1 0x2 SWAP2 PUSH1 0x2 DUP6 ADD DUP1 SWAP6 GT PUSH2 0x1D11 JUMPI PUSH1 0x3 DUP1 SWAP6 DIV PUSH32 0x3FFFFFFFFFFFFFFFFFFFFFFFFFFFFFFFFFFFFFFFFFFFFFFFFFFFFFFFFFFFFFFF DUP2 AND DUP2 SUB PUSH2 0x1D11 JUMPI PUSH2 0x3F32 SWAP1 PUSH1 0x2 SWAP7 SWAP5 SWAP7 SHL PUSH2 0x39F7 JUMP JUMPDEST SWAP3 PUSH1 0x20 DUP5 ADD SWAP3 DUP3 SWAP2 DUP4 MLOAD DUP5 ADD SWAP8 PUSH1 0x20 DUP10 ADD SWAP3 DUP4 MLOAD SWAP5 PUSH1 0x0 DUP6 MSTORE JUMPDEST DUP11 DUP2 LT PUSH2 0x3F92 JUMPI POP POP POP POP PUSH1 0x3 SWAP4 SWAP5 SWAP6 SWAP7 POP MSTORE MLOAD MOD DUP1 PUSH1 0x1 EQ PUSH2 0x3F7F JUMPI PUSH1 0x2 EQ PUSH2 0x3F74 JUMPI POP SWAP1 JUMP JUMPDEST PUSH1 0x3D SWAP1 PUSH1 0x0 NOT ADD MSTORE8 SWAP1 JUMP JUMPDEST POP PUSH1 0x3D SWAP1 DUP2 PUSH1 0x0 NOT DUP3 ADD MSTORE8 PUSH1 0x1 NOT ADD MSTORE8 SWAP1 JUMP JUMPDEST DUP4 PUSH1 0x4 SWAP2 SWAP12 SWAP9 SWAP12 ADD SWAP11 DUP12 MLOAD PUSH1 0x1 SWAP1 PUSH1 0x3F SWAP1 DUP3 DUP3 DUP3 PUSH1 0x12 SHR AND DUP8 ADD ADD MLOAD DUP5 MSTORE8 DUP3 DUP3 DUP3 PUSH1 0xC SHR AND DUP8 ADD ADD MLOAD DUP4 DUP6 ADD MSTORE8 DUP3 DUP3 DUP3 PUSH1 0x6 SHR AND DUP8 ADD ADD MLOAD DUP8 DUP6 ADD MSTORE8 AND DUP5 ADD ADD MLOAD DUP6 DUP3 ADD MSTORE8 ADD SWAP7 SWAP10 PUSH2 0x3F4C JUMP JUMPDEST POP SWAP1 POP PUSH1 0x40 MLOAD PUSH2 0x3FEE DUP2 PUSH2 0x3199 JUMP JUMPDEST PUSH1 0x0 DUP2 MSTORE SWAP1 JUMP INVALID LOG2 PUSH5 0x6970667358 0x22 SLT KECCAK256 0xD BYTE PUSH28 0xD9231ABCA41AD594B76412577FD87C8DE1C6989BE7AEB1EDD5B9A781 0x24 PUSH5 0x736F6C6343 STOP ADDMOD XOR STOP CALLER "},"methodIdentifiers":{"approve(address,uint256)":"095ea7b3","balanceOf(address)":"70a08231","brand()":"2d9fff01","burn(uint256)":"42966c68","collection()":"7de1e536","deliciousnessOf(uint256)":"c60d7e46","getApproved(uint256)":"081812fc","isApprovedForAll(address,address)":"e985e9c5","maxSupply()":"d5abeb01","mint(uint256)":"a0712d68","mintOpen()":"24bbd049","mintPrice()":"6817c76c","name()":"06fdde03","nextId()":"61b8ce8c","owner()":"8da5cb5b","ownerOf(uint256)":"6352211e","payout()":"63bd1d4a","renounceOwnership()":"715018a6","royaltyInfo(uint256,uint256)":"2a55205a","safeTransferFrom(address,address,uint256)":"42842e0e","safeTransferFrom(address,address,uint256,bytes)":"b88d4fde","setApprovalForAll(address,bool)":"a22cb465","setBranding(string,string)":"c1d2b11d","setMintPrice(uint256)":"f4a0a528","setPayout(address)":"a3ff39b2","supportsInterface(bytes4)":"01ffc9a7","symbol()":"95d89b41","toggleMint(bool)":"8a4dcd85","tokenURI(uint256)":"c87b56dd","transferFrom(address,address,uint256)":"23b872dd","transferOwnership(address)":"f2fde38b","withdraw()":"3ccfd60b"}}}}}