{"contracts/StaticSeeds.sol":{"StaticSeeds":{"abi":[{"inputs":[{"internalType":"address","name":"initialOwner","type":"address"}],"stateMutability":"nonpayable","type":"constructor"},{"inputs":[{"internalType":"address","name":"sender","type":"address"},{"internalType":"uint256","name":"balance","type":"uint256"},{"internalType":"uint256","name":"needed","type":"uint256"},{"internalType":"uint256","name":"tokenId","type":"uint256"}],"name":"ERC1155InsufficientBalance","type":"error"},{"inputs":[{"internalType":"address","name":"approver","type":"address"}],"name":"ERC1155InvalidApprover","type":"error"},{"inputs":[{"internalType":"uint256","name":"idsLength","type":"uint256"},{"internalType":"uint256","name":"valuesLength","type":"uint256"}],"name":"ERC1155InvalidArrayLength","type":"error"},{"inputs":[{"internalType":"address","name":"operator","type":"address"}],"name":"ERC1155InvalidOperator","type":"error"},{"inputs":[{"internalType":"address","name":"receiver","type":"address"}],"name":"ERC1155InvalidReceiver","type":"error"},{"inputs":[{"internalType":"address","name":"sender","type":"address"}],"name":"ERC1155InvalidSender","type":"error"},{"inputs":[{"internalType":"address","name":"operator","type":"address"},{"internalType":"address","name":"owner","type":"address"}],"name":"ERC1155MissingApprovalForAll","type":"error"},{"inputs":[],"name":"FailedCall","type":"error"},{"inputs":[{"internalType":"uint256","name":"balance","type":"uint256"},{"internalType":"uint256","name":"needed","type":"uint256"}],"name":"InsufficientBalance","type":"error"},{"inputs":[{"internalType":"address","name":"owner","type":"address"}],"name":"OwnableInvalidOwner","type":"error"},{"inputs":[{"internalType":"address","name":"account","type":"address"}],"name":"OwnableUnauthorizedAccount","type":"error"},{"inputs":[],"name":"ReentrancyGuardReentrantCall","type":"error"},{"anonymous":false,"inputs":[{"indexed":true,"internalType":"address","name":"account","type":"address"},{"indexed":true,"internalType":"address","name":"operator","type":"address"},{"indexed":false,"internalType":"bool","name":"approved","type":"bool"}],"name":"ApprovalForAll","type":"event"},{"anonymous":false,"inputs":[{"indexed":true,"internalType":"address","name":"user","type":"address"},{"indexed":true,"internalType":"uint256","name":"tokenId","type":"uint256"},{"indexed":false,"internalType":"string","name":"theme","type":"string"}],"name":"HoroscopeClaimed","type":"event"},{"anonymous":false,"inputs":[{"indexed":true,"internalType":"address","name":"previousOwner","type":"address"},{"indexed":true,"internalType":"address","name":"newOwner","type":"address"}],"name":"OwnershipTransferred","type":"event"},{"anonymous":false,"inputs":[{"indexed":true,"internalType":"address","name":"user","type":"address"},{"indexed":true,"internalType":"uint256","name":"tokenId","type":"uint256"},{"indexed":false,"internalType":"string","name":"sign","type":"string"},{"indexed":false,"internalType":"uint256","name":"amount","type":"uint256"}],"name":"SeedMinted","type":"event"},{"anonymous":false,"inputs":[{"indexed":true,"internalType":"address","name":"operator","type":"address"},{"indexed":true,"internalType":"address","name":"from","type":"address"},{"indexed":true,"internalType":"address","name":"to","type":"address"},{"indexed":false,"internalType":"uint256[]","name":"ids","type":"uint256[]"},{"indexed":false,"internalType":"uint256[]","name":"values","type":"uint256[]"}],"name":"TransferBatch","type":"event"},{"anonymous":false,"inputs":[{"indexed":true,"internalType":"address","name":"operator","type":"address"},{"indexed":true,"internalType":"address","name":"from","type":"address"},{"indexed":true,"internalType":"address","name":"to","type":"address"},{"indexed":false,"internalType":"uint256","name":"id","type":"uint256"},{"indexed":false,"internalType":"uint256","name":"value","type":"uint256"}],"name":"TransferSingle","type":"event"},{"anonymous":false,"inputs":[{"indexed":false,"internalType":"string","name":"value","type":"string"},{"indexed":true,"internalType":"uint256","name":"id","type":"uint256"}],"name":"URI","type":"event"},{"anonymous":false,"inputs":[{"indexed":true,"internalType":"address","name":"to","type":"address"},{"indexed":false,"internalType":"uint256","name":"amount","type":"uint256"}],"name":"Withdrawal","type":"event"},{"inputs":[],"name":"MAX_SUPPLY_PER_SIGN","outputs":[{"internalType":"uint256","name":"","type":"uint256"}],"stateMutability":"view","type":"function"},{"inputs":[],"name":"MINT_PRICE","outputs":[{"internalType":"uint256","name":"","type":"uint256"}],"stateMutability":"view","type":"function"},{"inputs":[{"internalType":"address","name":"account","type":"address"},{"internalType":"uint256","name":"id","type":"uint256"}],"name":"balanceOf","outputs":[{"internalType":"uint256","name":"","type":"uint256"}],"stateMutability":"view","type":"function"},{"inputs":[{"internalType":"address[]","name":"accounts","type":"address[]"},{"internalType":"uint256[]","name":"ids","type":"uint256[]"}],"name":"balanceOfBatch","outputs":[{"internalType":"uint256[]","name":"","type":"uint256[]"}],"stateMutability":"view","type":"function"},{"inputs":[{"internalType":"uint256","name":"tokenId","type":"uint256"},{"internalType":"string","name":"theme","type":"string"}],"name":"claimHoroscope","outputs":[],"stateMutability":"nonpayable","type":"function"},{"inputs":[{"internalType":"uint256","name":"tokenId","type":"uint256"}],"name":"getSign","outputs":[{"internalType":"string","name":"","type":"string"}],"stateMutability":"view","type":"function"},{"inputs":[{"internalType":"string","name":"sign","type":"string"}],"name":"getTokenId","outputs":[{"internalType":"uint256","name":"","type":"uint256"}],"stateMutability":"view","type":"function"},{"inputs":[{"internalType":"address","name":"account","type":"address"},{"internalType":"address","name":"operator","type":"address"}],"name":"isApprovedForAll","outputs":[{"internalType":"bool","name":"","type":"bool"}],"stateMutability":"view","type":"function"},{"inputs":[{"internalType":"string","name":"sign","type":"string"},{"internalType":"uint256","name":"amount","type":"uint256"}],"name":"mintSeed","outputs":[],"stateMutability":"payable","type":"function"},{"inputs":[],"name":"owner","outputs":[{"internalType":"address","name":"","type":"address"}],"stateMutability":"view","type":"function"},{"inputs":[],"name":"renounceOwnership","outputs":[],"stateMutability":"nonpayable","type":"function"},{"inputs":[{"internalType":"address","name":"from","type":"address"},{"internalType":"address","name":"to","type":"address"},{"internalType":"uint256[]","name":"ids","type":"uint256[]"},{"internalType":"uint256[]","name":"values","type":"uint256[]"},{"internalType":"bytes","name":"data","type":"bytes"}],"name":"safeBatchTransferFrom","outputs":[],"stateMutability":"nonpayable","type":"function"},{"inputs":[{"internalType":"address","name":"from","type":"address"},{"internalType":"address","name":"to","type":"address"},{"internalType":"uint256","name":"id","type":"uint256"},{"internalType":"uint256","name":"value","type":"uint256"},{"internalType":"bytes","name":"data","type":"bytes"}],"name":"safeTransferFrom","outputs":[],"stateMutability":"nonpayable","type":"function"},{"inputs":[{"internalType":"address","name":"operator","type":"address"},{"internalType":"bool","name":"approved","type":"bool"}],"name":"setApprovalForAll","outputs":[],"stateMutability":"nonpayable","type":"function"},{"inputs":[{"internalType":"string","name":"","type":"string"}],"name":"signToTokenId","outputs":[{"internalType":"uint256","name":"","type":"uint256"}],"stateMutability":"view","type":"function"},{"inputs":[{"internalType":"bytes4","name":"interfaceId","type":"bytes4"}],"name":"supportsInterface","outputs":[{"internalType":"bool","name":"","type":"bool"}],"stateMutability":"view","type":"function"},{"inputs":[{"internalType":"uint256","name":"","type":"uint256"}],"name":"tokenIdToSign","outputs":[{"internalType":"string","name":"","type":"string"}],"stateMutability":"view","type":"function"},{"inputs":[{"internalType":"uint256","name":"","type":"uint256"}],"name":"totalSupply","outputs":[{"internalType":"uint256","name":"","type":"uint256"}],"stateMutability":"view","type":"function"},{"inputs":[{"internalType":"address","name":"newOwner","type":"address"}],"name":"transferOwnership","outputs":[],"stateMutability":"nonpayable","type":"function"},{"inputs":[{"internalType":"uint256","name":"tokenId","type":"uint256"}],"name":"uri","outputs":[{"internalType":"string","name":"","type":"string"}],"stateMutability":"view","type":"function"},{"inputs":[{"internalType":"address","name":"","type":"address"},{"internalType":"uint256","name":"","type":"uint256"}],"name":"userMints","outputs":[{"internalType":"uint256","name":"","type":"uint256"}],"stateMutability":"view","type":"function"},{"inputs":[],"name":"withdraw","outputs":[],"stateMutability":"nonpayable","type":"function"}],"evm":{"bytecode":{"linkReferences":{},"object":"608034620005ee57601f6200252438819003918201601f191683019291906001600160401b038411838510176200051b578160209284926040968752833981010312620005ee57516001600160a01b0380821691829003620005ee578251606081016001600160401b038111828210176200051b578452602e81527f68747470733a2f2f73746174696366727569742e78797a2f6170692f6d65746160208201526d3230ba3097bdb4b23e973539b7b760911b84820152600254600181811c91168015620005e3575b6020821014620005cd57601f811162000562575b50602090600260005260206000209160005b6020811062000549575001516001600160901b0319169055605d60025581156200053157600380546001600160a01b031981168417909155167f8be0079c531659141344cd1fd0a4f28419497f9722a3daafe3b4186f6b6457e0600080a360016004908155815161018081016001600160401b038111828210176200051b57835262000179620005f3565b6005815264617269657360d81b6020820152815262000197620005f3565b600681526574617572757360d01b60208201526020820152620001b9620005f3565b600681526567656d696e6960d01b602082015283820152620001da620005f3565b600681526531b0b731b2b960d11b60208201526060820152620001fc620005f3565b60038152626c656f60e81b602082015260808201526200021b620005f3565b6005815264766972676f60d81b602082015260a08201526200023c620005f3565b60058152646c6962726160d81b602082015260c08201526200025d620005f3565b600781526673636f7270696f60c81b602082015260e082015262000280620005f3565b600b81526a736167697474617269757360a81b6020820152610100820152620002a8620005f3565b600981526831b0b83934b1b7b93760b91b6020820152610120820152620002ce620005f3565b6008815267617175617269757360c01b6020820152610140820152620002f3620005f3565b600681526570697363657360d01b602082015261016082015260005b600c811062000327578351611ee890816200063c8239f35b6001810180821162000506576200033f828462000613565b5185519080519060005b828110620004f3575050906020818493810160058152030190205562000370828462000613565b516000918252600660205290859020815190916001600160401b038211620004de578254600181811c91168015620004d3575b6020821014620004be57601f811162000471575b50602090601f8311600114620003fe5760019493929160009183620003f2575b5050600019600383901b1c191690841b1790555b016200030f565b015190503880620003d7565b908360005260206000209160005b601f19851681106200045857509183916001969594938794601f198116106200043e575b505050811b019055620003eb565b015160001960f88460031b161c1916905538808062000430565b919260206001819286850151815501940192016200040c565b836000526020600020601f840160051c81019160208510620004b3575b601f0160051c01905b818110620004a65750620003b7565b6000815560010162000497565b90915081906200048e565b602287634e487b7160e01b6000525260246000fd5b90607f1690620003a3565b604186634e487b7160e01b6000525260246000fd5b6020818301810151858301520162000349565b601184634e487b7160e01b6000525260246000fd5b634e487b7160e01b600052604160045260246000fd5b8251631e4fbdf760e01b815260006004820152602490fd5b90926020600181928686015181550194019101620000ee565b6002600052601f0160051c7f405787fa12a823e0f2b7631cc41b3ba8828b3321ca811111fa75cd3aa3bb5ace017f405787fa12a823e0f2b7631cc41b3ba8828b3321ca811111fa75cd3aa3bb5ad05b818110620005c05750620000dc565b60008155600101620005b1565b634e487b7160e01b600052602260045260246000fd5b90607f1690620000c8565b600080fd5b60408051919082016001600160401b038111838210176200051b57604052565b90600c811015620006255760051b0190565b634e487b7160e01b600052603260045260246000fdfe6080604052600436101561001257600080fd5b60003560e01c8062fdd58e1461017157806301ffc9a71461016c5780630e89341c146101675780631e7663bc146101625780632462a2521461015d5780632eb2c2d6146101585780633ccfd60b1461015357806349d7f0741461014e5780634e1273f41461014957806356f0866c14610144578063715018a61461013f5780638da5cb5b1461013a57806393fb6e8714610135578063a22cb46514610130578063bd85b0391461012b578063c002d23d14610126578063cd49618c14610121578063e985e9c51461011c578063ec8451da1461010d578063f242432a14610117578063f2fde38b146101125763f4a79b241461010d57600080fd5b610eff565b61113d565b611010565b610e9d565b610e55565b610e33565b610e07565b610d2a565b610bc8565b610ba1565b610b38565b610abf565b6109ed565b6108c1565b6107d9565b61069f565b610543565b610507565b610331565b61021b565b6101bb565b600435906001600160a01b038216820361018c57565b600080fd5b602435906001600160a01b038216820361018c57565b35906001600160a01b038216820361018c57565b3461018c57604036600319011261018c5760206102006101d9610176565b602435600052600083526040600020906001600160a01b0316600052602052604060002090565b54604051908152f35b6001600160e01b031981160361018c57565b3461018c57602036600319011261018c5760206001600160e01b031960043561024381610209565b167fd9b67a260000000000000000000000000000000000000000000000000000000081149081156102ab575b8115610281575b506040519015158152f35b7f01ffc9a70000000000000000000000000000000000000000000000000000000091501438610276565b7f0e89341c000000000000000000000000000000000000000000000000000000008114915061026f565b60005b8381106102e85750506000910152565b81810151838201526020016102d8565b90602091610311815180928185528580860191016102d5565b601f01601f1916010190565b90602061032e9281815201906102f8565b90565b3461018c57602036600319011261018c5760043561034d6111e9565b600091807a184f03e93ff9f4daa797ed6e38ed64bf6a1f01000000000000000081818110156104cb575b50506d04ee2d6d415b85acef8100000000808310156104bc575b50662386f26fc10000808310156104ad575b506305f5e1008083101561049e575b506127108083101561048f575b50606482101561047f575b600a80921015610475575b6001908160216103e7600188016115da565b96870101905b610432575b60405161042e90610422816104148a61040e602084018c610aa8565b90610aa8565b03601f198101835282610597565b6040519182918261031d565b0390f35b600019019083907f30313233343536373839616263646566000000000000000000000000000000008282061a835304918215610470579190826103ed565b6103f2565b92600101926103d5565b92906064600291049101926103ca565b600491949204910192386103bf565b600891949204910192386103b2565b601091949204910192386103a3565b60209194920491019238610391565b604095500491503880610377565b9181601f8401121561018c5782359167ffffffffffffffff831161018c576020838186019501011161018c57565b3461018c57602036600319011261018c5760043567ffffffffffffffff811161018c5761020061053d60209236906004016104d9565b9061130c565b3461018c57600036600319011261018c5760206040516127108152f35b634e487b7160e01b600052604160045260246000fd5b6020810190811067ffffffffffffffff82111761059257604052565b610560565b90601f8019910116810190811067ffffffffffffffff82111761059257604052565b67ffffffffffffffff81116105925760051b60200190565b9080601f8301121561018c5760209082356105eb816105b9565b936105f96040519586610597565b81855260208086019260051b82010192831161018c57602001905b828210610622575050505090565b81358152908301908301610614565b67ffffffffffffffff811161059257601f01601f191660200190565b92919261065982610631565b916106676040519384610597565b82948184528183011161018c578281602093846000960137010152565b9080601f8301121561018c5781602061032e9335910161064d565b3461018c5760a036600319011261018c576106b8610176565b6106c0610191565b906044359167ffffffffffffffff9081841161018c576106e5600494369086016105d1565b9060643583811161018c576106fd90369087016105d1565b9260843590811161018c576107159036908701610684565b936001600160a01b038082169033821415806107a4575b6107775783161561075f571561074857610746955061199b565b005b602486600060405191626a0d4560e21b8352820152fd5b602487600060405191632bfa23e760e11b8352820152fd5b6040805163711bec9160e11b815233818b019081526001600160a01b038616602082015290918291010390fd5b5081600052600160205260ff6107d1336040600020906001600160a01b0316600052602052604060002090565b54161561072c565b3461018c576000806003193601126108be576107f361160c565b47906001600160a01b0360035416807f7fcf532c15f0a6db0bd6d0e038bea71d30d808c7d98cb3bf7268a95bf5081b656020604051868152a2824710610886578180809481935af1610843611650565b901561084d575080f35b80511561085c57602081519101fd5b60046040517fd6bda275000000000000000000000000000000000000000000000000000000008152fd5b6040517fcf47918100000000000000000000000000000000000000000000000000000000815247600482015260248101849052604490fd5b80fd5b3461018c57604036600319011261018c5760043560243567ffffffffffffffff811161018c576108f59036906004016104d9565b6108fd611680565b60008381526020818152604080832033845290915290205415610964576109577f8eb20336e0911a379870111ec015103173254d8f89a70b406fe0d198f87294709161094985336116bb565b604051918291339583611346565b0390a36107466001600455565b606460405162461bcd60e51b815260206004820152601160248201527f4e6f20736565647320746f20636c61696d0000000000000000000000000000006044820152fd5b90815180825260208080930193019160005b8281106109c8575050505090565b8351855293810193928101926001016109ba565b90602061032e9281815201906109a8565b3461018c57604036600319011261018c5760043567ffffffffffffffff80821161018c573660238301121561018c578160040135610a2a816105b9565b92610a386040519485610597565b8184526020916024602086019160051b8301019136831161018c57602401905b828210610a91578560243586811161018c5761042e91610a7f610a859236906004016105d1565b90611381565b604051918291826109dc565b838091610a9d846101a7565b815201910190610a58565b90610abb602092828151948592016102d5565b0190565b3461018c57602036600319011261018c5760043567ffffffffffffffff811161018c573660238201121561018c57610b1c6020610b0961042e93369060248160040135910161064d565b81604051938285809451938492016102d5565b8101600581520301902054604051918291829190602083019252565b3461018c576000806003193601126108be57610b5261160c565b806001600160a01b0360035473ffffffffffffffffffffffffffffffffffffffff198116600355167f8be0079c531659141344cd1fd0a4f28419497f9722a3daafe3b4186f6b6457e08280a380f35b3461018c57600036600319011261018c5760206001600160a01b0360035416604051908152f35b604036600319011261018c5760043567ffffffffffffffff811161018c57610bf49036906004016104d9565b907f38f7c5c3827fcb56dabd1150e538e385707d18e91dd676ff68cf63cfa07d0af7602435610c21611680565b610c2b848461130c565b5493610c3885151561143f565b610c4c610c44836114a0565b3410156114bc565b610c77612710610c7084610c6a896000526007602052604060002090565b54611507565b1115611514565b610cb7600a610cb084610c6a89610ca1336001600160a01b03166000526008602052604060002090565b90600052602052604060002090565b111561155f565b610ccb856000526007602052604060002090565b610cd6838254611507565b9055610cf985610ca1336001600160a01b03166000526008602052604060002090565b610d04838254611507565b9055610d19610d116115aa565b838733611852565b6109576040519283923396846115bd565b3461018c57604036600319011261018c57610d43610176565b60243580151580820361018c576001600160a01b038316928315610dd657610d8b903360005260016020526040600020906001600160a01b0316600052602052604060002090565b9060ff801983541691161790557f17307eab39ab6107e8899845ad3d59bd9653f200f220920489ca2b5937696c3160405180610dd1339482919091602081019215159052565b0390a3005b60246040517fced3e10000000000000000000000000000000000000000000000000000000000815260006004820152fd5b3461018c57602036600319011261018c5760043560005260076020526020604060002054604051908152f35b3461018c57600036600319011261018c576020604051662386f26fc100008152f35b3461018c57604036600319011261018c576001600160a01b03610e76610176565b16600052600860205260406000206024356000526020526020604060002054604051908152f35b3461018c57604036600319011261018c57602060ff610ef3610ebd610176565b6001600160a01b03610ecd610191565b9116600052600184526040600020906001600160a01b0316600052602052604060002090565b54166040519015158152f35b3461018c5760208060031936011261018c5760006004358152600682526040812091604051918084549460018660011c9360018816928315611006575b8686108414610ff2578798610f58878a98999a60209181520190565b94908115610fd15750600114610f8b575b8588610f7782880383610597565b61042e6040519282849384528301906102f8565b610f9e9196929450600052602060002090565b94925b86828510610fbb57505050610f7793500138808080610f69565b8654858501529581019588955090930192610fa1565b9350505050610f779491925060ff19168252151560051b0138808080610f69565b602482634e487b7160e01b81526022600452fd5b94607f1694610f3c565b3461018c5760a036600319011261018c57611029610176565b611031610191565b60843567ffffffffffffffff811161018c57611051903690600401610684565b906001600160a01b03808416903382141580611108575b6110e1578216156110c957156110b257610746926110aa6064356044359160405192600184526020840152604083019160018352606084015260808301604052565b92909161199b565b6024604051626a0d4560e21b815260006004820152fd5b6024604051632bfa23e760e11b815260006004820152fd5b60405163711bec9160e11b81523360048201526001600160a01b0386166024820152604490fd5b5081600052600160205260ff611135336040600020906001600160a01b0316600052602052604060002090565b541615611068565b3461018c57602036600319011261018c57611156610176565b61115e61160c565b6001600160a01b038091169081156111b8576003548273ffffffffffffffffffffffffffffffffffffffff19821617600355167f8be0079c531659141344cd1fd0a4f28419497f9722a3daafe3b4186f6b6457e0600080a3005b60246040517f1e4fbdf700000000000000000000000000000000000000000000000000000000815260006004820152fd5b6040519060006002549060018260011c92600181169182156112d5575b6020916020861084146112c1578588528794936020860193929181156112a25750600114611240575b50505061123e92500383610597565b565b92509361126f60026000527f405787fa12a823e0f2b7631cc41b3ba8828b3321ca811111fa75cd3aa3bb5ace90565b946000935b82851061128c5750505061123e93500138808061122f565b8654858501529586019588955093810193611274565b9250505061123e9491925060ff19168252151560051b0138808061122f565b602485634e487b7160e01b81526022600452fd5b93607f1693611206565b6113089160005260006020526040600020906001600160a01b0316600052602052604060002090565b5490565b6020908260405193849283378101600581520301902090565b908060209392818452848401376000828201840152601f01601f1916010190565b91602061032e938181520191611325565b805182101561136b5760209160051b010190565b634e487b7160e01b600052603260045260246000fd5b919091805183518082036114045750508051906113b66113a0836105b9565b926113ae6040519485610597565b8084526105b9565b60209190601f1901368484013760005b81518110156113fc57806113eb60019260051b85808287010151918a010151906112df565b6113f58287611357565b52016113c6565b509193505050565b6040517f5b05999100000000000000000000000000000000000000000000000000000000815260048101919091526024810191909152604490fd5b1561144657565b606460405162461bcd60e51b815260206004820152601360248201527f496e76616c6964207a6f64696163207369676e000000000000000000000000006044820152fd5b634e487b7160e01b600052601160045260246000fd5b90662386f26fc1000091808302928304036114b757565b61148a565b156114c357565b606460405162461bcd60e51b815260206004820152601460248201527f496e73756666696369656e74207061796d656e740000000000000000000000006044820152fd5b919082018092116114b757565b1561151b57565b606460405162461bcd60e51b815260206004820152601260248201527f45786365656473206d617820737570706c7900000000000000000000000000006044820152fd5b1561156657565b606460405162461bcd60e51b815260206004820152601860248201527f4d617820313020706572207573657220706572207369676e00000000000000006044820152fd5b604051906115b782610576565b60008252565b9392916020916115d591604087526040870191611325565b930152565b906115e482610631565b6115f16040519182610597565b8281528092611602601f1991610631565b0190602036910137565b6001600160a01b0360035416330361162057565b60246040517f118cdaa7000000000000000000000000000000000000000000000000000000008152336004820152fd5b3d1561167b573d9061166182610631565b9161166f6040519384610597565b82523d6000602084013e565b606090565b600260045414611691576002600455565b60046040517f3ee5aeb5000000000000000000000000000000000000000000000000000000008152fd5b6001600160a01b0381169182156110b2576116f5604051916001835260208301526040820190600182526001606084015260808301604052565b9190604094600060405161170881610576565b52815184519081810361140457505060005b82518110156117c8578060051b602080828601015191870101516117648661174c846000526000602052604060002090565b906001600160a01b0316600052602052604060002090565b54818110611792578661174c600195949361178b9303936000526000602052604060002090565b550161171a565b89516303dee4c560e01b81526001600160a01b038816600482015260248101919091526044810182905260648101839052608490fd5b5094506000939291506001815114841461181f5760209081015191810151604080519384529183015233917fc3d58168c5ae7397731d063d5bbf3d657854427343f4c083240f7aacaa2d0f6291819081015b0390a4565b60405133927f4a39dc06d4c0dbc64b70af90fd698a233a518aa5d07e595d983b8c0526c8f7fb92829161181a9183611b8f565b909291926001600160a01b0382169384156110c95761188e60405192600184526020840152604083019160018352606084015260808301604052565b92815184519081810361140457505060005b82518110156118e8578060019160051b6118e06118d88761174c602080868b010151958c010151946000526000602052604060002090565b918254611507565b9055016118a0565b50929193600182511460001461195f5760208281015184820151604080519283529282015260009133917fc3d58168c5ae7397731d063d5bbf3d657854427343f4c083240f7aacaa2d0f629190a45b8051600103611955579060208061123e959301519101519133611e46565b61123e9333611c48565b60006040517f4a39dc06d4c0dbc64b70af90fd698a233a518aa5d07e595d983b8c0526c8f7fb339180611993888883611b8f565b0390a4611937565b94919091815184519081810361140457505060005b8251811015611a9b578060051b9060208083860101519287010151856001600160a01b0393848b16611a15575b60019482166119f0575b505050016119b0565b611a0b9161174c6118d8926000526000602052604060002090565b90553885816119e7565b9192939050611a328a61174c846000526000602052604060002090565b54838110611a645791879184600196959403611a5c8d61174c856000526000602052604060002090565b5594506119dd565b6040516303dee4c560e01b81526001600160a01b038c16600482015260248101919091526044810184905260648101839052608490fd5b509491939290936001855114600014611b46576020858101518382015160408051928352928201526001600160a01b03838116929086169133917fc3d58168c5ae7397731d063d5bbf3d657854427343f4c083240f7aacaa2d0f6291a45b6001600160a01b038116611b0f575b5050505050565b8451600103611b3557602080611b2b9601519201519233611e7b565b3880808080611b08565b611b4194919233611d43565b611b2b565b6001600160a01b03604051818316918516907f4a39dc06d4c0dbc64b70af90fd698a233a518aa5d07e595d983b8c0526c8f7fb339180611b87888c83611b8f565b0390a4611af9565b9091611ba661032e936040845260408401906109a8565b9160208184039101526109a8565b9081602091031261018c575161032e81610209565b92611bf961032e95936001600160a01b03611c07941686526000602087015260a0604087015260a08601906109a8565b9084820360608601526109a8565b9160808184039101526102f8565b939061032e9593611bf991611c07946001600160a01b03809216885216602087015260a0604087015260a08601906109a8565b9293919093843b611c5a575050505050565b602091611c7d604051948593849363bc197c8160e01b9889865260048601611bc9565b038160006001600160a01b0388165af160009181611d12575b50611cd55782611ca4611650565b8051919082611cce57604051632bfa23e760e11b81526001600160a01b0383166004820152602490fd5b6020915001fd5b6001600160e01b03191603611cef57503880808080611b08565b604051632bfa23e760e11b81526001600160a01b03919091166004820152602490fd5b611d3591925060203d602011611d3c575b611d2d8183610597565b810190611bb4565b9038611c96565b503d611d23565b939290949194853b611d58575b505050505050565b611d7b602093604051958694859463bc197c8160e01b998a875260048701611c15565b038160006001600160a01b0388165af160009181611dbd575b50611da25782611ca4611650565b6001600160e01b03191603611cef5750388080808080611d50565b611dd791925060203d602011611d3c57611d2d8183610597565b9038611d94565b909260a0926001600160a01b0361032e9695168352600060208401526040830152606082015281608082015201906102f8565b919261032e95949160a0946001600160a01b0380921685521660208401526040830152606082015281608082015201906102f8565b9293919093843b611e58575050505050565b602091611c7d604051948593849363f23a6e6160e01b9889865260048601611dde565b939290949194853b611e8f57505050505050565b611d7b602093604051958694859463f23a6e6160e01b998a875260048701611e1156fea26469706673582212209bb524b789fa8298e8176b61b02b0084a47d8df511ced99187d394679d0c75b764736f6c63430008180033","opcodes":"PUSH1 0x80 CALLVALUE PUSH3 0x5EE JUMPI PUSH1 0x1F PUSH3 0x2524 CODESIZE DUP2 SWAP1 SUB SWAP2 DUP3 ADD PUSH1 0x1F NOT AND DUP4 ADD SWAP3 SWAP2 SWAP1 PUSH1 0x1 PUSH1 0x1 PUSH1 0x40 SHL SUB DUP5 GT DUP4 DUP6 LT OR PUSH3 0x51B JUMPI DUP2 PUSH1 0x20 SWAP3 DUP5 SWAP3 PUSH1 0x40 SWAP7 DUP8 MSTORE DUP4 CODECOPY DUP2 ADD SUB SLT PUSH3 0x5EE JUMPI MLOAD PUSH1 0x1 PUSH1 0x1 PUSH1 0xA0 SHL SUB DUP1 DUP3 AND SWAP2 DUP3 SWAP1 SUB PUSH3 0x5EE JUMPI DUP3 MLOAD PUSH1 0x60 DUP2 ADD PUSH1 0x1 PUSH1 0x1 PUSH1 0x40 SHL SUB DUP2 GT DUP3 DUP3 LT OR PUSH3 0x51B JUMPI DUP5 MSTORE PUSH1 0x2E DUP2 MSTORE PUSH32 0x68747470733A2F2F73746174696366727569742E78797A2F6170692F6D657461 PUSH1 0x20 DUP3 ADD MSTORE PUSH14 0x3230BA3097BDB4B23E973539B7B7 PUSH1 0x91 SHL DUP5 DUP3 ADD MSTORE PUSH1 0x2 SLOAD PUSH1 0x1 DUP2 DUP2 SHR SWAP2 AND DUP1 ISZERO PUSH3 0x5E3 JUMPI JUMPDEST PUSH1 0x20 DUP3 LT EQ PUSH3 0x5CD JUMPI PUSH1 0x1F DUP2 GT PUSH3 0x562 JUMPI JUMPDEST POP PUSH1 0x20 SWAP1 PUSH1 0x2 PUSH1 0x0 MSTORE PUSH1 0x20 PUSH1 0x0 KECCAK256 SWAP2 PUSH1 0x0 JUMPDEST PUSH1 0x20 DUP2 LT PUSH3 0x549 JUMPI POP ADD MLOAD PUSH1 0x1 PUSH1 0x1 PUSH1 0x90 SHL SUB NOT AND SWAP1 SSTORE PUSH1 0x5D PUSH1 0x2 SSTORE DUP2 ISZERO PUSH3 0x531 JUMPI PUSH1 0x3 DUP1 SLOAD PUSH1 0x1 PUSH1 0x1 PUSH1 0xA0 SHL SUB NOT DUP2 AND DUP5 OR SWAP1 SWAP2 SSTORE AND PUSH32 0x8BE0079C531659141344CD1FD0A4F28419497F9722A3DAAFE3B4186F6B6457E0 PUSH1 0x0 DUP1 LOG3 PUSH1 0x1 PUSH1 0x4 SWAP1 DUP2 SSTORE DUP2 MLOAD PUSH2 0x180 DUP2 ADD PUSH1 0x1 PUSH1 0x1 PUSH1 0x40 SHL SUB DUP2 GT DUP3 DUP3 LT OR PUSH3 0x51B JUMPI DUP4 MSTORE PUSH3 0x179 PUSH3 0x5F3 JUMP JUMPDEST PUSH1 0x5 DUP2 MSTORE PUSH5 0x6172696573 PUSH1 0xD8 SHL PUSH1 0x20 DUP3 ADD MSTORE DUP2 MSTORE PUSH3 0x197 PUSH3 0x5F3 JUMP JUMPDEST PUSH1 0x6 DUP2 MSTORE PUSH6 0x746175727573 PUSH1 0xD0 SHL PUSH1 0x20 DUP3 ADD MSTORE PUSH1 0x20 DUP3 ADD MSTORE PUSH3 0x1B9 PUSH3 0x5F3 JUMP JUMPDEST PUSH1 0x6 DUP2 MSTORE PUSH6 0x67656D696E69 PUSH1 0xD0 SHL PUSH1 0x20 DUP3 ADD MSTORE DUP4 DUP3 ADD MSTORE PUSH3 0x1DA PUSH3 0x5F3 JUMP JUMPDEST PUSH1 0x6 DUP2 MSTORE PUSH6 0x31B0B731B2B9 PUSH1 0xD1 SHL PUSH1 0x20 DUP3 ADD MSTORE PUSH1 0x60 DUP3 ADD MSTORE PUSH3 0x1FC PUSH3 0x5F3 JUMP JUMPDEST PUSH1 0x3 DUP2 MSTORE PUSH3 0x6C656F PUSH1 0xE8 SHL PUSH1 0x20 DUP3 ADD MSTORE PUSH1 0x80 DUP3 ADD MSTORE PUSH3 0x21B PUSH3 0x5F3 JUMP JUMPDEST PUSH1 0x5 DUP2 MSTORE PUSH5 0x766972676F PUSH1 0xD8 SHL PUSH1 0x20 DUP3 ADD MSTORE PUSH1 0xA0 DUP3 ADD MSTORE PUSH3 0x23C PUSH3 0x5F3 JUMP JUMPDEST PUSH1 0x5 DUP2 MSTORE PUSH5 0x6C69627261 PUSH1 0xD8 SHL PUSH1 0x20 DUP3 ADD MSTORE PUSH1 0xC0 DUP3 ADD MSTORE PUSH3 0x25D PUSH3 0x5F3 JUMP JUMPDEST PUSH1 0x7 DUP2 MSTORE PUSH7 0x73636F7270696F PUSH1 0xC8 SHL PUSH1 0x20 DUP3 ADD MSTORE PUSH1 0xE0 DUP3 ADD MSTORE PUSH3 0x280 PUSH3 0x5F3 JUMP JUMPDEST PUSH1 0xB DUP2 MSTORE PUSH11 0x7361676974746172697573 PUSH1 0xA8 SHL PUSH1 0x20 DUP3 ADD MSTORE PUSH2 0x100 DUP3 ADD MSTORE PUSH3 0x2A8 PUSH3 0x5F3 JUMP JUMPDEST PUSH1 0x9 DUP2 MSTORE PUSH9 0x31B0B83934B1B7B937 PUSH1 0xB9 SHL PUSH1 0x20 DUP3 ADD MSTORE PUSH2 0x120 DUP3 ADD MSTORE PUSH3 0x2CE PUSH3 0x5F3 JUMP JUMPDEST PUSH1 0x8 DUP2 MSTORE PUSH8 0x6171756172697573 PUSH1 0xC0 SHL PUSH1 0x20 DUP3 ADD MSTORE PUSH2 0x140 DUP3 ADD MSTORE PUSH3 0x2F3 PUSH3 0x5F3 JUMP JUMPDEST PUSH1 0x6 DUP2 MSTORE PUSH6 0x706973636573 PUSH1 0xD0 SHL PUSH1 0x20 DUP3 ADD MSTORE PUSH2 0x160 DUP3 ADD MSTORE PUSH1 0x0 JUMPDEST PUSH1 0xC DUP2 LT PUSH3 0x327 JUMPI DUP4 MLOAD PUSH2 0x1EE8 SWAP1 DUP2 PUSH3 0x63C DUP3 CODECOPY RETURN JUMPDEST PUSH1 0x1 DUP2 ADD DUP1 DUP3 GT PUSH3 0x506 JUMPI PUSH3 0x33F DUP3 DUP5 PUSH3 0x613 JUMP JUMPDEST MLOAD DUP6 MLOAD SWAP1 DUP1 MLOAD SWAP1 PUSH1 0x0 JUMPDEST DUP3 DUP2 LT PUSH3 0x4F3 JUMPI POP POP SWAP1 PUSH1 0x20 DUP2 DUP5 SWAP4 DUP2 ADD PUSH1 0x5 DUP2 MSTORE SUB ADD SWAP1 KECCAK256 SSTORE PUSH3 0x370 DUP3 DUP5 PUSH3 0x613 JUMP JUMPDEST MLOAD PUSH1 0x0 SWAP2 DUP3 MSTORE PUSH1 0x6 PUSH1 0x20 MSTORE SWAP1 DUP6 SWAP1 KECCAK256 DUP2 MLOAD SWAP1 SWAP2 PUSH1 0x1 PUSH1 0x1 PUSH1 0x40 SHL SUB DUP3 GT PUSH3 0x4DE JUMPI DUP3 SLOAD PUSH1 0x1 DUP2 DUP2 SHR SWAP2 AND DUP1 ISZERO PUSH3 0x4D3 JUMPI JUMPDEST PUSH1 0x20 DUP3 LT EQ PUSH3 0x4BE JUMPI PUSH1 0x1F DUP2 GT PUSH3 0x471 JUMPI JUMPDEST POP PUSH1 0x20 SWAP1 PUSH1 0x1F DUP4 GT PUSH1 0x1 EQ PUSH3 0x3FE JUMPI PUSH1 0x1 SWAP5 SWAP4 SWAP3 SWAP2 PUSH1 0x0 SWAP2 DUP4 PUSH3 0x3F2 JUMPI JUMPDEST POP POP PUSH1 0x0 NOT PUSH1 0x3 DUP4 SWAP1 SHL SHR NOT AND SWAP1 DUP5 SHL OR SWAP1 SSTORE JUMPDEST ADD PUSH3 0x30F JUMP JUMPDEST ADD MLOAD SWAP1 POP CODESIZE DUP1 PUSH3 0x3D7 JUMP JUMPDEST SWAP1 DUP4 PUSH1 0x0 MSTORE PUSH1 0x20 PUSH1 0x0 KECCAK256 SWAP2 PUSH1 0x0 JUMPDEST PUSH1 0x1F NOT DUP6 AND DUP2 LT PUSH3 0x458 JUMPI POP SWAP2 DUP4 SWAP2 PUSH1 0x1 SWAP7 SWAP6 SWAP5 SWAP4 DUP8 SWAP5 PUSH1 0x1F NOT DUP2 AND LT PUSH3 0x43E JUMPI JUMPDEST POP POP POP DUP2 SHL ADD SWAP1 SSTORE PUSH3 0x3EB JUMP JUMPDEST ADD MLOAD PUSH1 0x0 NOT PUSH1 0xF8 DUP5 PUSH1 0x3 SHL AND SHR NOT AND SWAP1 SSTORE CODESIZE DUP1 DUP1 PUSH3 0x430 JUMP JUMPDEST SWAP2 SWAP3 PUSH1 0x20 PUSH1 0x1 DUP2 SWAP3 DUP7 DUP6 ADD MLOAD DUP2 SSTORE ADD SWAP5 ADD SWAP3 ADD PUSH3 0x40C JUMP JUMPDEST DUP4 PUSH1 0x0 MSTORE PUSH1 0x20 PUSH1 0x0 KECCAK256 PUSH1 0x1F DUP5 ADD PUSH1 0x5 SHR DUP2 ADD SWAP2 PUSH1 0x20 DUP6 LT PUSH3 0x4B3 JUMPI JUMPDEST PUSH1 0x1F ADD PUSH1 0x5 SHR ADD SWAP1 JUMPDEST DUP2 DUP2 LT PUSH3 0x4A6 JUMPI POP PUSH3 0x3B7 JUMP JUMPDEST PUSH1 0x0 DUP2 SSTORE PUSH1 0x1 ADD PUSH3 0x497 JUMP JUMPDEST SWAP1 SWAP2 POP DUP2 SWAP1 PUSH3 0x48E JUMP JUMPDEST PUSH1 0x22 DUP8 PUSH4 0x4E487B71 PUSH1 0xE0 SHL PUSH1 0x0 MSTORE MSTORE PUSH1 0x24 PUSH1 0x0 REVERT JUMPDEST SWAP1 PUSH1 0x7F AND SWAP1 PUSH3 0x3A3 JUMP JUMPDEST PUSH1 0x41 DUP7 PUSH4 0x4E487B71 PUSH1 0xE0 SHL PUSH1 0x0 MSTORE MSTORE PUSH1 0x24 PUSH1 0x0 REVERT JUMPDEST PUSH1 0x20 DUP2 DUP4 ADD DUP2 ADD MLOAD DUP6 DUP4 ADD MSTORE ADD PUSH3 0x349 JUMP JUMPDEST PUSH1 0x11 DUP5 PUSH4 0x4E487B71 PUSH1 0xE0 SHL PUSH1 0x0 MSTORE MSTORE PUSH1 0x24 PUSH1 0x0 REVERT JUMPDEST PUSH4 0x4E487B71 PUSH1 0xE0 SHL PUSH1 0x0 MSTORE PUSH1 0x41 PUSH1 0x4 MSTORE PUSH1 0x24 PUSH1 0x0 REVERT JUMPDEST DUP3 MLOAD PUSH4 0x1E4FBDF7 PUSH1 0xE0 SHL DUP2 MSTORE PUSH1 0x0 PUSH1 0x4 DUP3 ADD MSTORE PUSH1 0x24 SWAP1 REVERT JUMPDEST SWAP1 SWAP3 PUSH1 0x20 PUSH1 0x1 DUP2 SWAP3 DUP7 DUP7 ADD MLOAD DUP2 SSTORE ADD SWAP5 ADD SWAP2 ADD PUSH3 0xEE JUMP JUMPDEST PUSH1 0x2 PUSH1 0x0 MSTORE PUSH1 0x1F ADD PUSH1 0x5 SHR PUSH32 0x405787FA12A823E0F2B7631CC41B3BA8828B3321CA811111FA75CD3AA3BB5ACE ADD PUSH32 0x405787FA12A823E0F2B7631CC41B3BA8828B3321CA811111FA75CD3AA3BB5AD0 JUMPDEST DUP2 DUP2 LT PUSH3 0x5C0 JUMPI POP PUSH3 0xDC JUMP JUMPDEST PUSH1 0x0 DUP2 SSTORE PUSH1 0x1 ADD PUSH3 0x5B1 JUMP JUMPDEST PUSH4 0x4E487B71 PUSH1 0xE0 SHL PUSH1 0x0 MSTORE PUSH1 0x22 PUSH1 0x4 MSTORE PUSH1 0x24 PUSH1 0x0 REVERT JUMPDEST SWAP1 PUSH1 0x7F AND SWAP1 PUSH3 0xC8 JUMP JUMPDEST PUSH1 0x0 DUP1 REVERT JUMPDEST PUSH1 0x40 DUP1 MLOAD SWAP2 SWAP1 DUP3 ADD PUSH1 0x1 PUSH1 0x1 PUSH1 0x40 SHL SUB DUP2 GT DUP4 DUP3 LT OR PUSH3 0x51B JUMPI PUSH1 0x40 MSTORE JUMP JUMPDEST SWAP1 PUSH1 0xC DUP2 LT ISZERO PUSH3 0x625 JUMPI PUSH1 0x5 SHL ADD SWAP1 JUMP JUMPDEST PUSH4 0x4E487B71 PUSH1 0xE0 SHL PUSH1 0x0 MSTORE PUSH1 0x32 PUSH1 0x4 MSTORE PUSH1 0x24 PUSH1 0x0 REVERT INVALID PUSH1 0x80 PUSH1 0x40 MSTORE PUSH1 0x4 CALLDATASIZE LT ISZERO PUSH2 0x12 JUMPI PUSH1 0x0 DUP1 REVERT JUMPDEST PUSH1 0x0 CALLDATALOAD PUSH1 0xE0 SHR DUP1 PUSH3 0xFDD58E EQ PUSH2 0x171 JUMPI DUP1 PUSH4 0x1FFC9A7 EQ PUSH2 0x16C JUMPI DUP1 PUSH4 0xE89341C EQ PUSH2 0x167 JUMPI DUP1 PUSH4 0x1E7663BC EQ PUSH2 0x162 JUMPI DUP1 PUSH4 0x2462A252 EQ PUSH2 0x15D JUMPI DUP1 PUSH4 0x2EB2C2D6 EQ PUSH2 0x158 JUMPI DUP1 PUSH4 0x3CCFD60B EQ PUSH2 0x153 JUMPI DUP1 PUSH4 0x49D7F074 EQ PUSH2 0x14E JUMPI DUP1 PUSH4 0x4E1273F4 EQ PUSH2 0x149 JUMPI DUP1 PUSH4 0x56F0866C EQ PUSH2 0x144 JUMPI DUP1 PUSH4 0x715018A6 EQ PUSH2 0x13F JUMPI DUP1 PUSH4 0x8DA5CB5B EQ PUSH2 0x13A JUMPI DUP1 PUSH4 0x93FB6E87 EQ PUSH2 0x135 JUMPI DUP1 PUSH4 0xA22CB465 EQ PUSH2 0x130 JUMPI DUP1 PUSH4 0xBD85B039 EQ PUSH2 0x12B JUMPI DUP1 PUSH4 0xC002D23D EQ PUSH2 0x126 JUMPI DUP1 PUSH4 0xCD49618C EQ PUSH2 0x121 JUMPI DUP1 PUSH4 0xE985E9C5 EQ PUSH2 0x11C JUMPI DUP1 PUSH4 0xEC8451DA EQ PUSH2 0x10D JUMPI DUP1 PUSH4 0xF242432A EQ PUSH2 0x117 JUMPI DUP1 PUSH4 0xF2FDE38B EQ PUSH2 0x112 JUMPI PUSH4 0xF4A79B24 EQ PUSH2 0x10D JUMPI PUSH1 0x0 DUP1 REVERT JUMPDEST PUSH2 0xEFF JUMP JUMPDEST PUSH2 0x113D JUMP JUMPDEST PUSH2 0x1010 JUMP JUMPDEST PUSH2 0xE9D JUMP JUMPDEST PUSH2 0xE55 JUMP JUMPDEST PUSH2 0xE33 JUMP JUMPDEST PUSH2 0xE07 JUMP JUMPDEST PUSH2 0xD2A JUMP JUMPDEST PUSH2 0xBC8 JUMP JUMPDEST PUSH2 0xBA1 JUMP JUMPDEST PUSH2 0xB38 JUMP JUMPDEST PUSH2 0xABF JUMP JUMPDEST PUSH2 0x9ED JUMP JUMPDEST PUSH2 0x8C1 JUMP JUMPDEST PUSH2 0x7D9 JUMP JUMPDEST PUSH2 0x69F JUMP JUMPDEST PUSH2 0x543 JUMP JUMPDEST PUSH2 0x507 JUMP JUMPDEST PUSH2 0x331 JUMP JUMPDEST PUSH2 0x21B JUMP JUMPDEST PUSH2 0x1BB JUMP JUMPDEST PUSH1 0x4 CALLDATALOAD SWAP1 PUSH1 0x1 PUSH1 0x1 PUSH1 0xA0 SHL SUB DUP3 AND DUP3 SUB PUSH2 0x18C JUMPI JUMP JUMPDEST PUSH1 0x0 DUP1 REVERT JUMPDEST PUSH1 0x24 CALLDATALOAD SWAP1 PUSH1 0x1 PUSH1 0x1 PUSH1 0xA0 SHL SUB DUP3 AND DUP3 SUB PUSH2 0x18C JUMPI JUMP JUMPDEST CALLDATALOAD SWAP1 PUSH1 0x1 PUSH1 0x1 PUSH1 0xA0 SHL SUB DUP3 AND DUP3 SUB PUSH2 0x18C JUMPI JUMP JUMPDEST CALLVALUE PUSH2 0x18C JUMPI PUSH1 0x40 CALLDATASIZE PUSH1 0x3 NOT ADD SLT PUSH2 0x18C JUMPI PUSH1 0x20 PUSH2 0x200 PUSH2 0x1D9 PUSH2 0x176 JUMP JUMPDEST PUSH1 0x24 CALLDATALOAD PUSH1 0x0 MSTORE PUSH1 0x0 DUP4 MSTORE PUSH1 0x40 PUSH1 0x0 KECCAK256 SWAP1 PUSH1 0x1 PUSH1 0x1 PUSH1 0xA0 SHL SUB AND PUSH1 0x0 MSTORE PUSH1 0x20 MSTORE PUSH1 0x40 PUSH1 0x0 KECCAK256 SWAP1 JUMP JUMPDEST SLOAD PUSH1 0x40 MLOAD SWAP1 DUP2 MSTORE RETURN JUMPDEST PUSH1 0x1 PUSH1 0x1 PUSH1 0xE0 SHL SUB NOT DUP2 AND SUB PUSH2 0x18C JUMPI JUMP JUMPDEST CALLVALUE PUSH2 0x18C JUMPI PUSH1 0x20 CALLDATASIZE PUSH1 0x3 NOT ADD SLT PUSH2 0x18C JUMPI PUSH1 0x20 PUSH1 0x1 PUSH1 0x1 PUSH1 0xE0 SHL SUB NOT PUSH1 0x4 CALLDATALOAD PUSH2 0x243 DUP2 PUSH2 0x209 JUMP JUMPDEST AND PUSH32 0xD9B67A2600000000000000000000000000000000000000000000000000000000 DUP2 EQ SWAP1 DUP2 ISZERO PUSH2 0x2AB JUMPI JUMPDEST DUP2 ISZERO PUSH2 0x281 JUMPI JUMPDEST POP PUSH1 0x40 MLOAD SWAP1 ISZERO ISZERO DUP2 MSTORE RETURN JUMPDEST PUSH32 0x1FFC9A700000000000000000000000000000000000000000000000000000000 SWAP2 POP EQ CODESIZE PUSH2 0x276 JUMP JUMPDEST PUSH32 0xE89341C00000000000000000000000000000000000000000000000000000000 DUP2 EQ SWAP2 POP PUSH2 0x26F JUMP JUMPDEST PUSH1 0x0 JUMPDEST DUP4 DUP2 LT PUSH2 0x2E8 JUMPI POP POP PUSH1 0x0 SWAP2 ADD MSTORE JUMP JUMPDEST DUP2 DUP2 ADD MLOAD DUP4 DUP3 ADD MSTORE PUSH1 0x20 ADD PUSH2 0x2D8 JUMP JUMPDEST SWAP1 PUSH1 0x20 SWAP2 PUSH2 0x311 DUP2 MLOAD DUP1 SWAP3 DUP2 DUP6 MSTORE DUP6 DUP1 DUP7 ADD SWAP2 ADD PUSH2 0x2D5 JUMP JUMPDEST PUSH1 0x1F ADD PUSH1 0x1F NOT AND ADD ADD SWAP1 JUMP JUMPDEST SWAP1 PUSH1 0x20 PUSH2 0x32E SWAP3 DUP2 DUP2 MSTORE ADD SWAP1 PUSH2 0x2F8 JUMP JUMPDEST SWAP1 JUMP JUMPDEST CALLVALUE PUSH2 0x18C JUMPI PUSH1 0x20 CALLDATASIZE PUSH1 0x3 NOT ADD SLT PUSH2 0x18C JUMPI PUSH1 0x4 CALLDATALOAD PUSH2 0x34D PUSH2 0x11E9 JUMP JUMPDEST PUSH1 0x0 SWAP2 DUP1 PUSH27 0x184F03E93FF9F4DAA797ED6E38ED64BF6A1F010000000000000000 DUP2 DUP2 DUP2 LT ISZERO PUSH2 0x4CB JUMPI JUMPDEST POP POP PUSH14 0x4EE2D6D415B85ACEF8100000000 DUP1 DUP4 LT ISZERO PUSH2 0x4BC JUMPI JUMPDEST POP PUSH7 0x2386F26FC10000 DUP1 DUP4 LT ISZERO PUSH2 0x4AD JUMPI JUMPDEST POP PUSH4 0x5F5E100 DUP1 DUP4 LT ISZERO PUSH2 0x49E JUMPI JUMPDEST POP PUSH2 0x2710 DUP1 DUP4 LT ISZERO PUSH2 0x48F JUMPI JUMPDEST POP PUSH1 0x64 DUP3 LT ISZERO PUSH2 0x47F JUMPI JUMPDEST PUSH1 0xA DUP1 SWAP3 LT ISZERO PUSH2 0x475 JUMPI JUMPDEST PUSH1 0x1 SWAP1 DUP2 PUSH1 0x21 PUSH2 0x3E7 PUSH1 0x1 DUP9 ADD PUSH2 0x15DA JUMP JUMPDEST SWAP7 DUP8 ADD ADD SWAP1 JUMPDEST PUSH2 0x432 JUMPI JUMPDEST PUSH1 0x40 MLOAD PUSH2 0x42E SWAP1 PUSH2 0x422 DUP2 PUSH2 0x414 DUP11 PUSH2 0x40E PUSH1 0x20 DUP5 ADD DUP13 PUSH2 0xAA8 JUMP JUMPDEST SWAP1 PUSH2 0xAA8 JUMP JUMPDEST SUB PUSH1 0x1F NOT DUP2 ADD DUP4 MSTORE DUP3 PUSH2 0x597 JUMP JUMPDEST PUSH1 0x40 MLOAD SWAP2 DUP3 SWAP2 DUP3 PUSH2 0x31D JUMP JUMPDEST SUB SWAP1 RETURN JUMPDEST PUSH1 0x0 NOT ADD SWAP1 DUP4 SWAP1 PUSH32 0x3031323334353637383961626364656600000000000000000000000000000000 DUP3 DUP3 MOD BYTE DUP4 MSTORE8 DIV SWAP2 DUP3 ISZERO PUSH2 0x470 JUMPI SWAP2 SWAP1 DUP3 PUSH2 0x3ED JUMP JUMPDEST PUSH2 0x3F2 JUMP JUMPDEST SWAP3 PUSH1 0x1 ADD SWAP3 PUSH2 0x3D5 JUMP JUMPDEST SWAP3 SWAP1 PUSH1 0x64 PUSH1 0x2 SWAP2 DIV SWAP2 ADD SWAP3 PUSH2 0x3CA JUMP JUMPDEST PUSH1 0x4 SWAP2 SWAP5 SWAP3 DIV SWAP2 ADD SWAP3 CODESIZE PUSH2 0x3BF JUMP JUMPDEST PUSH1 0x8 SWAP2 SWAP5 SWAP3 DIV SWAP2 ADD SWAP3 CODESIZE PUSH2 0x3B2 JUMP JUMPDEST PUSH1 0x10 SWAP2 SWAP5 SWAP3 DIV SWAP2 ADD SWAP3 CODESIZE PUSH2 0x3A3 JUMP JUMPDEST PUSH1 0x20 SWAP2 SWAP5 SWAP3 DIV SWAP2 ADD SWAP3 CODESIZE PUSH2 0x391 JUMP JUMPDEST PUSH1 0x40 SWAP6 POP DIV SWAP2 POP CODESIZE DUP1 PUSH2 0x377 JUMP JUMPDEST SWAP2 DUP2 PUSH1 0x1F DUP5 ADD SLT ISZERO PUSH2 0x18C JUMPI DUP3 CALLDATALOAD SWAP2 PUSH8 0xFFFFFFFFFFFFFFFF DUP4 GT PUSH2 0x18C JUMPI PUSH1 0x20 DUP4 DUP2 DUP7 ADD SWAP6 ADD ADD GT PUSH2 0x18C JUMPI JUMP JUMPDEST CALLVALUE PUSH2 0x18C JUMPI PUSH1 0x20 CALLDATASIZE PUSH1 0x3 NOT ADD SLT PUSH2 0x18C JUMPI PUSH1 0x4 CALLDATALOAD PUSH8 0xFFFFFFFFFFFFFFFF DUP2 GT PUSH2 0x18C JUMPI PUSH2 0x200 PUSH2 0x53D PUSH1 0x20 SWAP3 CALLDATASIZE SWAP1 PUSH1 0x4 ADD PUSH2 0x4D9 JUMP JUMPDEST SWAP1 PUSH2 0x130C JUMP JUMPDEST CALLVALUE PUSH2 0x18C JUMPI PUSH1 0x0 CALLDATASIZE PUSH1 0x3 NOT ADD SLT PUSH2 0x18C JUMPI PUSH1 0x20 PUSH1 0x40 MLOAD PUSH2 0x2710 DUP2 MSTORE RETURN JUMPDEST PUSH4 0x4E487B71 PUSH1 0xE0 SHL PUSH1 0x0 MSTORE PUSH1 0x41 PUSH1 0x4 MSTORE PUSH1 0x24 PUSH1 0x0 REVERT JUMPDEST PUSH1 0x20 DUP2 ADD SWAP1 DUP2 LT PUSH8 0xFFFFFFFFFFFFFFFF DUP3 GT OR PUSH2 0x592 JUMPI PUSH1 0x40 MSTORE JUMP JUMPDEST PUSH2 0x560 JUMP JUMPDEST SWAP1 PUSH1 0x1F DUP1 NOT SWAP2 ADD AND DUP2 ADD SWAP1 DUP2 LT PUSH8 0xFFFFFFFFFFFFFFFF DUP3 GT OR PUSH2 0x592 JUMPI PUSH1 0x40 MSTORE JUMP JUMPDEST PUSH8 0xFFFFFFFFFFFFFFFF DUP2 GT PUSH2 0x592 JUMPI PUSH1 0x5 SHL PUSH1 0x20 ADD SWAP1 JUMP JUMPDEST SWAP1 DUP1 PUSH1 0x1F DUP4 ADD SLT ISZERO PUSH2 0x18C JUMPI PUSH1 0x20 SWAP1 DUP3 CALLDATALOAD PUSH2 0x5EB DUP2 PUSH2 0x5B9 JUMP JUMPDEST SWAP4 PUSH2 0x5F9 PUSH1 0x40 MLOAD SWAP6 DUP7 PUSH2 0x597 JUMP JUMPDEST DUP2 DUP6 MSTORE PUSH1 0x20 DUP1 DUP7 ADD SWAP3 PUSH1 0x5 SHL DUP3 ADD ADD SWAP3 DUP4 GT PUSH2 0x18C JUMPI PUSH1 0x20 ADD SWAP1 JUMPDEST DUP3 DUP3 LT PUSH2 0x622 JUMPI POP POP POP POP SWAP1 JUMP JUMPDEST DUP2 CALLDATALOAD DUP2 MSTORE SWAP1 DUP4 ADD SWAP1 DUP4 ADD PUSH2 0x614 JUMP JUMPDEST PUSH8 0xFFFFFFFFFFFFFFFF DUP2 GT PUSH2 0x592 JUMPI PUSH1 0x1F ADD PUSH1 0x1F NOT AND PUSH1 0x20 ADD SWAP1 JUMP JUMPDEST SWAP3 SWAP2 SWAP3 PUSH2 0x659 DUP3 PUSH2 0x631 JUMP JUMPDEST SWAP2 PUSH2 0x667 PUSH1 0x40 MLOAD SWAP4 DUP5 PUSH2 0x597 JUMP JUMPDEST DUP3 SWAP5 DUP2 DUP5 MSTORE DUP2 DUP4 ADD GT PUSH2 0x18C JUMPI DUP3 DUP2 PUSH1 0x20 SWAP4 DUP5 PUSH1 0x0 SWAP7 ADD CALLDATACOPY ADD ADD MSTORE JUMP JUMPDEST SWAP1 DUP1 PUSH1 0x1F DUP4 ADD SLT ISZERO PUSH2 0x18C JUMPI DUP2 PUSH1 0x20 PUSH2 0x32E SWAP4 CALLDATALOAD SWAP2 ADD PUSH2 0x64D JUMP JUMPDEST CALLVALUE PUSH2 0x18C JUMPI PUSH1 0xA0 CALLDATASIZE PUSH1 0x3 NOT ADD SLT PUSH2 0x18C JUMPI PUSH2 0x6B8 PUSH2 0x176 JUMP JUMPDEST PUSH2 0x6C0 PUSH2 0x191 JUMP JUMPDEST SWAP1 PUSH1 0x44 CALLDATALOAD SWAP2 PUSH8 0xFFFFFFFFFFFFFFFF SWAP1 DUP2 DUP5 GT PUSH2 0x18C JUMPI PUSH2 0x6E5 PUSH1 0x4 SWAP5 CALLDATASIZE SWAP1 DUP7 ADD PUSH2 0x5D1 JUMP JUMPDEST SWAP1 PUSH1 0x64 CALLDATALOAD DUP4 DUP2 GT PUSH2 0x18C JUMPI PUSH2 0x6FD SWAP1 CALLDATASIZE SWAP1 DUP8 ADD PUSH2 0x5D1 JUMP JUMPDEST SWAP3 PUSH1 0x84 CALLDATALOAD SWAP1 DUP2 GT PUSH2 0x18C JUMPI PUSH2 0x715 SWAP1 CALLDATASIZE SWAP1 DUP8 ADD PUSH2 0x684 JUMP JUMPDEST SWAP4 PUSH1 0x1 PUSH1 0x1 PUSH1 0xA0 SHL SUB DUP1 DUP3 AND SWAP1 CALLER DUP3 EQ ISZERO DUP1 PUSH2 0x7A4 JUMPI JUMPDEST PUSH2 0x777 JUMPI DUP4 AND ISZERO PUSH2 0x75F JUMPI ISZERO PUSH2 0x748 JUMPI PUSH2 0x746 SWAP6 POP PUSH2 0x199B JUMP JUMPDEST STOP JUMPDEST PUSH1 0x24 DUP7 PUSH1 0x0 PUSH1 0x40 MLOAD SWAP2 PUSH3 0x6A0D45 PUSH1 0xE2 SHL DUP4 MSTORE DUP3 ADD MSTORE REVERT JUMPDEST PUSH1 0x24 DUP8 PUSH1 0x0 PUSH1 0x40 MLOAD SWAP2 PUSH4 0x2BFA23E7 PUSH1 0xE1 SHL DUP4 MSTORE DUP3 ADD MSTORE REVERT JUMPDEST PUSH1 0x40 DUP1 MLOAD PUSH4 0x711BEC91 PUSH1 0xE1 SHL DUP2 MSTORE CALLER DUP2 DUP12 ADD SWAP1 DUP2 MSTORE PUSH1 0x1 PUSH1 0x1 PUSH1 0xA0 SHL SUB DUP7 AND PUSH1 0x20 DUP3 ADD MSTORE SWAP1 SWAP2 DUP3 SWAP2 ADD SUB SWAP1 REVERT JUMPDEST POP DUP2 PUSH1 0x0 MSTORE PUSH1 0x1 PUSH1 0x20 MSTORE PUSH1 0xFF PUSH2 0x7D1 CALLER PUSH1 0x40 PUSH1 0x0 KECCAK256 SWAP1 PUSH1 0x1 PUSH1 0x1 PUSH1 0xA0 SHL SUB AND PUSH1 0x0 MSTORE PUSH1 0x20 MSTORE PUSH1 0x40 PUSH1 0x0 KECCAK256 SWAP1 JUMP JUMPDEST SLOAD AND ISZERO PUSH2 0x72C JUMP JUMPDEST CALLVALUE PUSH2 0x18C JUMPI PUSH1 0x0 DUP1 PUSH1 0x3 NOT CALLDATASIZE ADD SLT PUSH2 0x8BE JUMPI PUSH2 0x7F3 PUSH2 0x160C JUMP JUMPDEST SELFBALANCE SWAP1 PUSH1 0x1 PUSH1 0x1 PUSH1 0xA0 SHL SUB PUSH1 0x3 SLOAD AND DUP1 PUSH32 0x7FCF532C15F0A6DB0BD6D0E038BEA71D30D808C7D98CB3BF7268A95BF5081B65 PUSH1 0x20 PUSH1 0x40 MLOAD DUP7 DUP2 MSTORE LOG2 DUP3 SELFBALANCE LT PUSH2 0x886 JUMPI DUP2 DUP1 DUP1 SWAP5 DUP2 SWAP4 GAS CALL PUSH2 0x843 PUSH2 0x1650 JUMP JUMPDEST SWAP1 ISZERO PUSH2 0x84D JUMPI POP DUP1 RETURN JUMPDEST DUP1 MLOAD ISZERO PUSH2 0x85C JUMPI PUSH1 0x20 DUP2 MLOAD SWAP2 ADD REVERT JUMPDEST PUSH1 0x4 PUSH1 0x40 MLOAD PUSH32 0xD6BDA27500000000000000000000000000000000000000000000000000000000 DUP2 MSTORE REVERT JUMPDEST PUSH1 0x40 MLOAD PUSH32 0xCF47918100000000000000000000000000000000000000000000000000000000 DUP2 MSTORE SELFBALANCE PUSH1 0x4 DUP3 ADD MSTORE PUSH1 0x24 DUP2 ADD DUP5 SWAP1 MSTORE PUSH1 0x44 SWAP1 REVERT JUMPDEST DUP1 REVERT JUMPDEST CALLVALUE PUSH2 0x18C JUMPI PUSH1 0x40 CALLDATASIZE PUSH1 0x3 NOT ADD SLT PUSH2 0x18C JUMPI PUSH1 0x4 CALLDATALOAD PUSH1 0x24 CALLDATALOAD PUSH8 0xFFFFFFFFFFFFFFFF DUP2 GT PUSH2 0x18C JUMPI PUSH2 0x8F5 SWAP1 CALLDATASIZE SWAP1 PUSH1 0x4 ADD PUSH2 0x4D9 JUMP JUMPDEST PUSH2 0x8FD PUSH2 0x1680 JUMP JUMPDEST PUSH1 0x0 DUP4 DUP2 MSTORE PUSH1 0x20 DUP2 DUP2 MSTORE PUSH1 0x40 DUP1 DUP4 KECCAK256 CALLER DUP5 MSTORE SWAP1 SWAP2 MSTORE SWAP1 KECCAK256 SLOAD ISZERO PUSH2 0x964 JUMPI PUSH2 0x957 PUSH32 0x8EB20336E0911A379870111EC015103173254D8F89A70B406FE0D198F8729470 SWAP2 PUSH2 0x949 DUP6 CALLER PUSH2 0x16BB JUMP JUMPDEST PUSH1 0x40 MLOAD SWAP2 DUP3 SWAP2 CALLER SWAP6 DUP4 PUSH2 0x1346 JUMP JUMPDEST SUB SWAP1 LOG3 PUSH2 0x746 PUSH1 0x1 PUSH1 0x4 SSTORE JUMP JUMPDEST PUSH1 0x64 PUSH1 0x40 MLOAD PUSH3 0x461BCD PUSH1 0xE5 SHL DUP2 MSTORE PUSH1 0x20 PUSH1 0x4 DUP3 ADD MSTORE PUSH1 0x11 PUSH1 0x24 DUP3 ADD MSTORE PUSH32 0x4E6F20736565647320746F20636C61696D000000000000000000000000000000 PUSH1 0x44 DUP3 ADD MSTORE REVERT JUMPDEST SWAP1 DUP2 MLOAD DUP1 DUP3 MSTORE PUSH1 0x20 DUP1 DUP1 SWAP4 ADD SWAP4 ADD SWAP2 PUSH1 0x0 JUMPDEST DUP3 DUP2 LT PUSH2 0x9C8 JUMPI POP POP POP POP SWAP1 JUMP JUMPDEST DUP4 MLOAD DUP6 MSTORE SWAP4 DUP2 ADD SWAP4 SWAP3 DUP2 ADD SWAP3 PUSH1 0x1 ADD PUSH2 0x9BA JUMP JUMPDEST SWAP1 PUSH1 0x20 PUSH2 0x32E SWAP3 DUP2 DUP2 MSTORE ADD SWAP1 PUSH2 0x9A8 JUMP JUMPDEST CALLVALUE PUSH2 0x18C JUMPI PUSH1 0x40 CALLDATASIZE PUSH1 0x3 NOT ADD SLT PUSH2 0x18C JUMPI PUSH1 0x4 CALLDATALOAD PUSH8 0xFFFFFFFFFFFFFFFF DUP1 DUP3 GT PUSH2 0x18C JUMPI CALLDATASIZE PUSH1 0x23 DUP4 ADD SLT ISZERO PUSH2 0x18C JUMPI DUP2 PUSH1 0x4 ADD CALLDATALOAD PUSH2 0xA2A DUP2 PUSH2 0x5B9 JUMP JUMPDEST SWAP3 PUSH2 0xA38 PUSH1 0x40 MLOAD SWAP5 DUP6 PUSH2 0x597 JUMP JUMPDEST DUP2 DUP5 MSTORE PUSH1 0x20 SWAP2 PUSH1 0x24 PUSH1 0x20 DUP7 ADD SWAP2 PUSH1 0x5 SHL DUP4 ADD ADD SWAP2 CALLDATASIZE DUP4 GT PUSH2 0x18C JUMPI PUSH1 0x24 ADD SWAP1 JUMPDEST DUP3 DUP3 LT PUSH2 0xA91 JUMPI DUP6 PUSH1 0x24 CALLDATALOAD DUP7 DUP2 GT PUSH2 0x18C JUMPI PUSH2 0x42E SWAP2 PUSH2 0xA7F PUSH2 0xA85 SWAP3 CALLDATASIZE SWAP1 PUSH1 0x4 ADD PUSH2 0x5D1 JUMP JUMPDEST SWAP1 PUSH2 0x1381 JUMP JUMPDEST PUSH1 0x40 MLOAD SWAP2 DUP3 SWAP2 DUP3 PUSH2 0x9DC JUMP JUMPDEST DUP4 DUP1 SWAP2 PUSH2 0xA9D DUP5 PUSH2 0x1A7 JUMP JUMPDEST DUP2 MSTORE ADD SWAP2 ADD SWAP1 PUSH2 0xA58 JUMP JUMPDEST SWAP1 PUSH2 0xABB PUSH1 0x20 SWAP3 DUP3 DUP2 MLOAD SWAP5 DUP6 SWAP3 ADD PUSH2 0x2D5 JUMP JUMPDEST ADD SWAP1 JUMP JUMPDEST CALLVALUE PUSH2 0x18C JUMPI PUSH1 0x20 CALLDATASIZE PUSH1 0x3 NOT ADD SLT PUSH2 0x18C JUMPI PUSH1 0x4 CALLDATALOAD PUSH8 0xFFFFFFFFFFFFFFFF DUP2 GT PUSH2 0x18C JUMPI CALLDATASIZE PUSH1 0x23 DUP3 ADD SLT ISZERO PUSH2 0x18C JUMPI PUSH2 0xB1C PUSH1 0x20 PUSH2 0xB09 PUSH2 0x42E SWAP4 CALLDATASIZE SWAP1 PUSH1 0x24 DUP2 PUSH1 0x4 ADD CALLDATALOAD SWAP2 ADD PUSH2 0x64D JUMP JUMPDEST DUP2 PUSH1 0x40 MLOAD SWAP4 DUP3 DUP6 DUP1 SWAP5 MLOAD SWAP4 DUP5 SWAP3 ADD PUSH2 0x2D5 JUMP JUMPDEST DUP2 ADD PUSH1 0x5 DUP2 MSTORE SUB ADD SWAP1 KECCAK256 SLOAD PUSH1 0x40 MLOAD SWAP2 DUP3 SWAP2 DUP3 SWAP2 SWAP1 PUSH1 0x20 DUP4 ADD SWAP3 MSTORE JUMP JUMPDEST CALLVALUE PUSH2 0x18C JUMPI PUSH1 0x0 DUP1 PUSH1 0x3 NOT CALLDATASIZE ADD SLT PUSH2 0x8BE JUMPI PUSH2 0xB52 PUSH2 0x160C JUMP JUMPDEST DUP1 PUSH1 0x1 PUSH1 0x1 PUSH1 0xA0 SHL SUB PUSH1 0x3 SLOAD PUSH20 0xFFFFFFFFFFFFFFFFFFFFFFFFFFFFFFFFFFFFFFFF NOT DUP2 AND PUSH1 0x3 SSTORE AND PUSH32 0x8BE0079C531659141344CD1FD0A4F28419497F9722A3DAAFE3B4186F6B6457E0 DUP3 DUP1 LOG3 DUP1 RETURN JUMPDEST CALLVALUE PUSH2 0x18C JUMPI PUSH1 0x0 CALLDATASIZE PUSH1 0x3 NOT ADD SLT PUSH2 0x18C JUMPI PUSH1 0x20 PUSH1 0x1 PUSH1 0x1 PUSH1 0xA0 SHL SUB PUSH1 0x3 SLOAD AND PUSH1 0x40 MLOAD SWAP1 DUP2 MSTORE RETURN JUMPDEST PUSH1 0x40 CALLDATASIZE PUSH1 0x3 NOT ADD SLT PUSH2 0x18C JUMPI PUSH1 0x4 CALLDATALOAD PUSH8 0xFFFFFFFFFFFFFFFF DUP2 GT PUSH2 0x18C JUMPI PUSH2 0xBF4 SWAP1 CALLDATASIZE SWAP1 PUSH1 0x4 ADD PUSH2 0x4D9 JUMP JUMPDEST SWAP1 PUSH32 0x38F7C5C3827FCB56DABD1150E538E385707D18E91DD676FF68CF63CFA07D0AF7 PUSH1 0x24 CALLDATALOAD PUSH2 0xC21 PUSH2 0x1680 JUMP JUMPDEST PUSH2 0xC2B DUP5 DUP5 PUSH2 0x130C JUMP JUMPDEST SLOAD SWAP4 PUSH2 0xC38 DUP6 ISZERO ISZERO PUSH2 0x143F JUMP JUMPDEST PUSH2 0xC4C PUSH2 0xC44 DUP4 PUSH2 0x14A0 JUMP JUMPDEST CALLVALUE LT ISZERO PUSH2 0x14BC JUMP JUMPDEST PUSH2 0xC77 PUSH2 0x2710 PUSH2 0xC70 DUP5 PUSH2 0xC6A DUP10 PUSH1 0x0 MSTORE PUSH1 0x7 PUSH1 0x20 MSTORE PUSH1 0x40 PUSH1 0x0 KECCAK256 SWAP1 JUMP JUMPDEST SLOAD PUSH2 0x1507 JUMP JUMPDEST GT ISZERO PUSH2 0x1514 JUMP JUMPDEST PUSH2 0xCB7 PUSH1 0xA PUSH2 0xCB0 DUP5 PUSH2 0xC6A DUP10 PUSH2 0xCA1 CALLER PUSH1 0x1 PUSH1 0x1 PUSH1 0xA0 SHL SUB AND PUSH1 0x0 MSTORE PUSH1 0x8 PUSH1 0x20 MSTORE PUSH1 0x40 PUSH1 0x0 KECCAK256 SWAP1 JUMP JUMPDEST SWAP1 PUSH1 0x0 MSTORE PUSH1 0x20 MSTORE PUSH1 0x40 PUSH1 0x0 KECCAK256 SWAP1 JUMP JUMPDEST GT ISZERO PUSH2 0x155F JUMP JUMPDEST PUSH2 0xCCB DUP6 PUSH1 0x0 MSTORE PUSH1 0x7 PUSH1 0x20 MSTORE PUSH1 0x40 PUSH1 0x0 KECCAK256 SWAP1 JUMP JUMPDEST PUSH2 0xCD6 DUP4 DUP3 SLOAD PUSH2 0x1507 JUMP JUMPDEST SWAP1 SSTORE PUSH2 0xCF9 DUP6 PUSH2 0xCA1 CALLER PUSH1 0x1 PUSH1 0x1 PUSH1 0xA0 SHL SUB AND PUSH1 0x0 MSTORE PUSH1 0x8 PUSH1 0x20 MSTORE PUSH1 0x40 PUSH1 0x0 KECCAK256 SWAP1 JUMP JUMPDEST PUSH2 0xD04 DUP4 DUP3 SLOAD PUSH2 0x1507 JUMP JUMPDEST SWAP1 SSTORE PUSH2 0xD19 PUSH2 0xD11 PUSH2 0x15AA JUMP JUMPDEST DUP4 DUP8 CALLER PUSH2 0x1852 JUMP JUMPDEST PUSH2 0x957 PUSH1 0x40 MLOAD SWAP3 DUP4 SWAP3 CALLER SWAP7 DUP5 PUSH2 0x15BD JUMP JUMPDEST CALLVALUE PUSH2 0x18C JUMPI PUSH1 0x40 CALLDATASIZE PUSH1 0x3 NOT ADD SLT PUSH2 0x18C JUMPI PUSH2 0xD43 PUSH2 0x176 JUMP JUMPDEST PUSH1 0x24 CALLDATALOAD DUP1 ISZERO ISZERO DUP1 DUP3 SUB PUSH2 0x18C JUMPI PUSH1 0x1 PUSH1 0x1 PUSH1 0xA0 SHL SUB DUP4 AND SWAP3 DUP4 ISZERO PUSH2 0xDD6 JUMPI PUSH2 0xD8B SWAP1 CALLER PUSH1 0x0 MSTORE PUSH1 0x1 PUSH1 0x20 MSTORE PUSH1 0x40 PUSH1 0x0 KECCAK256 SWAP1 PUSH1 0x1 PUSH1 0x1 PUSH1 0xA0 SHL SUB AND PUSH1 0x0 MSTORE PUSH1 0x20 MSTORE PUSH1 0x40 PUSH1 0x0 KECCAK256 SWAP1 JUMP JUMPDEST SWAP1 PUSH1 0xFF DUP1 NOT DUP4 SLOAD AND SWAP2 AND OR SWAP1 SSTORE PUSH32 0x17307EAB39AB6107E8899845AD3D59BD9653F200F220920489CA2B5937696C31 PUSH1 0x40 MLOAD DUP1 PUSH2 0xDD1 CALLER SWAP5 DUP3 SWAP2 SWAP1 SWAP2 PUSH1 0x20 DUP2 ADD SWAP3 ISZERO ISZERO SWAP1 MSTORE JUMP JUMPDEST SUB SWAP1 LOG3 STOP JUMPDEST PUSH1 0x24 PUSH1 0x40 MLOAD PUSH32 0xCED3E10000000000000000000000000000000000000000000000000000000000 DUP2 MSTORE PUSH1 0x0 PUSH1 0x4 DUP3 ADD MSTORE REVERT JUMPDEST CALLVALUE PUSH2 0x18C JUMPI PUSH1 0x20 CALLDATASIZE PUSH1 0x3 NOT ADD SLT PUSH2 0x18C JUMPI PUSH1 0x4 CALLDATALOAD PUSH1 0x0 MSTORE PUSH1 0x7 PUSH1 0x20 MSTORE PUSH1 0x20 PUSH1 0x40 PUSH1 0x0 KECCAK256 SLOAD PUSH1 0x40 MLOAD SWAP1 DUP2 MSTORE RETURN JUMPDEST CALLVALUE PUSH2 0x18C JUMPI PUSH1 0x0 CALLDATASIZE PUSH1 0x3 NOT ADD SLT PUSH2 0x18C JUMPI PUSH1 0x20 PUSH1 0x40 MLOAD PUSH7 0x2386F26FC10000 DUP2 MSTORE RETURN JUMPDEST CALLVALUE PUSH2 0x18C JUMPI PUSH1 0x40 CALLDATASIZE PUSH1 0x3 NOT ADD SLT PUSH2 0x18C JUMPI PUSH1 0x1 PUSH1 0x1 PUSH1 0xA0 SHL SUB PUSH2 0xE76 PUSH2 0x176 JUMP JUMPDEST AND PUSH1 0x0 MSTORE PUSH1 0x8 PUSH1 0x20 MSTORE PUSH1 0x40 PUSH1 0x0 KECCAK256 PUSH1 0x24 CALLDATALOAD PUSH1 0x0 MSTORE PUSH1 0x20 MSTORE PUSH1 0x20 PUSH1 0x40 PUSH1 0x0 KECCAK256 SLOAD PUSH1 0x40 MLOAD SWAP1 DUP2 MSTORE RETURN JUMPDEST CALLVALUE PUSH2 0x18C JUMPI PUSH1 0x40 CALLDATASIZE PUSH1 0x3 NOT ADD SLT PUSH2 0x18C JUMPI PUSH1 0x20 PUSH1 0xFF PUSH2 0xEF3 PUSH2 0xEBD PUSH2 0x176 JUMP JUMPDEST PUSH1 0x1 PUSH1 0x1 PUSH1 0xA0 SHL SUB PUSH2 0xECD PUSH2 0x191 JUMP JUMPDEST SWAP2 AND PUSH1 0x0 MSTORE PUSH1 0x1 DUP5 MSTORE PUSH1 0x40 PUSH1 0x0 KECCAK256 SWAP1 PUSH1 0x1 PUSH1 0x1 PUSH1 0xA0 SHL SUB AND PUSH1 0x0 MSTORE PUSH1 0x20 MSTORE PUSH1 0x40 PUSH1 0x0 KECCAK256 SWAP1 JUMP JUMPDEST SLOAD AND PUSH1 0x40 MLOAD SWAP1 ISZERO ISZERO DUP2 MSTORE RETURN JUMPDEST CALLVALUE PUSH2 0x18C JUMPI PUSH1 0x20 DUP1 PUSH1 0x3 NOT CALLDATASIZE ADD SLT PUSH2 0x18C JUMPI PUSH1 0x0 PUSH1 0x4 CALLDATALOAD DUP2 MSTORE PUSH1 0x6 DUP3 MSTORE PUSH1 0x40 DUP2 KECCAK256 SWAP2 PUSH1 0x40 MLOAD SWAP2 DUP1 DUP5 SLOAD SWAP5 PUSH1 0x1 DUP7 PUSH1 0x1 SHR SWAP4 PUSH1 0x1 DUP9 AND SWAP3 DUP4 ISZERO PUSH2 0x1006 JUMPI JUMPDEST DUP7 DUP7 LT DUP5 EQ PUSH2 0xFF2 JUMPI DUP8 SWAP9 PUSH2 0xF58 DUP8 DUP11 SWAP9 SWAP10 SWAP11 PUSH1 0x20 SWAP2 DUP2 MSTORE ADD SWAP1 JUMP JUMPDEST SWAP5 SWAP1 DUP2 ISZERO PUSH2 0xFD1 JUMPI POP PUSH1 0x1 EQ PUSH2 0xF8B JUMPI JUMPDEST DUP6 DUP9 PUSH2 0xF77 DUP3 DUP9 SUB DUP4 PUSH2 0x597 JUMP JUMPDEST PUSH2 0x42E PUSH1 0x40 MLOAD SWAP3 DUP3 DUP5 SWAP4 DUP5 MSTORE DUP4 ADD SWAP1 PUSH2 0x2F8 JUMP JUMPDEST PUSH2 0xF9E SWAP2 SWAP7 SWAP3 SWAP5 POP PUSH1 0x0 MSTORE PUSH1 0x20 PUSH1 0x0 KECCAK256 SWAP1 JUMP JUMPDEST SWAP5 SWAP3 JUMPDEST DUP7 DUP3 DUP6 LT PUSH2 0xFBB JUMPI POP POP POP PUSH2 0xF77 SWAP4 POP ADD CODESIZE DUP1 DUP1 DUP1 PUSH2 0xF69 JUMP JUMPDEST DUP7 SLOAD DUP6 DUP6 ADD MSTORE SWAP6 DUP2 ADD SWAP6 DUP9 SWAP6 POP SWAP1 SWAP4 ADD SWAP3 PUSH2 0xFA1 JUMP JUMPDEST SWAP4 POP POP POP POP PUSH2 0xF77 SWAP5 SWAP2 SWAP3 POP PUSH1 0xFF NOT AND DUP3 MSTORE ISZERO ISZERO PUSH1 0x5 SHL ADD CODESIZE DUP1 DUP1 DUP1 PUSH2 0xF69 JUMP JUMPDEST PUSH1 0x24 DUP3 PUSH4 0x4E487B71 PUSH1 0xE0 SHL DUP2 MSTORE PUSH1 0x22 PUSH1 0x4 MSTORE REVERT JUMPDEST SWAP5 PUSH1 0x7F AND SWAP5 PUSH2 0xF3C JUMP JUMPDEST CALLVALUE PUSH2 0x18C JUMPI PUSH1 0xA0 CALLDATASIZE PUSH1 0x3 NOT ADD SLT PUSH2 0x18C JUMPI PUSH2 0x1029 PUSH2 0x176 JUMP JUMPDEST PUSH2 0x1031 PUSH2 0x191 JUMP JUMPDEST PUSH1 0x84 CALLDATALOAD PUSH8 0xFFFFFFFFFFFFFFFF DUP2 GT PUSH2 0x18C JUMPI PUSH2 0x1051 SWAP1 CALLDATASIZE SWAP1 PUSH1 0x4 ADD PUSH2 0x684 JUMP JUMPDEST SWAP1 PUSH1 0x1 PUSH1 0x1 PUSH1 0xA0 SHL SUB DUP1 DUP5 AND SWAP1 CALLER DUP3 EQ ISZERO DUP1 PUSH2 0x1108 JUMPI JUMPDEST PUSH2 0x10E1 JUMPI DUP3 AND ISZERO PUSH2 0x10C9 JUMPI ISZERO PUSH2 0x10B2 JUMPI PUSH2 0x746 SWAP3 PUSH2 0x10AA PUSH1 0x64 CALLDATALOAD PUSH1 0x44 CALLDATALOAD SWAP2 PUSH1 0x40 MLOAD SWAP3 PUSH1 0x1 DUP5 MSTORE PUSH1 0x20 DUP5 ADD MSTORE PUSH1 0x40 DUP4 ADD SWAP2 PUSH1 0x1 DUP4 MSTORE PUSH1 0x60 DUP5 ADD MSTORE PUSH1 0x80 DUP4 ADD PUSH1 0x40 MSTORE JUMP JUMPDEST SWAP3 SWAP1 SWAP2 PUSH2 0x199B JUMP JUMPDEST PUSH1 0x24 PUSH1 0x40 MLOAD PUSH3 0x6A0D45 PUSH1 0xE2 SHL DUP2 MSTORE PUSH1 0x0 PUSH1 0x4 DUP3 ADD MSTORE REVERT JUMPDEST PUSH1 0x24 PUSH1 0x40 MLOAD PUSH4 0x2BFA23E7 PUSH1 0xE1 SHL DUP2 MSTORE PUSH1 0x0 PUSH1 0x4 DUP3 ADD MSTORE REVERT JUMPDEST PUSH1 0x40 MLOAD PUSH4 0x711BEC91 PUSH1 0xE1 SHL DUP2 MSTORE CALLER PUSH1 0x4 DUP3 ADD MSTORE PUSH1 0x1 PUSH1 0x1 PUSH1 0xA0 SHL SUB DUP7 AND PUSH1 0x24 DUP3 ADD MSTORE PUSH1 0x44 SWAP1 REVERT JUMPDEST POP DUP2 PUSH1 0x0 MSTORE PUSH1 0x1 PUSH1 0x20 MSTORE PUSH1 0xFF PUSH2 0x1135 CALLER PUSH1 0x40 PUSH1 0x0 KECCAK256 SWAP1 PUSH1 0x1 PUSH1 0x1 PUSH1 0xA0 SHL SUB AND PUSH1 0x0 MSTORE PUSH1 0x20 MSTORE PUSH1 0x40 PUSH1 0x0 KECCAK256 SWAP1 JUMP JUMPDEST SLOAD AND ISZERO PUSH2 0x1068 JUMP JUMPDEST CALLVALUE PUSH2 0x18C JUMPI PUSH1 0x20 CALLDATASIZE PUSH1 0x3 NOT ADD SLT PUSH2 0x18C JUMPI PUSH2 0x1156 PUSH2 0x176 JUMP JUMPDEST PUSH2 0x115E PUSH2 0x160C JUMP JUMPDEST PUSH1 0x1 PUSH1 0x1 PUSH1 0xA0 SHL SUB DUP1 SWAP2 AND SWAP1 DUP2 ISZERO PUSH2 0x11B8 JUMPI PUSH1 0x3 SLOAD DUP3 PUSH20 0xFFFFFFFFFFFFFFFFFFFFFFFFFFFFFFFFFFFFFFFF NOT DUP3 AND OR PUSH1 0x3 SSTORE AND PUSH32 0x8BE0079C531659141344CD1FD0A4F28419497F9722A3DAAFE3B4186F6B6457E0 PUSH1 0x0 DUP1 LOG3 STOP JUMPDEST PUSH1 0x24 PUSH1 0x40 MLOAD PUSH32 0x1E4FBDF700000000000000000000000000000000000000000000000000000000 DUP2 MSTORE PUSH1 0x0 PUSH1 0x4 DUP3 ADD MSTORE REVERT JUMPDEST PUSH1 0x40 MLOAD SWAP1 PUSH1 0x0 PUSH1 0x2 SLOAD SWAP1 PUSH1 0x1 DUP3 PUSH1 0x1 SHR SWAP3 PUSH1 0x1 DUP2 AND SWAP2 DUP3 ISZERO PUSH2 0x12D5 JUMPI JUMPDEST PUSH1 0x20 SWAP2 PUSH1 0x20 DUP7 LT DUP5 EQ PUSH2 0x12C1 JUMPI DUP6 DUP9 MSTORE DUP8 SWAP5 SWAP4 PUSH1 0x20 DUP7 ADD SWAP4 SWAP3 SWAP2 DUP2 ISZERO PUSH2 0x12A2 JUMPI POP PUSH1 0x1 EQ PUSH2 0x1240 JUMPI JUMPDEST POP POP POP PUSH2 0x123E SWAP3 POP SUB DUP4 PUSH2 0x597 JUMP JUMPDEST JUMP JUMPDEST SWAP3 POP SWAP4 PUSH2 0x126F PUSH1 0x2 PUSH1 0x0 MSTORE PUSH32 0x405787FA12A823E0F2B7631CC41B3BA8828B3321CA811111FA75CD3AA3BB5ACE SWAP1 JUMP JUMPDEST SWAP5 PUSH1 0x0 SWAP4 JUMPDEST DUP3 DUP6 LT PUSH2 0x128C JUMPI POP POP POP PUSH2 0x123E SWAP4 POP ADD CODESIZE DUP1 DUP1 PUSH2 0x122F JUMP JUMPDEST DUP7 SLOAD DUP6 DUP6 ADD MSTORE SWAP6 DUP7 ADD SWAP6 DUP9 SWAP6 POP SWAP4 DUP2 ADD SWAP4 PUSH2 0x1274 JUMP JUMPDEST SWAP3 POP POP POP PUSH2 0x123E SWAP5 SWAP2 SWAP3 POP PUSH1 0xFF NOT AND DUP3 MSTORE ISZERO ISZERO PUSH1 0x5 SHL ADD CODESIZE DUP1 DUP1 PUSH2 0x122F JUMP JUMPDEST PUSH1 0x24 DUP6 PUSH4 0x4E487B71 PUSH1 0xE0 SHL DUP2 MSTORE PUSH1 0x22 PUSH1 0x4 MSTORE REVERT JUMPDEST SWAP4 PUSH1 0x7F AND SWAP4 PUSH2 0x1206 JUMP JUMPDEST PUSH2 0x1308 SWAP2 PUSH1 0x0 MSTORE PUSH1 0x0 PUSH1 0x20 MSTORE PUSH1 0x40 PUSH1 0x0 KECCAK256 SWAP1 PUSH1 0x1 PUSH1 0x1 PUSH1 0xA0 SHL SUB AND PUSH1 0x0 MSTORE PUSH1 0x20 MSTORE PUSH1 0x40 PUSH1 0x0 KECCAK256 SWAP1 JUMP JUMPDEST SLOAD SWAP1 JUMP JUMPDEST PUSH1 0x20 SWAP1 DUP3 PUSH1 0x40 MLOAD SWAP4 DUP5 SWAP3 DUP4 CALLDATACOPY DUP2 ADD PUSH1 0x5 DUP2 MSTORE SUB ADD SWAP1 KECCAK256 SWAP1 JUMP JUMPDEST SWAP1 DUP1 PUSH1 0x20 SWAP4 SWAP3 DUP2 DUP5 MSTORE DUP5 DUP5 ADD CALLDATACOPY PUSH1 0x0 DUP3 DUP3 ADD DUP5 ADD MSTORE PUSH1 0x1F ADD PUSH1 0x1F NOT AND ADD ADD SWAP1 JUMP JUMPDEST SWAP2 PUSH1 0x20 PUSH2 0x32E SWAP4 DUP2 DUP2 MSTORE ADD SWAP2 PUSH2 0x1325 JUMP JUMPDEST DUP1 MLOAD DUP3 LT ISZERO PUSH2 0x136B JUMPI PUSH1 0x20 SWAP2 PUSH1 0x5 SHL ADD ADD SWAP1 JUMP JUMPDEST PUSH4 0x4E487B71 PUSH1 0xE0 SHL PUSH1 0x0 MSTORE PUSH1 0x32 PUSH1 0x4 MSTORE PUSH1 0x24 PUSH1 0x0 REVERT JUMPDEST SWAP2 SWAP1 SWAP2 DUP1 MLOAD DUP4 MLOAD DUP1 DUP3 SUB PUSH2 0x1404 JUMPI POP POP DUP1 MLOAD SWAP1 PUSH2 0x13B6 PUSH2 0x13A0 DUP4 PUSH2 0x5B9 JUMP JUMPDEST SWAP3 PUSH2 0x13AE PUSH1 0x40 MLOAD SWAP5 DUP6 PUSH2 0x597 JUMP JUMPDEST DUP1 DUP5 MSTORE PUSH2 0x5B9 JUMP JUMPDEST PUSH1 0x20 SWAP2 SWAP1 PUSH1 0x1F NOT ADD CALLDATASIZE DUP5 DUP5 ADD CALLDATACOPY PUSH1 0x0 JUMPDEST DUP2 MLOAD DUP2 LT ISZERO PUSH2 0x13FC JUMPI DUP1 PUSH2 0x13EB PUSH1 0x1 SWAP3 PUSH1 0x5 SHL DUP6 DUP1 DUP3 DUP8 ADD ADD MLOAD SWAP2 DUP11 ADD ADD MLOAD SWAP1 PUSH2 0x12DF JUMP JUMPDEST PUSH2 0x13F5 DUP3 DUP8 PUSH2 0x1357 JUMP JUMPDEST MSTORE ADD PUSH2 0x13C6 JUMP JUMPDEST POP SWAP2 SWAP4 POP POP POP JUMP JUMPDEST PUSH1 0x40 MLOAD PUSH32 0x5B05999100000000000000000000000000000000000000000000000000000000 DUP2 MSTORE PUSH1 0x4 DUP2 ADD SWAP2 SWAP1 SWAP2 MSTORE PUSH1 0x24 DUP2 ADD SWAP2 SWAP1 SWAP2 MSTORE PUSH1 0x44 SWAP1 REVERT JUMPDEST ISZERO PUSH2 0x1446 JUMPI JUMP JUMPDEST PUSH1 0x64 PUSH1 0x40 MLOAD PUSH3 0x461BCD PUSH1 0xE5 SHL DUP2 MSTORE PUSH1 0x20 PUSH1 0x4 DUP3 ADD MSTORE PUSH1 0x13 PUSH1 0x24 DUP3 ADD MSTORE PUSH32 0x496E76616C6964207A6F64696163207369676E00000000000000000000000000 PUSH1 0x44 DUP3 ADD MSTORE REVERT JUMPDEST PUSH4 0x4E487B71 PUSH1 0xE0 SHL PUSH1 0x0 MSTORE PUSH1 0x11 PUSH1 0x4 MSTORE PUSH1 0x24 PUSH1 0x0 REVERT JUMPDEST SWAP1 PUSH7 0x2386F26FC10000 SWAP2 DUP1 DUP4 MUL SWAP3 DUP4 DIV SUB PUSH2 0x14B7 JUMPI JUMP JUMPDEST PUSH2 0x148A JUMP JUMPDEST ISZERO PUSH2 0x14C3 JUMPI JUMP JUMPDEST PUSH1 0x64 PUSH1 0x40 MLOAD PUSH3 0x461BCD PUSH1 0xE5 SHL DUP2 MSTORE PUSH1 0x20 PUSH1 0x4 DUP3 ADD MSTORE PUSH1 0x14 PUSH1 0x24 DUP3 ADD MSTORE PUSH32 0x496E73756666696369656E74207061796D656E74000000000000000000000000 PUSH1 0x44 DUP3 ADD MSTORE REVERT JUMPDEST SWAP2 SWAP1 DUP3 ADD DUP1 SWAP3 GT PUSH2 0x14B7 JUMPI JUMP JUMPDEST ISZERO PUSH2 0x151B JUMPI JUMP JUMPDEST PUSH1 0x64 PUSH1 0x40 MLOAD PUSH3 0x461BCD PUSH1 0xE5 SHL DUP2 MSTORE PUSH1 0x20 PUSH1 0x4 DUP3 ADD MSTORE PUSH1 0x12 PUSH1 0x24 DUP3 ADD MSTORE PUSH32 0x45786365656473206D617820737570706C790000000000000000000000000000 PUSH1 0x44 DUP3 ADD MSTORE REVERT JUMPDEST ISZERO PUSH2 0x1566 JUMPI JUMP JUMPDEST PUSH1 0x64 PUSH1 0x40 MLOAD PUSH3 0x461BCD PUSH1 0xE5 SHL DUP2 MSTORE PUSH1 0x20 PUSH1 0x4 DUP3 ADD MSTORE PUSH1 0x18 PUSH1 0x24 DUP3 ADD MSTORE PUSH32 0x4D617820313020706572207573657220706572207369676E0000000000000000 PUSH1 0x44 DUP3 ADD MSTORE REVERT JUMPDEST PUSH1 0x40 MLOAD SWAP1 PUSH2 0x15B7 DUP3 PUSH2 0x576 JUMP JUMPDEST PUSH1 0x0 DUP3 MSTORE JUMP JUMPDEST SWAP4 SWAP3 SWAP2 PUSH1 0x20 SWAP2 PUSH2 0x15D5 SWAP2 PUSH1 0x40 DUP8 MSTORE PUSH1 0x40 DUP8 ADD SWAP2 PUSH2 0x1325 JUMP JUMPDEST SWAP4 ADD MSTORE JUMP JUMPDEST SWAP1 PUSH2 0x15E4 DUP3 PUSH2 0x631 JUMP JUMPDEST PUSH2 0x15F1 PUSH1 0x40 MLOAD SWAP2 DUP3 PUSH2 0x597 JUMP JUMPDEST DUP3 DUP2 MSTORE DUP1 SWAP3 PUSH2 0x1602 PUSH1 0x1F NOT SWAP2 PUSH2 0x631 JUMP JUMPDEST ADD SWAP1 PUSH1 0x20 CALLDATASIZE SWAP2 ADD CALLDATACOPY JUMP JUMPDEST PUSH1 0x1 PUSH1 0x1 PUSH1 0xA0 SHL SUB PUSH1 0x3 SLOAD AND CALLER SUB PUSH2 0x1620 JUMPI JUMP JUMPDEST PUSH1 0x24 PUSH1 0x40 MLOAD PUSH32 0x118CDAA700000000000000000000000000000000000000000000000000000000 DUP2 MSTORE CALLER PUSH1 0x4 DUP3 ADD MSTORE REVERT JUMPDEST RETURNDATASIZE ISZERO PUSH2 0x167B JUMPI RETURNDATASIZE SWAP1 PUSH2 0x1661 DUP3 PUSH2 0x631 JUMP JUMPDEST SWAP2 PUSH2 0x166F PUSH1 0x40 MLOAD SWAP4 DUP5 PUSH2 0x597 JUMP JUMPDEST DUP3 MSTORE RETURNDATASIZE PUSH1 0x0 PUSH1 0x20 DUP5 ADD RETURNDATACOPY JUMP JUMPDEST PUSH1 0x60 SWAP1 JUMP JUMPDEST PUSH1 0x2 PUSH1 0x4 SLOAD EQ PUSH2 0x1691 JUMPI PUSH1 0x2 PUSH1 0x4 SSTORE JUMP JUMPDEST PUSH1 0x4 PUSH1 0x40 MLOAD PUSH32 0x3EE5AEB500000000000000000000000000000000000000000000000000000000 DUP2 MSTORE REVERT JUMPDEST PUSH1 0x1 PUSH1 0x1 PUSH1 0xA0 SHL SUB DUP2 AND SWAP2 DUP3 ISZERO PUSH2 0x10B2 JUMPI PUSH2 0x16F5 PUSH1 0x40 MLOAD SWAP2 PUSH1 0x1 DUP4 MSTORE PUSH1 0x20 DUP4 ADD MSTORE PUSH1 0x40 DUP3 ADD SWAP1 PUSH1 0x1 DUP3 MSTORE PUSH1 0x1 PUSH1 0x60 DUP5 ADD MSTORE PUSH1 0x80 DUP4 ADD PUSH1 0x40 MSTORE JUMP JUMPDEST SWAP2 SWAP1 PUSH1 0x40 SWAP5 PUSH1 0x0 PUSH1 0x40 MLOAD PUSH2 0x1708 DUP2 PUSH2 0x576 JUMP JUMPDEST MSTORE DUP2 MLOAD DUP5 MLOAD SWAP1 DUP2 DUP2 SUB PUSH2 0x1404 JUMPI POP POP PUSH1 0x0 JUMPDEST DUP3 MLOAD DUP2 LT ISZERO PUSH2 0x17C8 JUMPI DUP1 PUSH1 0x5 SHL PUSH1 0x20 DUP1 DUP3 DUP7 ADD ADD MLOAD SWAP2 DUP8 ADD ADD MLOAD PUSH2 0x1764 DUP7 PUSH2 0x174C DUP5 PUSH1 0x0 MSTORE PUSH1 0x0 PUSH1 0x20 MSTORE PUSH1 0x40 PUSH1 0x0 KECCAK256 SWAP1 JUMP JUMPDEST SWAP1 PUSH1 0x1 PUSH1 0x1 PUSH1 0xA0 SHL SUB AND PUSH1 0x0 MSTORE PUSH1 0x20 MSTORE PUSH1 0x40 PUSH1 0x0 KECCAK256 SWAP1 JUMP JUMPDEST SLOAD DUP2 DUP2 LT PUSH2 0x1792 JUMPI DUP7 PUSH2 0x174C PUSH1 0x1 SWAP6 SWAP5 SWAP4 PUSH2 0x178B SWAP4 SUB SWAP4 PUSH1 0x0 MSTORE PUSH1 0x0 PUSH1 0x20 MSTORE PUSH1 0x40 PUSH1 0x0 KECCAK256 SWAP1 JUMP JUMPDEST SSTORE ADD PUSH2 0x171A JUMP JUMPDEST DUP10 MLOAD PUSH4 0x3DEE4C5 PUSH1 0xE0 SHL DUP2 MSTORE PUSH1 0x1 PUSH1 0x1 PUSH1 0xA0 SHL SUB DUP9 AND PUSH1 0x4 DUP3 ADD MSTORE PUSH1 0x24 DUP2 ADD SWAP2 SWAP1 SWAP2 MSTORE PUSH1 0x44 DUP2 ADD DUP3 SWAP1 MSTORE PUSH1 0x64 DUP2 ADD DUP4 SWAP1 MSTORE PUSH1 0x84 SWAP1 REVERT JUMPDEST POP SWAP5 POP PUSH1 0x0 SWAP4 SWAP3 SWAP2 POP PUSH1 0x1 DUP2 MLOAD EQ DUP5 EQ PUSH2 0x181F JUMPI PUSH1 0x20 SWAP1 DUP2 ADD MLOAD SWAP2 DUP2 ADD MLOAD PUSH1 0x40 DUP1 MLOAD SWAP4 DUP5 MSTORE SWAP2 DUP4 ADD MSTORE CALLER SWAP2 PUSH32 0xC3D58168C5AE7397731D063D5BBF3D657854427343F4C083240F7AACAA2D0F62 SWAP2 DUP2 SWAP1 DUP2 ADD JUMPDEST SUB SWAP1 LOG4 JUMP JUMPDEST PUSH1 0x40 MLOAD CALLER SWAP3 PUSH32 0x4A39DC06D4C0DBC64B70AF90FD698A233A518AA5D07E595D983B8C0526C8F7FB SWAP3 DUP3 SWAP2 PUSH2 0x181A SWAP2 DUP4 PUSH2 0x1B8F JUMP JUMPDEST SWAP1 SWAP3 SWAP2 SWAP3 PUSH1 0x1 PUSH1 0x1 PUSH1 0xA0 SHL SUB DUP3 AND SWAP4 DUP5 ISZERO PUSH2 0x10C9 JUMPI PUSH2 0x188E PUSH1 0x40 MLOAD SWAP3 PUSH1 0x1 DUP5 MSTORE PUSH1 0x20 DUP5 ADD MSTORE PUSH1 0x40 DUP4 ADD SWAP2 PUSH1 0x1 DUP4 MSTORE PUSH1 0x60 DUP5 ADD MSTORE PUSH1 0x80 DUP4 ADD PUSH1 0x40 MSTORE JUMP JUMPDEST SWAP3 DUP2 MLOAD DUP5 MLOAD SWAP1 DUP2 DUP2 SUB PUSH2 0x1404 JUMPI POP POP PUSH1 0x0 JUMPDEST DUP3 MLOAD DUP2 LT ISZERO PUSH2 0x18E8 JUMPI DUP1 PUSH1 0x1 SWAP2 PUSH1 0x5 SHL PUSH2 0x18E0 PUSH2 0x18D8 DUP8 PUSH2 0x174C PUSH1 0x20 DUP1 DUP7 DUP12 ADD ADD MLOAD SWAP6 DUP13 ADD ADD MLOAD SWAP5 PUSH1 0x0 MSTORE PUSH1 0x0 PUSH1 0x20 MSTORE PUSH1 0x40 PUSH1 0x0 KECCAK256 SWAP1 JUMP JUMPDEST SWAP2 DUP3 SLOAD PUSH2 0x1507 JUMP JUMPDEST SWAP1 SSTORE ADD PUSH2 0x18A0 JUMP JUMPDEST POP SWAP3 SWAP2 SWAP4 PUSH1 0x1 DUP3 MLOAD EQ PUSH1 0x0 EQ PUSH2 0x195F JUMPI PUSH1 0x20 DUP3 DUP2 ADD MLOAD DUP5 DUP3 ADD MLOAD PUSH1 0x40 DUP1 MLOAD SWAP3 DUP4 MSTORE SWAP3 DUP3 ADD MSTORE PUSH1 0x0 SWAP2 CALLER SWAP2 PUSH32 0xC3D58168C5AE7397731D063D5BBF3D657854427343F4C083240F7AACAA2D0F62 SWAP2 SWAP1 LOG4 JUMPDEST DUP1 MLOAD PUSH1 0x1 SUB PUSH2 0x1955 JUMPI SWAP1 PUSH1 0x20 DUP1 PUSH2 0x123E SWAP6 SWAP4 ADD MLOAD SWAP2 ADD MLOAD SWAP2 CALLER PUSH2 0x1E46 JUMP JUMPDEST PUSH2 0x123E SWAP4 CALLER PUSH2 0x1C48 JUMP JUMPDEST PUSH1 0x0 PUSH1 0x40 MLOAD PUSH32 0x4A39DC06D4C0DBC64B70AF90FD698A233A518AA5D07E595D983B8C0526C8F7FB CALLER SWAP2 DUP1 PUSH2 0x1993 DUP9 DUP9 DUP4 PUSH2 0x1B8F JUMP JUMPDEST SUB SWAP1 LOG4 PUSH2 0x1937 JUMP JUMPDEST SWAP5 SWAP2 SWAP1 SWAP2 DUP2 MLOAD DUP5 MLOAD SWAP1 DUP2 DUP2 SUB PUSH2 0x1404 JUMPI POP POP PUSH1 0x0 JUMPDEST DUP3 MLOAD DUP2 LT ISZERO PUSH2 0x1A9B JUMPI DUP1 PUSH1 0x5 SHL SWAP1 PUSH1 0x20 DUP1 DUP4 DUP7 ADD ADD MLOAD SWAP3 DUP8 ADD ADD MLOAD DUP6 PUSH1 0x1 PUSH1 0x1 PUSH1 0xA0 SHL SUB SWAP4 DUP5 DUP12 AND PUSH2 0x1A15 JUMPI JUMPDEST PUSH1 0x1 SWAP5 DUP3 AND PUSH2 0x19F0 JUMPI JUMPDEST POP POP POP ADD PUSH2 0x19B0 JUMP JUMPDEST PUSH2 0x1A0B SWAP2 PUSH2 0x174C PUSH2 0x18D8 SWAP3 PUSH1 0x0 MSTORE PUSH1 0x0 PUSH1 0x20 MSTORE PUSH1 0x40 PUSH1 0x0 KECCAK256 SWAP1 JUMP JUMPDEST SWAP1 SSTORE CODESIZE DUP6 DUP2 PUSH2 0x19E7 JUMP JUMPDEST SWAP2 SWAP3 SWAP4 SWAP1 POP PUSH2 0x1A32 DUP11 PUSH2 0x174C DUP5 PUSH1 0x0 MSTORE PUSH1 0x0 PUSH1 0x20 MSTORE PUSH1 0x40 PUSH1 0x0 KECCAK256 SWAP1 JUMP JUMPDEST SLOAD DUP4 DUP2 LT PUSH2 0x1A64 JUMPI SWAP2 DUP8 SWAP2 DUP5 PUSH1 0x1 SWAP7 SWAP6 SWAP5 SUB PUSH2 0x1A5C DUP14 PUSH2 0x174C DUP6 PUSH1 0x0 MSTORE PUSH1 0x0 PUSH1 0x20 MSTORE PUSH1 0x40 PUSH1 0x0 KECCAK256 SWAP1 JUMP JUMPDEST SSTORE SWAP5 POP PUSH2 0x19DD JUMP JUMPDEST PUSH1 0x40 MLOAD PUSH4 0x3DEE4C5 PUSH1 0xE0 SHL DUP2 MSTORE PUSH1 0x1 PUSH1 0x1 PUSH1 0xA0 SHL SUB DUP13 AND PUSH1 0x4 DUP3 ADD MSTORE PUSH1 0x24 DUP2 ADD SWAP2 SWAP1 SWAP2 MSTORE PUSH1 0x44 DUP2 ADD DUP5 SWAP1 MSTORE PUSH1 0x64 DUP2 ADD DUP4 SWAP1 MSTORE PUSH1 0x84 SWAP1 REVERT JUMPDEST POP SWAP5 SWAP2 SWAP4 SWAP3 SWAP1 SWAP4 PUSH1 0x1 DUP6 MLOAD EQ PUSH1 0x0 EQ PUSH2 0x1B46 JUMPI PUSH1 0x20 DUP6 DUP2 ADD MLOAD DUP4 DUP3 ADD MLOAD PUSH1 0x40 DUP1 MLOAD SWAP3 DUP4 MSTORE SWAP3 DUP3 ADD MSTORE PUSH1 0x1 PUSH1 0x1 PUSH1 0xA0 SHL SUB DUP4 DUP2 AND SWAP3 SWAP1 DUP7 AND SWAP2 CALLER SWAP2 PUSH32 0xC3D58168C5AE7397731D063D5BBF3D657854427343F4C083240F7AACAA2D0F62 SWAP2 LOG4 JUMPDEST PUSH1 0x1 PUSH1 0x1 PUSH1 0xA0 SHL SUB DUP2 AND PUSH2 0x1B0F JUMPI JUMPDEST POP POP POP POP POP JUMP JUMPDEST DUP5 MLOAD PUSH1 0x1 SUB PUSH2 0x1B35 JUMPI PUSH1 0x20 DUP1 PUSH2 0x1B2B SWAP7 ADD MLOAD SWAP3 ADD MLOAD SWAP3 CALLER PUSH2 0x1E7B JUMP JUMPDEST CODESIZE DUP1 DUP1 DUP1 DUP1 PUSH2 0x1B08 JUMP JUMPDEST PUSH2 0x1B41 SWAP5 SWAP2 SWAP3 CALLER PUSH2 0x1D43 JUMP JUMPDEST PUSH2 0x1B2B JUMP JUMPDEST PUSH1 0x1 PUSH1 0x1 PUSH1 0xA0 SHL SUB PUSH1 0x40 MLOAD DUP2 DUP4 AND SWAP2 DUP6 AND SWAP1 PUSH32 0x4A39DC06D4C0DBC64B70AF90FD698A233A518AA5D07E595D983B8C0526C8F7FB CALLER SWAP2 DUP1 PUSH2 0x1B87 DUP9 DUP13 DUP4 PUSH2 0x1B8F JUMP JUMPDEST SUB SWAP1 LOG4 PUSH2 0x1AF9 JUMP JUMPDEST SWAP1 SWAP2 PUSH2 0x1BA6 PUSH2 0x32E SWAP4 PUSH1 0x40 DUP5 MSTORE PUSH1 0x40 DUP5 ADD SWAP1 PUSH2 0x9A8 JUMP JUMPDEST SWAP2 PUSH1 0x20 DUP2 DUP5 SUB SWAP2 ADD MSTORE PUSH2 0x9A8 JUMP JUMPDEST SWAP1 DUP2 PUSH1 0x20 SWAP2 SUB SLT PUSH2 0x18C JUMPI MLOAD PUSH2 0x32E DUP2 PUSH2 0x209 JUMP JUMPDEST SWAP3 PUSH2 0x1BF9 PUSH2 0x32E SWAP6 SWAP4 PUSH1 0x1 PUSH1 0x1 PUSH1 0xA0 SHL SUB PUSH2 0x1C07 SWAP5 AND DUP7 MSTORE PUSH1 0x0 PUSH1 0x20 DUP8 ADD MSTORE PUSH1 0xA0 PUSH1 0x40 DUP8 ADD MSTORE PUSH1 0xA0 DUP7 ADD SWAP1 PUSH2 0x9A8 JUMP JUMPDEST SWAP1 DUP5 DUP3 SUB PUSH1 0x60 DUP7 ADD MSTORE PUSH2 0x9A8 JUMP JUMPDEST SWAP2 PUSH1 0x80 DUP2 DUP5 SUB SWAP2 ADD MSTORE PUSH2 0x2F8 JUMP JUMPDEST SWAP4 SWAP1 PUSH2 0x32E SWAP6 SWAP4 PUSH2 0x1BF9 SWAP2 PUSH2 0x1C07 SWAP5 PUSH1 0x1 PUSH1 0x1 PUSH1 0xA0 SHL SUB DUP1 SWAP3 AND DUP9 MSTORE AND PUSH1 0x20 DUP8 ADD MSTORE PUSH1 0xA0 PUSH1 0x40 DUP8 ADD MSTORE PUSH1 0xA0 DUP7 ADD SWAP1 PUSH2 0x9A8 JUMP JUMPDEST SWAP3 SWAP4 SWAP2 SWAP1 SWAP4 DUP5 EXTCODESIZE PUSH2 0x1C5A JUMPI POP POP POP POP POP JUMP JUMPDEST PUSH1 0x20 SWAP2 PUSH2 0x1C7D PUSH1 0x40 MLOAD SWAP5 DUP6 SWAP4 DUP5 SWAP4 PUSH4 0xBC197C81 PUSH1 0xE0 SHL SWAP9 DUP10 DUP7 MSTORE PUSH1 0x4 DUP7 ADD PUSH2 0x1BC9 JUMP JUMPDEST SUB DUP2 PUSH1 0x0 PUSH1 0x1 PUSH1 0x1 PUSH1 0xA0 SHL SUB DUP9 AND GAS CALL PUSH1 0x0 SWAP2 DUP2 PUSH2 0x1D12 JUMPI JUMPDEST POP PUSH2 0x1CD5 JUMPI DUP3 PUSH2 0x1CA4 PUSH2 0x1650 JUMP JUMPDEST DUP1 MLOAD SWAP2 SWAP1 DUP3 PUSH2 0x1CCE JUMPI PUSH1 0x40 MLOAD PUSH4 0x2BFA23E7 PUSH1 0xE1 SHL DUP2 MSTORE PUSH1 0x1 PUSH1 0x1 PUSH1 0xA0 SHL SUB DUP4 AND PUSH1 0x4 DUP3 ADD MSTORE PUSH1 0x24 SWAP1 REVERT JUMPDEST PUSH1 0x20 SWAP2 POP ADD REVERT JUMPDEST PUSH1 0x1 PUSH1 0x1 PUSH1 0xE0 SHL SUB NOT AND SUB PUSH2 0x1CEF JUMPI POP CODESIZE DUP1 DUP1 DUP1 DUP1 PUSH2 0x1B08 JUMP JUMPDEST PUSH1 0x40 MLOAD PUSH4 0x2BFA23E7 PUSH1 0xE1 SHL DUP2 MSTORE PUSH1 0x1 PUSH1 0x1 PUSH1 0xA0 SHL SUB SWAP2 SWAP1 SWAP2 AND PUSH1 0x4 DUP3 ADD MSTORE PUSH1 0x24 SWAP1 REVERT JUMPDEST PUSH2 0x1D35 SWAP2 SWAP3 POP PUSH1 0x20 RETURNDATASIZE PUSH1 0x20 GT PUSH2 0x1D3C JUMPI JUMPDEST PUSH2 0x1D2D DUP2 DUP4 PUSH2 0x597 JUMP JUMPDEST DUP2 ADD SWAP1 PUSH2 0x1BB4 JUMP JUMPDEST SWAP1 CODESIZE PUSH2 0x1C96 JUMP JUMPDEST POP RETURNDATASIZE PUSH2 0x1D23 JUMP JUMPDEST SWAP4 SWAP3 SWAP1 SWAP5 SWAP2 SWAP5 DUP6 EXTCODESIZE PUSH2 0x1D58 JUMPI JUMPDEST POP POP POP POP POP POP JUMP JUMPDEST PUSH2 0x1D7B PUSH1 0x20 SWAP4 PUSH1 0x40 MLOAD SWAP6 DUP7 SWAP5 DUP6 SWAP5 PUSH4 0xBC197C81 PUSH1 0xE0 SHL SWAP10 DUP11 DUP8 MSTORE PUSH1 0x4 DUP8 ADD PUSH2 0x1C15 JUMP JUMPDEST SUB DUP2 PUSH1 0x0 PUSH1 0x1 PUSH1 0x1 PUSH1 0xA0 SHL SUB DUP9 AND GAS CALL PUSH1 0x0 SWAP2 DUP2 PUSH2 0x1DBD JUMPI JUMPDEST POP PUSH2 0x1DA2 JUMPI DUP3 PUSH2 0x1CA4 PUSH2 0x1650 JUMP JUMPDEST PUSH1 0x1 PUSH1 0x1 PUSH1 0xE0 SHL SUB NOT AND SUB PUSH2 0x1CEF JUMPI POP CODESIZE DUP1 DUP1 DUP1 DUP1 DUP1 PUSH2 0x1D50 JUMP JUMPDEST PUSH2 0x1DD7 SWAP2 SWAP3 POP PUSH1 0x20 RETURNDATASIZE PUSH1 0x20 GT PUSH2 0x1D3C JUMPI PUSH2 0x1D2D DUP2 DUP4 PUSH2 0x597 JUMP JUMPDEST SWAP1 CODESIZE PUSH2 0x1D94 JUMP JUMPDEST SWAP1 SWAP3 PUSH1 0xA0 SWAP3 PUSH1 0x1 PUSH1 0x1 PUSH1 0xA0 SHL SUB PUSH2 0x32E SWAP7 SWAP6 AND DUP4 MSTORE PUSH1 0x0 PUSH1 0x20 DUP5 ADD MSTORE PUSH1 0x40 DUP4 ADD MSTORE PUSH1 0x60 DUP3 ADD MSTORE DUP2 PUSH1 0x80 DUP3 ADD MSTORE ADD SWAP1 PUSH2 0x2F8 JUMP JUMPDEST SWAP2 SWAP3 PUSH2 0x32E SWAP6 SWAP5 SWAP2 PUSH1 0xA0 SWAP5 PUSH1 0x1 PUSH1 0x1 PUSH1 0xA0 SHL SUB DUP1 SWAP3 AND DUP6 MSTORE AND PUSH1 0x20 DUP5 ADD MSTORE PUSH1 0x40 DUP4 ADD MSTORE PUSH1 0x60 DUP3 ADD MSTORE DUP2 PUSH1 0x80 DUP3 ADD MSTORE ADD SWAP1 PUSH2 0x2F8 JUMP JUMPDEST SWAP3 SWAP4 SWAP2 SWAP1 SWAP4 DUP5 EXTCODESIZE PUSH2 0x1E58 JUMPI POP POP POP POP POP JUMP JUMPDEST PUSH1 0x20 SWAP2 PUSH2 0x1C7D PUSH1 0x40 MLOAD SWAP5 DUP6 SWAP4 DUP5 SWAP4 PUSH4 0xF23A6E61 PUSH1 0xE0 SHL SWAP9 DUP10 DUP7 MSTORE PUSH1 0x4 DUP7 ADD PUSH2 0x1DDE JUMP JUMPDEST SWAP4 SWAP3 SWAP1 SWAP5 SWAP2 SWAP5 DUP6 EXTCODESIZE PUSH2 0x1E8F JUMPI POP POP POP POP POP POP JUMP JUMPDEST PUSH2 0x1D7B PUSH1 0x20 SWAP4 PUSH1 0x40 MLOAD SWAP6 DUP7 SWAP5 DUP6 SWAP5 PUSH4 0xF23A6E61 PUSH1 0xE0 SHL SWAP10 DUP11 DUP8 MSTORE PUSH1 0x4 DUP8 ADD PUSH2 0x1E11 JUMP INVALID LOG2 PUSH5 0x6970667358 0x22 SLT KECCAK256 SWAP12 0xB5 0x24 0xB7 DUP10 STATICCALL DUP3 SWAP9 0xE8 OR PUSH12 0x61B02B0084A47D8DF511CED9 SWAP2 DUP8 0xD3 SWAP5 PUSH8 0x9D0C75B764736F6C PUSH4 0x43000818 STOP CALLER "},"methodIdentifiers":{"MAX_SUPPLY_PER_SIGN()":"2462a252","MINT_PRICE()":"c002d23d","balanceOf(address,uint256)":"00fdd58e","balanceOfBatch(address[],uint256[])":"4e1273f4","claimHoroscope(uint256,string)":"49d7f074","getSign(uint256)":"ec8451da","getTokenId(string)":"1e7663bc","isApprovedForAll(address,address)":"e985e9c5","mintSeed(string,uint256)":"93fb6e87","owner()":"8da5cb5b","renounceOwnership()":"715018a6","safeBatchTransferFrom(address,address,uint256[],uint256[],bytes)":"2eb2c2d6","safeTransferFrom(address,address,uint256,uint256,bytes)":"f242432a","setApprovalForAll(address,bool)":"a22cb465","signToTokenId(string)":"56f0866c","supportsInterface(bytes4)":"01ffc9a7","tokenIdToSign(uint256)":"f4a79b24","totalSupply(uint256)":"bd85b039","transferOwnership(address)":"f2fde38b","uri(uint256)":"0e89341c","userMints(address,uint256)":"cd49618c","withdraw()":"3ccfd60b"}}}}}